{
	"contracts/MyToken.sol": {
		"SchoolManagement": {
			"abi": [
				{
					"inputs": [],
					"stateMutability": "nonpayable",
					"type": "constructor"
				},
				{
					"inputs": [],
					"name": "getAllStudentsCount",
					"outputs": [
						{
							"internalType": "uint256",
							"name": "",
							"type": "uint256"
						}
					],
					"stateMutability": "view",
					"type": "function"
				},
				{
					"inputs": [
						{
							"internalType": "enum SchoolManagement.Level",
							"name": "_level",
							"type": "uint8"
						}
					],
					"name": "getSchoolFee",
					"outputs": [
						{
							"internalType": "uint256",
							"name": "",
							"type": "uint256"
						}
					],
					"stateMutability": "pure",
					"type": "function"
				},
				{
					"inputs": [
						{
							"internalType": "uint256",
							"name": "_id",
							"type": "uint256"
						}
					],
					"name": "getStaff",
					"outputs": [
						{
							"components": [
								{
									"internalType": "uint256",
									"name": "id",
									"type": "uint256"
								},
								{
									"internalType": "string",
									"name": "name",
									"type": "string"
								},
								{
									"internalType": "bool",
									"name": "isRegistered",
									"type": "bool"
								},
								{
									"internalType": "bool",
									"name": "salaryPaid",
									"type": "bool"
								},
								{
									"internalType": "uint256",
									"name": "salaryAmount",
									"type": "uint256"
								},
								{
									"internalType": "uint256",
									"name": "paymentTimestamp",
									"type": "uint256"
								}
							],
							"internalType": "struct SchoolManagement.Staff",
							"name": "",
							"type": "tuple"
						}
					],
					"stateMutability": "view",
					"type": "function"
				},
				{
					"inputs": [
						{
							"internalType": "uint256",
							"name": "_id",
							"type": "uint256"
						}
					],
					"name": "getStudent",
					"outputs": [
						{
							"components": [
								{
									"internalType": "uint256",
									"name": "id",
									"type": "uint256"
								},
								{
									"internalType": "string",
									"name": "name",
									"type": "string"
								},
								{
									"internalType": "enum SchoolManagement.Level",
									"name": "level",
									"type": "uint8"
								},
								{
									"internalType": "bool",
									"name": "isRegistered",
									"type": "bool"
								},
								{
									"internalType": "bool",
									"name": "feePaid",
									"type": "bool"
								},
								{
									"internalType": "uint256",
									"name": "amountPaid",
									"type": "uint256"
								},
								{
									"internalType": "uint256",
									"name": "paymentTimestamp",
									"type": "uint256"
								}
							],
							"internalType": "struct SchoolManagement.Student",
							"name": "",
							"type": "tuple"
						}
					],
					"stateMutability": "view",
					"type": "function"
				},
				{
					"inputs": [],
					"name": "owner",
					"outputs": [
						{
							"internalType": "address",
							"name": "",
							"type": "address"
						}
					],
					"stateMutability": "view",
					"type": "function"
				},
				{
					"inputs": [
						{
							"internalType": "uint256",
							"name": "_id",
							"type": "uint256"
						}
					],
					"name": "payStaff",
					"outputs": [],
					"stateMutability": "payable",
					"type": "function"
				},
				{
					"inputs": [
						{
							"internalType": "string",
							"name": "_name",
							"type": "string"
						}
					],
					"name": "registerStaff",
					"outputs": [],
					"stateMutability": "nonpayable",
					"type": "function"
				},
				{
					"inputs": [
						{
							"internalType": "string",
							"name": "_name",
							"type": "string"
						},
						{
							"internalType": "enum SchoolManagement.Level",
							"name": "_level",
							"type": "uint8"
						}
					],
					"name": "registerStudent",
					"outputs": [],
					"stateMutability": "payable",
					"type": "function"
				},
				{
					"inputs": [],
					"name": "staffCount",
					"outputs": [
						{
							"internalType": "uint256",
							"name": "",
							"type": "uint256"
						}
					],
					"stateMutability": "view",
					"type": "function"
				},
				{
					"inputs": [
						{
							"internalType": "uint256",
							"name": "",
							"type": "uint256"
						}
					],
					"name": "staffs",
					"outputs": [
						{
							"internalType": "uint256",
							"name": "id",
							"type": "uint256"
						},
						{
							"internalType": "string",
							"name": "name",
							"type": "string"
						},
						{
							"internalType": "bool",
							"name": "isRegistered",
							"type": "bool"
						},
						{
							"internalType": "bool",
							"name": "salaryPaid",
							"type": "bool"
						},
						{
							"internalType": "uint256",
							"name": "salaryAmount",
							"type": "uint256"
						},
						{
							"internalType": "uint256",
							"name": "paymentTimestamp",
							"type": "uint256"
						}
					],
					"stateMutability": "view",
					"type": "function"
				},
				{
					"inputs": [],
					"name": "studentCount",
					"outputs": [
						{
							"internalType": "uint256",
							"name": "",
							"type": "uint256"
						}
					],
					"stateMutability": "view",
					"type": "function"
				},
				{
					"inputs": [
						{
							"internalType": "uint256",
							"name": "",
							"type": "uint256"
						}
					],
					"name": "students",
					"outputs": [
						{
							"internalType": "uint256",
							"name": "id",
							"type": "uint256"
						},
						{
							"internalType": "string",
							"name": "name",
							"type": "string"
						},
						{
							"internalType": "enum SchoolManagement.Level",
							"name": "level",
							"type": "uint8"
						},
						{
							"internalType": "bool",
							"name": "isRegistered",
							"type": "bool"
						},
						{
							"internalType": "bool",
							"name": "feePaid",
							"type": "bool"
						},
						{
							"internalType": "uint256",
							"name": "amountPaid",
							"type": "uint256"
						},
						{
							"internalType": "uint256",
							"name": "paymentTimestamp",
							"type": "uint256"
						}
					],
					"stateMutability": "view",
					"type": "function"
				},
				{
					"inputs": [],
					"name": "withdraw",
					"outputs": [],
					"stateMutability": "nonpayable",
					"type": "function"
				}
			],
			"devdoc": {
				"kind": "dev",
				"methods": {},
				"version": 1
			},
			"evm": {
				"assembly": "    /* \"contracts/MyToken.sol\":58:3128  contract SchoolManagement {... */\n  mstore(0x40, 0x80)\n    /* \"contracts/MyToken.sol\":118:167  constructor() {... */\n  callvalue\n  dup1\n  iszero\n  tag_1\n  jumpi\n  revert(0x00, 0x00)\ntag_1:\n  pop\n    /* \"contracts/MyToken.sol\":150:160  msg.sender */\n  caller\n    /* \"contracts/MyToken.sol\":142:147  owner */\n  0x00\n  0x00\n    /* \"contracts/MyToken.sol\":142:160  owner = msg.sender */\n  0x0100\n  exp\n  dup2\n  sload\n  dup2\n  0xffffffffffffffffffffffffffffffffffffffff\n  mul\n  not\n  and\n  swap1\n  dup4\n  0xffffffffffffffffffffffffffffffffffffffff\n  and\n  mul\n  or\n  swap1\n  sstore\n  pop\n    /* \"contracts/MyToken.sol\":58:3128  contract SchoolManagement {... */\n  dataSize(sub_0)\n  dup1\n  dataOffset(sub_0)\n  0x00\n  codecopy\n  0x00\n  return\nstop\n\nsub_0: assembly {\n        /* \"contracts/MyToken.sol\":58:3128  contract SchoolManagement {... */\n      mstore(0x40, 0x80)\n      jumpi(tag_1, lt(calldatasize, 0x04))\n      shr(0xe0, calldataload(0x00))\n      dup1\n      0x73203ef1\n      gt\n      tag_15\n      jumpi\n      dup1\n      0x8f44fc15\n      gt\n      tag_16\n      jumpi\n      dup1\n      0x8f44fc15\n      eq\n      tag_11\n      jumpi\n      dup1\n      0x9ecafb1f\n      eq\n      tag_12\n      jumpi\n      dup1\n      0xe581f9ee\n      eq\n      tag_13\n      jumpi\n      dup1\n      0xf4def44b\n      eq\n      tag_14\n      jumpi\n      jump(tag_1)\n    tag_16:\n      dup1\n      0x73203ef1\n      eq\n      tag_8\n      jumpi\n      dup1\n      0x839f52b8\n      eq\n      tag_9\n      jumpi\n      dup1\n      0x8da5cb5b\n      eq\n      tag_10\n      jumpi\n      jump(tag_1)\n    tag_15:\n      dup1\n      0x06ead22e\n      eq\n      tag_2\n      jumpi\n      dup1\n      0x07b1f385\n      eq\n      tag_3\n      jumpi\n      dup1\n      0x38dda849\n      eq\n      tag_4\n      jumpi\n      dup1\n      0x3ccfd60b\n      eq\n      tag_5\n      jumpi\n      dup1\n      0x498d4707\n      eq\n      tag_6\n      jumpi\n      dup1\n      0x642f9163\n      eq\n      tag_7\n      jumpi\n    tag_1:\n      revert(0x00, 0x00)\n        /* \"contracts/MyToken.sol\":742:782  mapping(uint => Student) public students */\n    tag_2:\n      callvalue\n      dup1\n      iszero\n      tag_17\n      jumpi\n      revert(0x00, 0x00)\n    tag_17:\n      pop\n      tag_18\n      0x04\n      dup1\n      calldatasize\n      sub\n      dup2\n      add\n      swap1\n      tag_19\n      swap2\n      swap1\n      tag_20\n      jump\t// in\n    tag_19:\n      tag_21\n      jump\t// in\n    tag_18:\n      mload(0x40)\n      tag_22\n      swap8\n      swap7\n      swap6\n      swap5\n      swap4\n      swap3\n      swap2\n      swap1\n      tag_23\n      jump\t// in\n    tag_22:\n      mload(0x40)\n      dup1\n      swap2\n      sub\n      swap1\n      return\n        /* \"contracts/MyToken.sol\":862:1165  function getSchoolFee(Level _level) public pure returns (uint) {... */\n    tag_3:\n      callvalue\n      dup1\n      iszero\n      tag_24\n      jumpi\n      revert(0x00, 0x00)\n    tag_24:\n      pop\n      tag_25\n      0x04\n      dup1\n      calldatasize\n      sub\n      dup2\n      add\n      swap1\n      tag_26\n      swap2\n      swap1\n      tag_27\n      jump\t// in\n    tag_26:\n      tag_28\n      jump\t// in\n    tag_25:\n      mload(0x40)\n      tag_29\n      swap2\n      swap1\n      tag_30\n      jump\t// in\n    tag_29:\n      mload(0x40)\n      dup1\n      swap2\n      sub\n      swap1\n      return\n        /* \"contracts/MyToken.sol\":713:735  uint public staffCount */\n    tag_4:\n      callvalue\n      dup1\n      iszero\n      tag_31\n      jumpi\n      revert(0x00, 0x00)\n    tag_31:\n      pop\n      tag_32\n      tag_33\n      jump\t// in\n    tag_32:\n      mload(0x40)\n      tag_34\n      swap2\n      swap1\n      tag_30\n      jump\t// in\n    tag_34:\n      mload(0x40)\n      dup1\n      swap2\n      sub\n      swap1\n      return\n        /* \"contracts/MyToken.sol\":3026:3126  function withdraw() public onlyOwner {... */\n    tag_5:\n      callvalue\n      dup1\n      iszero\n      tag_35\n      jumpi\n      revert(0x00, 0x00)\n    tag_35:\n      pop\n      tag_36\n      tag_37\n      jump\t// in\n    tag_36:\n      stop\n        /* \"contracts/MyToken.sol\":788:824  mapping(uint => Staff) public staffs */\n    tag_6:\n      callvalue\n      dup1\n      iszero\n      tag_38\n      jumpi\n      revert(0x00, 0x00)\n    tag_38:\n      pop\n      tag_39\n      0x04\n      dup1\n      calldatasize\n      sub\n      dup2\n      add\n      swap1\n      tag_40\n      swap2\n      swap1\n      tag_20\n      jump\t// in\n    tag_40:\n      tag_41\n      jump\t// in\n    tag_39:\n      mload(0x40)\n      tag_42\n      swap7\n      swap6\n      swap5\n      swap4\n      swap3\n      swap2\n      swap1\n      tag_43\n      jump\t// in\n    tag_42:\n      mload(0x40)\n      dup1\n      swap2\n      sub\n      swap1\n      return\n        /* \"contracts/MyToken.sol\":1752:1922  function getStudent(uint _id) public view returns (Student memory) {... */\n    tag_7:\n      callvalue\n      dup1\n      iszero\n      tag_44\n      jumpi\n      revert(0x00, 0x00)\n    tag_44:\n      pop\n      tag_45\n      0x04\n      dup1\n      calldatasize\n      sub\n      dup2\n      add\n      swap1\n      tag_46\n      swap2\n      swap1\n      tag_20\n      jump\t// in\n    tag_46:\n      tag_47\n      jump\t// in\n    tag_45:\n      mload(0x40)\n      tag_48\n      swap2\n      swap1\n      tag_49\n      jump\t// in\n    tag_48:\n      mload(0x40)\n      dup1\n      swap2\n      sub\n      swap1\n      return\n        /* \"contracts/MyToken.sol\":1218:1719  function registerStudent(string memory _name, Level _level) public payable {... */\n    tag_8:\n      tag_50\n      0x04\n      dup1\n      calldatasize\n      sub\n      dup2\n      add\n      swap1\n      tag_51\n      swap2\n      swap1\n      tag_52\n      jump\t// in\n    tag_51:\n      tag_53\n      jump\t// in\n    tag_50:\n      stop\n        /* \"contracts/MyToken.sol\":1963:2057  function getAllStudentsCount() public view returns (uint) {... */\n    tag_9:\n      callvalue\n      dup1\n      iszero\n      tag_54\n      jumpi\n      revert(0x00, 0x00)\n    tag_54:\n      pop\n      tag_55\n      tag_56\n      jump\t// in\n    tag_55:\n      mload(0x40)\n      tag_57\n      swap2\n      swap1\n      tag_30\n      jump\t// in\n    tag_57:\n      mload(0x40)\n      dup1\n      swap2\n      sub\n      swap1\n      return\n        /* \"contracts/MyToken.sol\":91:111  address public owner */\n    tag_10:\n      callvalue\n      dup1\n      iszero\n      tag_58\n      jumpi\n      revert(0x00, 0x00)\n    tag_58:\n      pop\n      tag_59\n      tag_60\n      jump\t// in\n    tag_59:\n      mload(0x40)\n      tag_61\n      swap2\n      swap1\n      tag_62\n      jump\t// in\n    tag_61:\n      mload(0x40)\n      dup1\n      swap2\n      sub\n      swap1\n      return\n        /* \"contracts/MyToken.sol\":2107:2424  function registerStaff(string memory _name) public onlyOwner {... */\n    tag_11:\n      callvalue\n      dup1\n      iszero\n      tag_63\n      jumpi\n      revert(0x00, 0x00)\n    tag_63:\n      pop\n      tag_64\n      0x04\n      dup1\n      calldatasize\n      sub\n      dup2\n      add\n      swap1\n      tag_65\n      swap2\n      swap1\n      tag_66\n      jump\t// in\n    tag_65:\n      tag_67\n      jump\t// in\n    tag_64:\n      stop\n        /* \"contracts/MyToken.sol\":2454:2783  function payStaff(uint _id) public payable onlyOwner {... */\n    tag_12:\n      tag_68\n      0x04\n      dup1\n      calldatasize\n      sub\n      dup2\n      add\n      swap1\n      tag_69\n      swap2\n      swap1\n      tag_20\n      jump\t// in\n    tag_69:\n      tag_70\n      jump\t// in\n    tag_68:\n      stop\n        /* \"contracts/MyToken.sol\":683:707  uint public studentCount */\n    tag_13:\n      callvalue\n      dup1\n      iszero\n      tag_71\n      jumpi\n      revert(0x00, 0x00)\n    tag_71:\n      pop\n      tag_72\n      tag_73\n      jump\t// in\n    tag_72:\n      mload(0x40)\n      tag_74\n      swap2\n      swap1\n      tag_30\n      jump\t// in\n    tag_74:\n      mload(0x40)\n      dup1\n      swap2\n      sub\n      swap1\n      return\n        /* \"contracts/MyToken.sol\":2814:2974  function getStaff(uint _id) public view returns (Staff memory) {... */\n    tag_14:\n      callvalue\n      dup1\n      iszero\n      tag_75\n      jumpi\n      revert(0x00, 0x00)\n    tag_75:\n      pop\n      tag_76\n      0x04\n      dup1\n      calldatasize\n      sub\n      dup2\n      add\n      swap1\n      tag_77\n      swap2\n      swap1\n      tag_20\n      jump\t// in\n    tag_77:\n      tag_78\n      jump\t// in\n    tag_76:\n      mload(0x40)\n      tag_79\n      swap2\n      swap1\n      tag_80\n      jump\t// in\n    tag_79:\n      mload(0x40)\n      dup1\n      swap2\n      sub\n      swap1\n      return\n        /* \"contracts/MyToken.sol\":742:782  mapping(uint => Student) public students */\n    tag_21:\n      mstore(0x20, 0x03)\n      dup1\n      0x00\n      mstore\n      keccak256(0x00, 0x40)\n      0x00\n      swap2\n      pop\n      swap1\n      pop\n      dup1\n      0x00\n      add\n      sload\n      swap1\n      dup1\n      0x01\n      add\n      dup1\n      sload\n      tag_81\n      swap1\n      tag_82\n      jump\t// in\n    tag_81:\n      dup1\n      0x1f\n      add\n      0x20\n      dup1\n      swap2\n      div\n      mul\n      0x20\n      add\n      mload(0x40)\n      swap1\n      dup2\n      add\n      0x40\n      mstore\n      dup1\n      swap3\n      swap2\n      swap1\n      dup2\n      dup2\n      mstore\n      0x20\n      add\n      dup3\n      dup1\n      sload\n      tag_83\n      swap1\n      tag_82\n      jump\t// in\n    tag_83:\n      dup1\n      iszero\n      tag_84\n      jumpi\n      dup1\n      0x1f\n      lt\n      tag_85\n      jumpi\n      0x0100\n      dup1\n      dup4\n      sload\n      div\n      mul\n      dup4\n      mstore\n      swap2\n      0x20\n      add\n      swap2\n      jump(tag_84)\n    tag_85:\n      dup3\n      add\n      swap2\n      swap1\n      0x00\n      mstore\n      keccak256(0x00, 0x20)\n      swap1\n    tag_86:\n      dup2\n      sload\n      dup2\n      mstore\n      swap1\n      0x01\n      add\n      swap1\n      0x20\n      add\n      dup1\n      dup4\n      gt\n      tag_86\n      jumpi\n      dup3\n      swap1\n      sub\n      0x1f\n      and\n      dup3\n      add\n      swap2\n    tag_84:\n      pop\n      pop\n      pop\n      pop\n      pop\n      swap1\n      dup1\n      0x02\n      add\n      0x00\n      swap1\n      sload\n      swap1\n      0x0100\n      exp\n      swap1\n      div\n      0xff\n      and\n      swap1\n      dup1\n      0x02\n      add\n      0x01\n      swap1\n      sload\n      swap1\n      0x0100\n      exp\n      swap1\n      div\n      0xff\n      and\n      swap1\n      dup1\n      0x02\n      add\n      0x02\n      swap1\n      sload\n      swap1\n      0x0100\n      exp\n      swap1\n      div\n      0xff\n      and\n      swap1\n      dup1\n      0x03\n      add\n      sload\n      swap1\n      dup1\n      0x04\n      add\n      sload\n      swap1\n      pop\n      dup8\n      jump\t// out\n        /* \"contracts/MyToken.sol\":862:1165  function getSchoolFee(Level _level) public pure returns (uint) {... */\n    tag_28:\n        /* \"contracts/MyToken.sol\":919:923  uint */\n      0x00\n        /* \"contracts/MyToken.sol\":949:959  Level.L100 */\n      0x00\n        /* \"contracts/MyToken.sol\":939:959  _level == Level.L100 */\n      0x03\n      dup2\n      gt\n      iszero\n      tag_88\n      jumpi\n      tag_89\n      tag_90\n      jump\t// in\n    tag_89:\n    tag_88:\n        /* \"contracts/MyToken.sol\":939:945  _level */\n      dup3\n        /* \"contracts/MyToken.sol\":939:959  _level == Level.L100 */\n      0x03\n      dup2\n      gt\n      iszero\n      tag_91\n      jumpi\n      tag_92\n      tag_90\n      jump\t// in\n    tag_92:\n    tag_91:\n      sub\n        /* \"contracts/MyToken.sol\":935:975  if (_level == Level.L100) return 1 ether */\n      tag_93\n      jumpi\n        /* \"contracts/MyToken.sol\":968:975  1 ether */\n      0x0de0b6b3a7640000\n        /* \"contracts/MyToken.sol\":961:975  return 1 ether */\n      swap1\n      pop\n      jump(tag_87)\n        /* \"contracts/MyToken.sol\":935:975  if (_level == Level.L100) return 1 ether */\n    tag_93:\n        /* \"contracts/MyToken.sol\":999:1009  Level.L200 */\n      0x01\n        /* \"contracts/MyToken.sol\":989:1009  _level == Level.L200 */\n      0x03\n      dup2\n      gt\n      iszero\n      tag_94\n      jumpi\n      tag_95\n      tag_90\n      jump\t// in\n    tag_95:\n    tag_94:\n        /* \"contracts/MyToken.sol\":989:995  _level */\n      dup3\n        /* \"contracts/MyToken.sol\":989:1009  _level == Level.L200 */\n      0x03\n      dup2\n      gt\n      iszero\n      tag_96\n      jumpi\n      tag_97\n      tag_90\n      jump\t// in\n    tag_97:\n    tag_96:\n      sub\n        /* \"contracts/MyToken.sol\":985:1025  if (_level == Level.L200) return 2 ether */\n      tag_98\n      jumpi\n        /* \"contracts/MyToken.sol\":1018:1025  2 ether */\n      0x1bc16d674ec80000\n        /* \"contracts/MyToken.sol\":1011:1025  return 2 ether */\n      swap1\n      pop\n      jump(tag_87)\n        /* \"contracts/MyToken.sol\":985:1025  if (_level == Level.L200) return 2 ether */\n    tag_98:\n        /* \"contracts/MyToken.sol\":1049:1059  Level.L300 */\n      0x02\n        /* \"contracts/MyToken.sol\":1039:1059  _level == Level.L300 */\n      0x03\n      dup2\n      gt\n      iszero\n      tag_99\n      jumpi\n      tag_100\n      tag_90\n      jump\t// in\n    tag_100:\n    tag_99:\n        /* \"contracts/MyToken.sol\":1039:1045  _level */\n      dup3\n        /* \"contracts/MyToken.sol\":1039:1059  _level == Level.L300 */\n      0x03\n      dup2\n      gt\n      iszero\n      tag_101\n      jumpi\n      tag_102\n      tag_90\n      jump\t// in\n    tag_102:\n    tag_101:\n      sub\n        /* \"contracts/MyToken.sol\":1035:1075  if (_level == Level.L300) return 3 ether */\n      tag_103\n      jumpi\n        /* \"contracts/MyToken.sol\":1068:1075  3 ether */\n      0x29a2241af62c0000\n        /* \"contracts/MyToken.sol\":1061:1075  return 3 ether */\n      swap1\n      pop\n      jump(tag_87)\n        /* \"contracts/MyToken.sol\":1035:1075  if (_level == Level.L300) return 3 ether */\n    tag_103:\n        /* \"contracts/MyToken.sol\":1099:1109  Level.L400 */\n      0x03\n        /* \"contracts/MyToken.sol\":1089:1109  _level == Level.L400 */\n      dup1\n      dup2\n      gt\n      iszero\n      tag_104\n      jumpi\n      tag_105\n      tag_90\n      jump\t// in\n    tag_105:\n    tag_104:\n        /* \"contracts/MyToken.sol\":1089:1095  _level */\n      dup3\n        /* \"contracts/MyToken.sol\":1089:1109  _level == Level.L400 */\n      0x03\n      dup2\n      gt\n      iszero\n      tag_106\n      jumpi\n      tag_107\n      tag_90\n      jump\t// in\n    tag_107:\n    tag_106:\n      sub\n        /* \"contracts/MyToken.sol\":1085:1125  if (_level == Level.L400) return 4 ether */\n      tag_108\n      jumpi\n        /* \"contracts/MyToken.sol\":1118:1125  4 ether */\n      0x3782dace9d900000\n        /* \"contracts/MyToken.sol\":1111:1125  return 4 ether */\n      swap1\n      pop\n      jump(tag_87)\n        /* \"contracts/MyToken.sol\":1085:1125  if (_level == Level.L400) return 4 ether */\n    tag_108:\n        /* \"contracts/MyToken.sol\":1135:1158  revert(\"Invalid level\") */\n      mload(0x40)\n      0x08c379a000000000000000000000000000000000000000000000000000000000\n      dup2\n      mstore\n      0x04\n      add\n      tag_109\n      swap1\n      tag_110\n      jump\t// in\n    tag_109:\n      mload(0x40)\n      dup1\n      swap2\n      sub\n      swap1\n      revert\n        /* \"contracts/MyToken.sol\":862:1165  function getSchoolFee(Level _level) public pure returns (uint) {... */\n    tag_87:\n      swap2\n      swap1\n      pop\n      jump\t// out\n        /* \"contracts/MyToken.sol\":713:735  uint public staffCount */\n    tag_33:\n      sload(0x02)\n      dup2\n      jump\t// out\n        /* \"contracts/MyToken.sol\":3026:3126  function withdraw() public onlyOwner {... */\n    tag_37:\n        /* \"contracts/MyToken.sol\":226:231  owner */\n      0x00\n      0x00\n      swap1\n      sload\n      swap1\n      0x0100\n      exp\n      swap1\n      div\n      0xffffffffffffffffffffffffffffffffffffffff\n      and\n        /* \"contracts/MyToken.sol\":212:231  msg.sender == owner */\n      0xffffffffffffffffffffffffffffffffffffffff\n      and\n        /* \"contracts/MyToken.sol\":212:222  msg.sender */\n      caller\n        /* \"contracts/MyToken.sol\":212:231  msg.sender == owner */\n      0xffffffffffffffffffffffffffffffffffffffff\n      and\n      eq\n        /* \"contracts/MyToken.sol\":204:250  require(msg.sender == owner, \"Not authorized\") */\n      tag_112\n      jumpi\n      mload(0x40)\n      0x08c379a000000000000000000000000000000000000000000000000000000000\n      dup2\n      mstore\n      0x04\n      add\n      tag_113\n      swap1\n      tag_114\n      jump\t// in\n    tag_113:\n      mload(0x40)\n      dup1\n      swap2\n      sub\n      swap1\n      revert\n    tag_112:\n        /* \"contracts/MyToken.sol\":3081:3086  owner */\n      0x00\n      0x00\n      swap1\n      sload\n      swap1\n      0x0100\n      exp\n      swap1\n      div\n      0xffffffffffffffffffffffffffffffffffffffff\n      and\n        /* \"contracts/MyToken.sol\":3073:3096  payable(owner).transfer */\n      0xffffffffffffffffffffffffffffffffffffffff\n      and\n        /* \"contracts/MyToken.sol\":3073:3119  payable(owner).transfer(address(this).balance) */\n      0x08fc\n        /* \"contracts/MyToken.sol\":3097:3118  address(this).balance */\n      selfbalance\n        /* \"contracts/MyToken.sol\":3073:3119  payable(owner).transfer(address(this).balance) */\n      swap1\n      dup2\n      iszero\n      mul\n      swap1\n      mload(0x40)\n      0x00\n      mload(0x40)\n      dup1\n      dup4\n      sub\n      dup2\n      dup6\n      dup9\n      dup9\n      call\n      swap4\n      pop\n      pop\n      pop\n      pop\n      iszero\n      dup1\n      iszero\n      tag_117\n      jumpi\n      returndatacopy(0x00, 0x00, returndatasize)\n      revert(0x00, returndatasize)\n    tag_117:\n      pop\n        /* \"contracts/MyToken.sol\":3026:3126  function withdraw() public onlyOwner {... */\n      jump\t// out\n        /* \"contracts/MyToken.sol\":788:824  mapping(uint => Staff) public staffs */\n    tag_41:\n      mstore(0x20, 0x04)\n      dup1\n      0x00\n      mstore\n      keccak256(0x00, 0x40)\n      0x00\n      swap2\n      pop\n      swap1\n      pop\n      dup1\n      0x00\n      add\n      sload\n      swap1\n      dup1\n      0x01\n      add\n      dup1\n      sload\n      tag_118\n      swap1\n      tag_82\n      jump\t// in\n    tag_118:\n      dup1\n      0x1f\n      add\n      0x20\n      dup1\n      swap2\n      div\n      mul\n      0x20\n      add\n      mload(0x40)\n      swap1\n      dup2\n      add\n      0x40\n      mstore\n      dup1\n      swap3\n      swap2\n      swap1\n      dup2\n      dup2\n      mstore\n      0x20\n      add\n      dup3\n      dup1\n      sload\n      tag_119\n      swap1\n      tag_82\n      jump\t// in\n    tag_119:\n      dup1\n      iszero\n      tag_120\n      jumpi\n      dup1\n      0x1f\n      lt\n      tag_121\n      jumpi\n      0x0100\n      dup1\n      dup4\n      sload\n      div\n      mul\n      dup4\n      mstore\n      swap2\n      0x20\n      add\n      swap2\n      jump(tag_120)\n    tag_121:\n      dup3\n      add\n      swap2\n      swap1\n      0x00\n      mstore\n      keccak256(0x00, 0x20)\n      swap1\n    tag_122:\n      dup2\n      sload\n      dup2\n      mstore\n      swap1\n      0x01\n      add\n      swap1\n      0x20\n      add\n      dup1\n      dup4\n      gt\n      tag_122\n      jumpi\n      dup3\n      swap1\n      sub\n      0x1f\n      and\n      dup3\n      add\n      swap2\n    tag_120:\n      pop\n      pop\n      pop\n      pop\n      pop\n      swap1\n      dup1\n      0x02\n      add\n      0x00\n      swap1\n      sload\n      swap1\n      0x0100\n      exp\n      swap1\n      div\n      0xff\n      and\n      swap1\n      dup1\n      0x02\n      add\n      0x01\n      swap1\n      sload\n      swap1\n      0x0100\n      exp\n      swap1\n      div\n      0xff\n      and\n      swap1\n      dup1\n      0x03\n      add\n      sload\n      swap1\n      dup1\n      0x04\n      add\n      sload\n      swap1\n      pop\n      dup7\n      jump\t// out\n        /* \"contracts/MyToken.sol\":1752:1922  function getStudent(uint _id) public view returns (Student memory) {... */\n    tag_47:\n        /* \"contracts/MyToken.sol\":1803:1817  Student memory */\n      tag_123\n      tag_124\n      jump\t// in\n    tag_123:\n        /* \"contracts/MyToken.sol\":1837:1845  students */\n      0x03\n        /* \"contracts/MyToken.sol\":1837:1850  students[_id] */\n      0x00\n        /* \"contracts/MyToken.sol\":1846:1849  _id */\n      dup4\n        /* \"contracts/MyToken.sol\":1837:1850  students[_id] */\n      dup2\n      mstore\n      0x20\n      add\n      swap1\n      dup2\n      mstore\n      0x20\n      add\n      0x00\n      keccak256\n        /* \"contracts/MyToken.sol\":1837:1863  students[_id].isRegistered */\n      0x02\n      add\n      0x01\n      swap1\n      sload\n      swap1\n      0x0100\n      exp\n      swap1\n      div\n      0xff\n      and\n        /* \"contracts/MyToken.sol\":1829:1885  require(students[_id].isRegistered, \"Student not found\") */\n      tag_126\n      jumpi\n      mload(0x40)\n      0x08c379a000000000000000000000000000000000000000000000000000000000\n      dup2\n      mstore\n      0x04\n      add\n      tag_127\n      swap1\n      tag_128\n      jump\t// in\n    tag_127:\n      mload(0x40)\n      dup1\n      swap2\n      sub\n      swap1\n      revert\n    tag_126:\n        /* \"contracts/MyToken.sol\":1902:1910  students */\n      0x03\n        /* \"contracts/MyToken.sol\":1902:1915  students[_id] */\n      0x00\n        /* \"contracts/MyToken.sol\":1911:1914  _id */\n      dup4\n        /* \"contracts/MyToken.sol\":1902:1915  students[_id] */\n      dup2\n      mstore\n      0x20\n      add\n      swap1\n      dup2\n      mstore\n      0x20\n      add\n      0x00\n      keccak256\n        /* \"contracts/MyToken.sol\":1895:1915  return students[_id] */\n      mload(0x40)\n      dup1\n      0xe0\n      add\n      0x40\n      mstore\n      swap1\n      dup2\n      0x00\n      dup3\n      add\n      sload\n      dup2\n      mstore\n      0x20\n      add\n      0x01\n      dup3\n      add\n      dup1\n      sload\n      tag_129\n      swap1\n      tag_82\n      jump\t// in\n    tag_129:\n      dup1\n      0x1f\n      add\n      0x20\n      dup1\n      swap2\n      div\n      mul\n      0x20\n      add\n      mload(0x40)\n      swap1\n      dup2\n      add\n      0x40\n      mstore\n      dup1\n      swap3\n      swap2\n      swap1\n      dup2\n      dup2\n      mstore\n      0x20\n      add\n      dup3\n      dup1\n      sload\n      tag_130\n      swap1\n      tag_82\n      jump\t// in\n    tag_130:\n      dup1\n      iszero\n      tag_131\n      jumpi\n      dup1\n      0x1f\n      lt\n      tag_132\n      jumpi\n      0x0100\n      dup1\n      dup4\n      sload\n      div\n      mul\n      dup4\n      mstore\n      swap2\n      0x20\n      add\n      swap2\n      jump(tag_131)\n    tag_132:\n      dup3\n      add\n      swap2\n      swap1\n      0x00\n      mstore\n      keccak256(0x00, 0x20)\n      swap1\n    tag_133:\n      dup2\n      sload\n      dup2\n      mstore\n      swap1\n      0x01\n      add\n      swap1\n      0x20\n      add\n      dup1\n      dup4\n      gt\n      tag_133\n      jumpi\n      dup3\n      swap1\n      sub\n      0x1f\n      and\n      dup3\n      add\n      swap2\n    tag_131:\n      pop\n      pop\n      pop\n      pop\n      pop\n      dup2\n      mstore\n      0x20\n      add\n      0x02\n      dup3\n      add\n      0x00\n      swap1\n      sload\n      swap1\n      0x0100\n      exp\n      swap1\n      div\n      0xff\n      and\n      0x03\n      dup2\n      gt\n      iszero\n      tag_134\n      jumpi\n      tag_135\n      tag_90\n      jump\t// in\n    tag_135:\n    tag_134:\n      0x03\n      dup2\n      gt\n      iszero\n      tag_136\n      jumpi\n      tag_137\n      tag_90\n      jump\t// in\n    tag_137:\n    tag_136:\n      dup2\n      mstore\n      0x20\n      add\n      0x02\n      dup3\n      add\n      0x01\n      swap1\n      sload\n      swap1\n      0x0100\n      exp\n      swap1\n      div\n      0xff\n      and\n      iszero\n      iszero\n      iszero\n      iszero\n      dup2\n      mstore\n      0x20\n      add\n      0x02\n      dup3\n      add\n      0x02\n      swap1\n      sload\n      swap1\n      0x0100\n      exp\n      swap1\n      div\n      0xff\n      and\n      iszero\n      iszero\n      iszero\n      iszero\n      dup2\n      mstore\n      0x20\n      add\n      0x03\n      dup3\n      add\n      sload\n      dup2\n      mstore\n      0x20\n      add\n      0x04\n      dup3\n      add\n      sload\n      dup2\n      mstore\n      pop\n      pop\n      swap1\n      pop\n        /* \"contracts/MyToken.sol\":1752:1922  function getStudent(uint _id) public view returns (Student memory) {... */\n      swap2\n      swap1\n      pop\n      jump\t// out\n        /* \"contracts/MyToken.sol\":1218:1719  function registerStudent(string memory _name, Level _level) public payable {... */\n    tag_53:\n        /* \"contracts/MyToken.sol\":1303:1319  uint requiredFee */\n      0x00\n        /* \"contracts/MyToken.sol\":1322:1342  getSchoolFee(_level) */\n      tag_139\n        /* \"contracts/MyToken.sol\":1335:1341  _level */\n      dup3\n        /* \"contracts/MyToken.sol\":1322:1334  getSchoolFee */\n      tag_28\n        /* \"contracts/MyToken.sol\":1322:1342  getSchoolFee(_level) */\n      jump\t// in\n    tag_139:\n        /* \"contracts/MyToken.sol\":1303:1342  uint requiredFee = getSchoolFee(_level) */\n      swap1\n      pop\n        /* \"contracts/MyToken.sol\":1373:1384  requiredFee */\n      dup1\n        /* \"contracts/MyToken.sol\":1360:1369  msg.value */\n      callvalue\n        /* \"contracts/MyToken.sol\":1360:1384  msg.value == requiredFee */\n      eq\n        /* \"contracts/MyToken.sol\":1352:1409  require(msg.value == requiredFee, \"Incorrect fee amount\") */\n      tag_140\n      jumpi\n      mload(0x40)\n      0x08c379a000000000000000000000000000000000000000000000000000000000\n      dup2\n      mstore\n      0x04\n      add\n      tag_141\n      swap1\n      tag_142\n      jump\t// in\n    tag_141:\n      mload(0x40)\n      dup1\n      swap2\n      sub\n      swap1\n      revert\n    tag_140:\n        /* \"contracts/MyToken.sol\":1420:1432  studentCount */\n      0x01\n      0x00\n        /* \"contracts/MyToken.sol\":1420:1434  studentCount++ */\n      dup2\n      sload\n      dup1\n      swap3\n      swap2\n      swap1\n      tag_143\n      swap1\n      tag_144\n      jump\t// in\n    tag_143:\n      swap2\n      swap1\n      pop\n      sstore\n      pop\n        /* \"contracts/MyToken.sol\":1470:1712  Student({... */\n      mload(0x40)\n      dup1\n      0xe0\n      add\n      0x40\n      mstore\n      dup1\n        /* \"contracts/MyToken.sol\":1496:1508  studentCount */\n      sload(0x01)\n        /* \"contracts/MyToken.sol\":1470:1712  Student({... */\n      dup2\n      mstore\n      0x20\n      add\n        /* \"contracts/MyToken.sol\":1528:1533  _name */\n      dup5\n        /* \"contracts/MyToken.sol\":1470:1712  Student({... */\n      dup2\n      mstore\n      0x20\n      add\n        /* \"contracts/MyToken.sol\":1554:1560  _level */\n      dup4\n        /* \"contracts/MyToken.sol\":1470:1712  Student({... */\n      0x03\n      dup2\n      gt\n      iszero\n      tag_145\n      jumpi\n      tag_146\n      tag_90\n      jump\t// in\n    tag_146:\n    tag_145:\n      dup2\n      mstore\n      0x20\n      add\n        /* \"contracts/MyToken.sol\":1588:1592  true */\n      0x01\n        /* \"contracts/MyToken.sol\":1470:1712  Student({... */\n      iszero\n      iszero\n      dup2\n      mstore\n      0x20\n      add\n        /* \"contracts/MyToken.sol\":1615:1619  true */\n      0x01\n        /* \"contracts/MyToken.sol\":1470:1712  Student({... */\n      iszero\n      iszero\n      dup2\n      mstore\n      0x20\n      add\n        /* \"contracts/MyToken.sol\":1645:1654  msg.value */\n      callvalue\n        /* \"contracts/MyToken.sol\":1470:1712  Student({... */\n      dup2\n      mstore\n      0x20\n      add\n        /* \"contracts/MyToken.sol\":1686:1701  block.timestamp */\n      timestamp\n        /* \"contracts/MyToken.sol\":1470:1712  Student({... */\n      dup2\n      mstore\n      pop\n        /* \"contracts/MyToken.sol\":1445:1453  students */\n      0x03\n        /* \"contracts/MyToken.sol\":1445:1467  students[studentCount] */\n      0x00\n        /* \"contracts/MyToken.sol\":1454:1466  studentCount */\n      sload(0x01)\n        /* \"contracts/MyToken.sol\":1445:1467  students[studentCount] */\n      dup2\n      mstore\n      0x20\n      add\n      swap1\n      dup2\n      mstore\n      0x20\n      add\n      0x00\n      keccak256\n        /* \"contracts/MyToken.sol\":1445:1712  students[studentCount] = Student({... */\n      0x00\n      dup3\n      add\n      mload\n      dup2\n      0x00\n      add\n      sstore\n      0x20\n      dup3\n      add\n      mload\n      dup2\n      0x01\n      add\n      swap1\n      dup2\n      tag_147\n      swap2\n      swap1\n      tag_148\n      jump\t// in\n    tag_147:\n      pop\n      0x40\n      dup3\n      add\n      mload\n      dup2\n      0x02\n      add\n      exp(0x0100, 0x00)\n      dup2\n      sload\n      dup2\n      0xff\n      mul\n      not\n      and\n      swap1\n      dup4\n      0x03\n      dup2\n      gt\n      iszero\n      tag_149\n      jumpi\n      tag_150\n      tag_90\n      jump\t// in\n    tag_150:\n    tag_149:\n      mul\n      or\n      swap1\n      sstore\n      pop\n      0x60\n      dup3\n      add\n      mload\n      dup2\n      0x02\n      add\n      exp(0x0100, 0x01)\n      dup2\n      sload\n      dup2\n      0xff\n      mul\n      not\n      and\n      swap1\n      dup4\n      iszero\n      iszero\n      mul\n      or\n      swap1\n      sstore\n      pop\n      0x80\n      dup3\n      add\n      mload\n      dup2\n      0x02\n      add\n      exp(0x0100, 0x02)\n      dup2\n      sload\n      dup2\n      0xff\n      mul\n      not\n      and\n      swap1\n      dup4\n      iszero\n      iszero\n      mul\n      or\n      swap1\n      sstore\n      pop\n      0xa0\n      dup3\n      add\n      mload\n      dup2\n      0x03\n      add\n      sstore\n      0xc0\n      dup3\n      add\n      mload\n      dup2\n      0x04\n      add\n      sstore\n      swap1\n      pop\n      pop\n        /* \"contracts/MyToken.sol\":1293:1719  {... */\n      pop\n        /* \"contracts/MyToken.sol\":1218:1719  function registerStudent(string memory _name, Level _level) public payable {... */\n      pop\n      pop\n      jump\t// out\n        /* \"contracts/MyToken.sol\":1963:2057  function getAllStudentsCount() public view returns (uint) {... */\n    tag_56:\n        /* \"contracts/MyToken.sol\":2015:2019  uint */\n      0x00\n        /* \"contracts/MyToken.sol\":2038:2050  studentCount */\n      sload(0x01)\n        /* \"contracts/MyToken.sol\":2031:2050  return studentCount */\n      swap1\n      pop\n        /* \"contracts/MyToken.sol\":1963:2057  function getAllStudentsCount() public view returns (uint) {... */\n      swap1\n      jump\t// out\n        /* \"contracts/MyToken.sol\":91:111  address public owner */\n    tag_60:\n      0x00\n      0x00\n      swap1\n      sload\n      swap1\n      0x0100\n      exp\n      swap1\n      div\n      0xffffffffffffffffffffffffffffffffffffffff\n      and\n      dup2\n      jump\t// out\n        /* \"contracts/MyToken.sol\":2107:2424  function registerStaff(string memory _name) public onlyOwner {... */\n    tag_67:\n        /* \"contracts/MyToken.sol\":226:231  owner */\n      0x00\n      0x00\n      swap1\n      sload\n      swap1\n      0x0100\n      exp\n      swap1\n      div\n      0xffffffffffffffffffffffffffffffffffffffff\n      and\n        /* \"contracts/MyToken.sol\":212:231  msg.sender == owner */\n      0xffffffffffffffffffffffffffffffffffffffff\n      and\n        /* \"contracts/MyToken.sol\":212:222  msg.sender */\n      caller\n        /* \"contracts/MyToken.sol\":212:231  msg.sender == owner */\n      0xffffffffffffffffffffffffffffffffffffffff\n      and\n      eq\n        /* \"contracts/MyToken.sol\":204:250  require(msg.sender == owner, \"Not authorized\") */\n      tag_153\n      jumpi\n      mload(0x40)\n      0x08c379a000000000000000000000000000000000000000000000000000000000\n      dup2\n      mstore\n      0x04\n      add\n      tag_154\n      swap1\n      tag_114\n      jump\t// in\n    tag_154:\n      mload(0x40)\n      dup1\n      swap2\n      sub\n      swap1\n      revert\n    tag_153:\n        /* \"contracts/MyToken.sol\":2178:2188  staffCount */\n      0x02\n      0x00\n        /* \"contracts/MyToken.sol\":2178:2190  staffCount++ */\n      dup2\n      sload\n      dup1\n      swap3\n      swap2\n      swap1\n      tag_156\n      swap1\n      tag_144\n      jump\t// in\n    tag_156:\n      swap2\n      swap1\n      pop\n      sstore\n      pop\n        /* \"contracts/MyToken.sol\":2222:2417  Staff({... */\n      mload(0x40)\n      dup1\n      0xc0\n      add\n      0x40\n      mstore\n      dup1\n        /* \"contracts/MyToken.sol\":2246:2256  staffCount */\n      sload(0x02)\n        /* \"contracts/MyToken.sol\":2222:2417  Staff({... */\n      dup2\n      mstore\n      0x20\n      add\n        /* \"contracts/MyToken.sol\":2276:2281  _name */\n      dup3\n        /* \"contracts/MyToken.sol\":2222:2417  Staff({... */\n      dup2\n      mstore\n      0x20\n      add\n        /* \"contracts/MyToken.sol\":2309:2313  true */\n      0x01\n        /* \"contracts/MyToken.sol\":2222:2417  Staff({... */\n      iszero\n      iszero\n      dup2\n      mstore\n      0x20\n      add\n        /* \"contracts/MyToken.sol\":2339:2344  false */\n      0x00\n        /* \"contracts/MyToken.sol\":2222:2417  Staff({... */\n      iszero\n      iszero\n      dup2\n      mstore\n      0x20\n      add\n        /* \"contracts/MyToken.sol\":2372:2373  0 */\n      0x00\n        /* \"contracts/MyToken.sol\":2222:2417  Staff({... */\n      dup2\n      mstore\n      0x20\n      add\n        /* \"contracts/MyToken.sol\":2405:2406  0 */\n      0x00\n        /* \"contracts/MyToken.sol\":2222:2417  Staff({... */\n      dup2\n      mstore\n      pop\n        /* \"contracts/MyToken.sol\":2201:2207  staffs */\n      0x04\n        /* \"contracts/MyToken.sol\":2201:2219  staffs[staffCount] */\n      0x00\n        /* \"contracts/MyToken.sol\":2208:2218  staffCount */\n      sload(0x02)\n        /* \"contracts/MyToken.sol\":2201:2219  staffs[staffCount] */\n      dup2\n      mstore\n      0x20\n      add\n      swap1\n      dup2\n      mstore\n      0x20\n      add\n      0x00\n      keccak256\n        /* \"contracts/MyToken.sol\":2201:2417  staffs[staffCount] = Staff({... */\n      0x00\n      dup3\n      add\n      mload\n      dup2\n      0x00\n      add\n      sstore\n      0x20\n      dup3\n      add\n      mload\n      dup2\n      0x01\n      add\n      swap1\n      dup2\n      tag_157\n      swap2\n      swap1\n      tag_148\n      jump\t// in\n    tag_157:\n      pop\n      0x40\n      dup3\n      add\n      mload\n      dup2\n      0x02\n      add\n      exp(0x0100, 0x00)\n      dup2\n      sload\n      dup2\n      0xff\n      mul\n      not\n      and\n      swap1\n      dup4\n      iszero\n      iszero\n      mul\n      or\n      swap1\n      sstore\n      pop\n      0x60\n      dup3\n      add\n      mload\n      dup2\n      0x02\n      add\n      exp(0x0100, 0x01)\n      dup2\n      sload\n      dup2\n      0xff\n      mul\n      not\n      and\n      swap1\n      dup4\n      iszero\n      iszero\n      mul\n      or\n      swap1\n      sstore\n      pop\n      0x80\n      dup3\n      add\n      mload\n      dup2\n      0x03\n      add\n      sstore\n      0xa0\n      dup3\n      add\n      mload\n      dup2\n      0x04\n      add\n      sstore\n      swap1\n      pop\n      pop\n        /* \"contracts/MyToken.sol\":2107:2424  function registerStaff(string memory _name) public onlyOwner {... */\n      pop\n      jump\t// out\n        /* \"contracts/MyToken.sol\":2454:2783  function payStaff(uint _id) public payable onlyOwner {... */\n    tag_70:\n        /* \"contracts/MyToken.sol\":226:231  owner */\n      0x00\n      0x00\n      swap1\n      sload\n      swap1\n      0x0100\n      exp\n      swap1\n      div\n      0xffffffffffffffffffffffffffffffffffffffff\n      and\n        /* \"contracts/MyToken.sol\":212:231  msg.sender == owner */\n      0xffffffffffffffffffffffffffffffffffffffff\n      and\n        /* \"contracts/MyToken.sol\":212:222  msg.sender */\n      caller\n        /* \"contracts/MyToken.sol\":212:231  msg.sender == owner */\n      0xffffffffffffffffffffffffffffffffffffffff\n      and\n      eq\n        /* \"contracts/MyToken.sol\":204:250  require(msg.sender == owner, \"Not authorized\") */\n      tag_159\n      jumpi\n      mload(0x40)\n      0x08c379a000000000000000000000000000000000000000000000000000000000\n      dup2\n      mstore\n      0x04\n      add\n      tag_160\n      swap1\n      tag_114\n      jump\t// in\n    tag_160:\n      mload(0x40)\n      dup1\n      swap2\n      sub\n      swap1\n      revert\n    tag_159:\n        /* \"contracts/MyToken.sol\":2525:2531  staffs */\n      0x04\n        /* \"contracts/MyToken.sol\":2525:2536  staffs[_id] */\n      0x00\n        /* \"contracts/MyToken.sol\":2532:2535  _id */\n      dup3\n        /* \"contracts/MyToken.sol\":2525:2536  staffs[_id] */\n      dup2\n      mstore\n      0x20\n      add\n      swap1\n      dup2\n      mstore\n      0x20\n      add\n      0x00\n      keccak256\n        /* \"contracts/MyToken.sol\":2525:2549  staffs[_id].isRegistered */\n      0x02\n      add\n      0x00\n      swap1\n      sload\n      swap1\n      0x0100\n      exp\n      swap1\n      div\n      0xff\n      and\n        /* \"contracts/MyToken.sol\":2517:2569  require(staffs[_id].isRegistered, \"Staff not found\") */\n      tag_162\n      jumpi\n      mload(0x40)\n      0x08c379a000000000000000000000000000000000000000000000000000000000\n      dup2\n      mstore\n      0x04\n      add\n      tag_163\n      swap1\n      tag_164\n      jump\t// in\n    tag_163:\n      mload(0x40)\n      dup1\n      swap2\n      sub\n      swap1\n      revert\n    tag_162:\n        /* \"contracts/MyToken.sol\":2599:2600  0 */\n      0x00\n        /* \"contracts/MyToken.sol\":2587:2596  msg.value */\n      callvalue\n        /* \"contracts/MyToken.sol\":2587:2600  msg.value > 0 */\n      gt\n        /* \"contracts/MyToken.sol\":2579:2634  require(msg.value > 0, \"Salary must be greater than 0\") */\n      tag_165\n      jumpi\n      mload(0x40)\n      0x08c379a000000000000000000000000000000000000000000000000000000000\n      dup2\n      mstore\n      0x04\n      add\n      tag_166\n      swap1\n      tag_167\n      jump\t// in\n    tag_166:\n      mload(0x40)\n      dup1\n      swap2\n      sub\n      swap1\n      revert\n    tag_165:\n        /* \"contracts/MyToken.sol\":2670:2674  true */\n      0x01\n        /* \"contracts/MyToken.sol\":2645:2651  staffs */\n      0x04\n        /* \"contracts/MyToken.sol\":2645:2656  staffs[_id] */\n      0x00\n        /* \"contracts/MyToken.sol\":2652:2655  _id */\n      dup4\n        /* \"contracts/MyToken.sol\":2645:2656  staffs[_id] */\n      dup2\n      mstore\n      0x20\n      add\n      swap1\n      dup2\n      mstore\n      0x20\n      add\n      0x00\n      keccak256\n        /* \"contracts/MyToken.sol\":2645:2667  staffs[_id].salaryPaid */\n      0x02\n      add\n      0x01\n        /* \"contracts/MyToken.sol\":2645:2674  staffs[_id].salaryPaid = true */\n      0x0100\n      exp\n      dup2\n      sload\n      dup2\n      0xff\n      mul\n      not\n      and\n      swap1\n      dup4\n      iszero\n      iszero\n      mul\n      or\n      swap1\n      sstore\n      pop\n        /* \"contracts/MyToken.sol\":2711:2720  msg.value */\n      callvalue\n        /* \"contracts/MyToken.sol\":2684:2690  staffs */\n      0x04\n        /* \"contracts/MyToken.sol\":2684:2695  staffs[_id] */\n      0x00\n        /* \"contracts/MyToken.sol\":2691:2694  _id */\n      dup4\n        /* \"contracts/MyToken.sol\":2684:2695  staffs[_id] */\n      dup2\n      mstore\n      0x20\n      add\n      swap1\n      dup2\n      mstore\n      0x20\n      add\n      0x00\n      keccak256\n        /* \"contracts/MyToken.sol\":2684:2708  staffs[_id].salaryAmount */\n      0x03\n      add\n        /* \"contracts/MyToken.sol\":2684:2720  staffs[_id].salaryAmount = msg.value */\n      dup2\n      swap1\n      sstore\n      pop\n        /* \"contracts/MyToken.sol\":2761:2776  block.timestamp */\n      timestamp\n        /* \"contracts/MyToken.sol\":2730:2736  staffs */\n      0x04\n        /* \"contracts/MyToken.sol\":2730:2741  staffs[_id] */\n      0x00\n        /* \"contracts/MyToken.sol\":2737:2740  _id */\n      dup4\n        /* \"contracts/MyToken.sol\":2730:2741  staffs[_id] */\n      dup2\n      mstore\n      0x20\n      add\n      swap1\n      dup2\n      mstore\n      0x20\n      add\n      0x00\n      keccak256\n        /* \"contracts/MyToken.sol\":2730:2758  staffs[_id].paymentTimestamp */\n      0x04\n      add\n        /* \"contracts/MyToken.sol\":2730:2776  staffs[_id].paymentTimestamp = block.timestamp */\n      dup2\n      swap1\n      sstore\n      pop\n        /* \"contracts/MyToken.sol\":2454:2783  function payStaff(uint _id) public payable onlyOwner {... */\n      pop\n      jump\t// out\n        /* \"contracts/MyToken.sol\":683:707  uint public studentCount */\n    tag_73:\n      sload(0x01)\n      dup2\n      jump\t// out\n        /* \"contracts/MyToken.sol\":2814:2974  function getStaff(uint _id) public view returns (Staff memory) {... */\n    tag_78:\n        /* \"contracts/MyToken.sol\":2863:2875  Staff memory */\n      tag_168\n      tag_169\n      jump\t// in\n    tag_168:\n        /* \"contracts/MyToken.sol\":2895:2901  staffs */\n      0x04\n        /* \"contracts/MyToken.sol\":2895:2906  staffs[_id] */\n      0x00\n        /* \"contracts/MyToken.sol\":2902:2905  _id */\n      dup4\n        /* \"contracts/MyToken.sol\":2895:2906  staffs[_id] */\n      dup2\n      mstore\n      0x20\n      add\n      swap1\n      dup2\n      mstore\n      0x20\n      add\n      0x00\n      keccak256\n        /* \"contracts/MyToken.sol\":2895:2919  staffs[_id].isRegistered */\n      0x02\n      add\n      0x00\n      swap1\n      sload\n      swap1\n      0x0100\n      exp\n      swap1\n      div\n      0xff\n      and\n        /* \"contracts/MyToken.sol\":2887:2939  require(staffs[_id].isRegistered, \"Staff not found\") */\n      tag_171\n      jumpi\n      mload(0x40)\n      0x08c379a000000000000000000000000000000000000000000000000000000000\n      dup2\n      mstore\n      0x04\n      add\n      tag_172\n      swap1\n      tag_164\n      jump\t// in\n    tag_172:\n      mload(0x40)\n      dup1\n      swap2\n      sub\n      swap1\n      revert\n    tag_171:\n        /* \"contracts/MyToken.sol\":2956:2962  staffs */\n      0x04\n        /* \"contracts/MyToken.sol\":2956:2967  staffs[_id] */\n      0x00\n        /* \"contracts/MyToken.sol\":2963:2966  _id */\n      dup4\n        /* \"contracts/MyToken.sol\":2956:2967  staffs[_id] */\n      dup2\n      mstore\n      0x20\n      add\n      swap1\n      dup2\n      mstore\n      0x20\n      add\n      0x00\n      keccak256\n        /* \"contracts/MyToken.sol\":2949:2967  return staffs[_id] */\n      mload(0x40)\n      dup1\n      0xc0\n      add\n      0x40\n      mstore\n      swap1\n      dup2\n      0x00\n      dup3\n      add\n      sload\n      dup2\n      mstore\n      0x20\n      add\n      0x01\n      dup3\n      add\n      dup1\n      sload\n      tag_173\n      swap1\n      tag_82\n      jump\t// in\n    tag_173:\n      dup1\n      0x1f\n      add\n      0x20\n      dup1\n      swap2\n      div\n      mul\n      0x20\n      add\n      mload(0x40)\n      swap1\n      dup2\n      add\n      0x40\n      mstore\n      dup1\n      swap3\n      swap2\n      swap1\n      dup2\n      dup2\n      mstore\n      0x20\n      add\n      dup3\n      dup1\n      sload\n      tag_174\n      swap1\n      tag_82\n      jump\t// in\n    tag_174:\n      dup1\n      iszero\n      tag_175\n      jumpi\n      dup1\n      0x1f\n      lt\n      tag_176\n      jumpi\n      0x0100\n      dup1\n      dup4\n      sload\n      div\n      mul\n      dup4\n      mstore\n      swap2\n      0x20\n      add\n      swap2\n      jump(tag_175)\n    tag_176:\n      dup3\n      add\n      swap2\n      swap1\n      0x00\n      mstore\n      keccak256(0x00, 0x20)\n      swap1\n    tag_177:\n      dup2\n      sload\n      dup2\n      mstore\n      swap1\n      0x01\n      add\n      swap1\n      0x20\n      add\n      dup1\n      dup4\n      gt\n      tag_177\n      jumpi\n      dup3\n      swap1\n      sub\n      0x1f\n      and\n      dup3\n      add\n      swap2\n    tag_175:\n      pop\n      pop\n      pop\n      pop\n      pop\n      dup2\n      mstore\n      0x20\n      add\n      0x02\n      dup3\n      add\n      0x00\n      swap1\n      sload\n      swap1\n      0x0100\n      exp\n      swap1\n      div\n      0xff\n      and\n      iszero\n      iszero\n      iszero\n      iszero\n      dup2\n      mstore\n      0x20\n      add\n      0x02\n      dup3\n      add\n      0x01\n      swap1\n      sload\n      swap1\n      0x0100\n      exp\n      swap1\n      div\n      0xff\n      and\n      iszero\n      iszero\n      iszero\n      iszero\n      dup2\n      mstore\n      0x20\n      add\n      0x03\n      dup3\n      add\n      sload\n      dup2\n      mstore\n      0x20\n      add\n      0x04\n      dup3\n      add\n      sload\n      dup2\n      mstore\n      pop\n      pop\n      swap1\n      pop\n        /* \"contracts/MyToken.sol\":2814:2974  function getStaff(uint _id) public view returns (Staff memory) {... */\n      swap2\n      swap1\n      pop\n      jump\t// out\n    tag_124:\n      mload(0x40)\n      dup1\n      0xe0\n      add\n      0x40\n      mstore\n      dup1\n      0x00\n      dup2\n      mstore\n      0x20\n      add\n      0x60\n      dup2\n      mstore\n      0x20\n      add\n      0x00\n      0x03\n      dup2\n      gt\n      iszero\n      tag_178\n      jumpi\n      tag_179\n      tag_90\n      jump\t// in\n    tag_179:\n    tag_178:\n      dup2\n      mstore\n      0x20\n      add\n      iszero(iszero(0x00))\n      dup2\n      mstore\n      0x20\n      add\n      iszero(iszero(0x00))\n      dup2\n      mstore\n      0x20\n      add\n      0x00\n      dup2\n      mstore\n      0x20\n      add\n      0x00\n      dup2\n      mstore\n      pop\n      swap1\n      jump\t// out\n    tag_169:\n      mload(0x40)\n      dup1\n      0xc0\n      add\n      0x40\n      mstore\n      dup1\n      0x00\n      dup2\n      mstore\n      0x20\n      add\n      0x60\n      dup2\n      mstore\n      0x20\n      add\n      iszero(iszero(0x00))\n      dup2\n      mstore\n      0x20\n      add\n      iszero(iszero(0x00))\n      dup2\n      mstore\n      0x20\n      add\n      0x00\n      dup2\n      mstore\n      0x20\n      add\n      0x00\n      dup2\n      mstore\n      pop\n      swap1\n      jump\t// out\n        /* \"#utility.yul\":7:82   */\n    tag_180:\n        /* \"#utility.yul\":40:46   */\n      0x00\n        /* \"#utility.yul\":73:75   */\n      0x40\n        /* \"#utility.yul\":67:76   */\n      mload\n        /* \"#utility.yul\":57:76   */\n      swap1\n      pop\n        /* \"#utility.yul\":7:82   */\n      swap1\n      jump\t// out\n        /* \"#utility.yul\":88:205   */\n    tag_181:\n        /* \"#utility.yul\":197:198   */\n      0x00\n        /* \"#utility.yul\":194:195   */\n      0x00\n        /* \"#utility.yul\":187:199   */\n      revert\n        /* \"#utility.yul\":211:328   */\n    tag_182:\n        /* \"#utility.yul\":320:321   */\n      0x00\n        /* \"#utility.yul\":317:318   */\n      0x00\n        /* \"#utility.yul\":310:322   */\n      revert\n        /* \"#utility.yul\":334:411   */\n    tag_183:\n        /* \"#utility.yul\":371:378   */\n      0x00\n        /* \"#utility.yul\":400:405   */\n      dup2\n        /* \"#utility.yul\":389:405   */\n      swap1\n      pop\n        /* \"#utility.yul\":334:411   */\n      swap2\n      swap1\n      pop\n      jump\t// out\n        /* \"#utility.yul\":417:539   */\n    tag_184:\n        /* \"#utility.yul\":490:514   */\n      tag_254\n        /* \"#utility.yul\":508:513   */\n      dup2\n        /* \"#utility.yul\":490:514   */\n      tag_183\n      jump\t// in\n    tag_254:\n        /* \"#utility.yul\":483:488   */\n      dup2\n        /* \"#utility.yul\":480:515   */\n      eq\n        /* \"#utility.yul\":470:533   */\n      tag_255\n      jumpi\n        /* \"#utility.yul\":529:530   */\n      0x00\n        /* \"#utility.yul\":526:527   */\n      0x00\n        /* \"#utility.yul\":519:531   */\n      revert\n        /* \"#utility.yul\":470:533   */\n    tag_255:\n        /* \"#utility.yul\":417:539   */\n      pop\n      jump\t// out\n        /* \"#utility.yul\":545:684   */\n    tag_185:\n        /* \"#utility.yul\":591:596   */\n      0x00\n        /* \"#utility.yul\":629:635   */\n      dup2\n        /* \"#utility.yul\":616:636   */\n      calldataload\n        /* \"#utility.yul\":607:636   */\n      swap1\n      pop\n        /* \"#utility.yul\":645:678   */\n      tag_257\n        /* \"#utility.yul\":672:677   */\n      dup2\n        /* \"#utility.yul\":645:678   */\n      tag_184\n      jump\t// in\n    tag_257:\n        /* \"#utility.yul\":545:684   */\n      swap3\n      swap2\n      pop\n      pop\n      jump\t// out\n        /* \"#utility.yul\":690:1019   */\n    tag_20:\n        /* \"#utility.yul\":749:755   */\n      0x00\n        /* \"#utility.yul\":798:800   */\n      0x20\n        /* \"#utility.yul\":786:795   */\n      dup3\n        /* \"#utility.yul\":777:784   */\n      dup5\n        /* \"#utility.yul\":773:796   */\n      sub\n        /* \"#utility.yul\":769:801   */\n      slt\n        /* \"#utility.yul\":766:885   */\n      iszero\n      tag_259\n      jumpi\n        /* \"#utility.yul\":804:883   */\n      tag_260\n      tag_181\n      jump\t// in\n    tag_260:\n        /* \"#utility.yul\":766:885   */\n    tag_259:\n        /* \"#utility.yul\":924:925   */\n      0x00\n        /* \"#utility.yul\":949:1002   */\n      tag_261\n        /* \"#utility.yul\":994:1001   */\n      dup5\n        /* \"#utility.yul\":985:991   */\n      dup3\n        /* \"#utility.yul\":974:983   */\n      dup6\n        /* \"#utility.yul\":970:992   */\n      add\n        /* \"#utility.yul\":949:1002   */\n      tag_185\n      jump\t// in\n    tag_261:\n        /* \"#utility.yul\":939:1002   */\n      swap2\n      pop\n        /* \"#utility.yul\":895:1012   */\n      pop\n        /* \"#utility.yul\":690:1019   */\n      swap3\n      swap2\n      pop\n      pop\n      jump\t// out\n        /* \"#utility.yul\":1025:1143   */\n    tag_186:\n        /* \"#utility.yul\":1112:1136   */\n      tag_263\n        /* \"#utility.yul\":1130:1135   */\n      dup2\n        /* \"#utility.yul\":1112:1136   */\n      tag_183\n      jump\t// in\n    tag_263:\n        /* \"#utility.yul\":1107:1110   */\n      dup3\n        /* \"#utility.yul\":1100:1137   */\n      mstore\n        /* \"#utility.yul\":1025:1143   */\n      pop\n      pop\n      jump\t// out\n        /* \"#utility.yul\":1149:1248   */\n    tag_187:\n        /* \"#utility.yul\":1201:1207   */\n      0x00\n        /* \"#utility.yul\":1235:1240   */\n      dup2\n        /* \"#utility.yul\":1229:1241   */\n      mload\n        /* \"#utility.yul\":1219:1241   */\n      swap1\n      pop\n        /* \"#utility.yul\":1149:1248   */\n      swap2\n      swap1\n      pop\n      jump\t// out\n        /* \"#utility.yul\":1254:1423   */\n    tag_188:\n        /* \"#utility.yul\":1338:1349   */\n      0x00\n        /* \"#utility.yul\":1372:1378   */\n      dup3\n        /* \"#utility.yul\":1367:1370   */\n      dup3\n        /* \"#utility.yul\":1360:1379   */\n      mstore\n        /* \"#utility.yul\":1412:1416   */\n      0x20\n        /* \"#utility.yul\":1407:1410   */\n      dup3\n        /* \"#utility.yul\":1403:1417   */\n      add\n        /* \"#utility.yul\":1388:1417   */\n      swap1\n      pop\n        /* \"#utility.yul\":1254:1423   */\n      swap3\n      swap2\n      pop\n      pop\n      jump\t// out\n        /* \"#utility.yul\":1429:1568   */\n    tag_189:\n        /* \"#utility.yul\":1518:1524   */\n      dup3\n        /* \"#utility.yul\":1513:1516   */\n      dup2\n        /* \"#utility.yul\":1508:1511   */\n      dup4\n        /* \"#utility.yul\":1502:1525   */\n      mcopy\n        /* \"#utility.yul\":1559:1560   */\n      0x00\n        /* \"#utility.yul\":1550:1556   */\n      dup4\n        /* \"#utility.yul\":1545:1548   */\n      dup4\n        /* \"#utility.yul\":1541:1557   */\n      add\n        /* \"#utility.yul\":1534:1561   */\n      mstore\n        /* \"#utility.yul\":1429:1568   */\n      pop\n      pop\n      pop\n      jump\t// out\n        /* \"#utility.yul\":1574:1676   */\n    tag_190:\n        /* \"#utility.yul\":1615:1621   */\n      0x00\n        /* \"#utility.yul\":1666:1668   */\n      0x1f\n        /* \"#utility.yul\":1662:1669   */\n      not\n        /* \"#utility.yul\":1657:1659   */\n      0x1f\n        /* \"#utility.yul\":1650:1655   */\n      dup4\n        /* \"#utility.yul\":1646:1660   */\n      add\n        /* \"#utility.yul\":1642:1670   */\n      and\n        /* \"#utility.yul\":1632:1670   */\n      swap1\n      pop\n        /* \"#utility.yul\":1574:1676   */\n      swap2\n      swap1\n      pop\n      jump\t// out\n        /* \"#utility.yul\":1682:2059   */\n    tag_191:\n        /* \"#utility.yul\":1770:1773   */\n      0x00\n        /* \"#utility.yul\":1798:1837   */\n      tag_269\n        /* \"#utility.yul\":1831:1836   */\n      dup3\n        /* \"#utility.yul\":1798:1837   */\n      tag_187\n      jump\t// in\n    tag_269:\n        /* \"#utility.yul\":1853:1924   */\n      tag_270\n        /* \"#utility.yul\":1917:1923   */\n      dup2\n        /* \"#utility.yul\":1912:1915   */\n      dup6\n        /* \"#utility.yul\":1853:1924   */\n      tag_188\n      jump\t// in\n    tag_270:\n        /* \"#utility.yul\":1846:1924   */\n      swap4\n      pop\n        /* \"#utility.yul\":1933:1998   */\n      tag_271\n        /* \"#utility.yul\":1991:1997   */\n      dup2\n        /* \"#utility.yul\":1986:1989   */\n      dup6\n        /* \"#utility.yul\":1979:1983   */\n      0x20\n        /* \"#utility.yul\":1972:1977   */\n      dup7\n        /* \"#utility.yul\":1968:1984   */\n      add\n        /* \"#utility.yul\":1933:1998   */\n      tag_189\n      jump\t// in\n    tag_271:\n        /* \"#utility.yul\":2023:2052   */\n      tag_272\n        /* \"#utility.yul\":2045:2051   */\n      dup2\n        /* \"#utility.yul\":2023:2052   */\n      tag_190\n      jump\t// in\n    tag_272:\n        /* \"#utility.yul\":2018:2021   */\n      dup5\n        /* \"#utility.yul\":2014:2053   */\n      add\n        /* \"#utility.yul\":2007:2053   */\n      swap2\n      pop\n        /* \"#utility.yul\":1774:2059   */\n      pop\n        /* \"#utility.yul\":1682:2059   */\n      swap3\n      swap2\n      pop\n      pop\n      jump\t// out\n        /* \"#utility.yul\":2065:2245   */\n    tag_90:\n        /* \"#utility.yul\":2113:2190   */\n      0x4e487b7100000000000000000000000000000000000000000000000000000000\n        /* \"#utility.yul\":2110:2111   */\n      0x00\n        /* \"#utility.yul\":2103:2191   */\n      mstore\n        /* \"#utility.yul\":2210:2214   */\n      0x21\n        /* \"#utility.yul\":2207:2208   */\n      0x04\n        /* \"#utility.yul\":2200:2215   */\n      mstore\n        /* \"#utility.yul\":2234:2238   */\n      0x24\n        /* \"#utility.yul\":2231:2232   */\n      0x00\n        /* \"#utility.yul\":2224:2239   */\n      revert\n        /* \"#utility.yul\":2251:2364   */\n    tag_192:\n        /* \"#utility.yul\":2332:2333   */\n      0x04\n        /* \"#utility.yul\":2325:2330   */\n      dup2\n        /* \"#utility.yul\":2322:2334   */\n      lt\n        /* \"#utility.yul\":2312:2358   */\n      tag_275\n      jumpi\n        /* \"#utility.yul\":2338:2356   */\n      tag_276\n      tag_90\n      jump\t// in\n    tag_276:\n        /* \"#utility.yul\":2312:2358   */\n    tag_275:\n        /* \"#utility.yul\":2251:2364   */\n      pop\n      jump\t// out\n        /* \"#utility.yul\":2370:2497   */\n    tag_193:\n        /* \"#utility.yul\":2415:2422   */\n      0x00\n        /* \"#utility.yul\":2444:2449   */\n      dup2\n        /* \"#utility.yul\":2433:2449   */\n      swap1\n      pop\n        /* \"#utility.yul\":2450:2491   */\n      tag_278\n        /* \"#utility.yul\":2485:2490   */\n      dup3\n        /* \"#utility.yul\":2450:2491   */\n      tag_192\n      jump\t// in\n    tag_278:\n        /* \"#utility.yul\":2370:2497   */\n      swap2\n      swap1\n      pop\n      jump\t// out\n        /* \"#utility.yul\":2503:2630   */\n    tag_194:\n        /* \"#utility.yul\":2559:2568   */\n      0x00\n        /* \"#utility.yul\":2592:2624   */\n      tag_280\n        /* \"#utility.yul\":2618:2623   */\n      dup3\n        /* \"#utility.yul\":2592:2624   */\n      tag_193\n      jump\t// in\n    tag_280:\n        /* \"#utility.yul\":2579:2624   */\n      swap1\n      pop\n        /* \"#utility.yul\":2503:2630   */\n      swap2\n      swap1\n      pop\n      jump\t// out\n        /* \"#utility.yul\":2636:2779   */\n    tag_195:\n        /* \"#utility.yul\":2729:2772   */\n      tag_282\n        /* \"#utility.yul\":2766:2771   */\n      dup2\n        /* \"#utility.yul\":2729:2772   */\n      tag_194\n      jump\t// in\n    tag_282:\n        /* \"#utility.yul\":2724:2727   */\n      dup3\n        /* \"#utility.yul\":2717:2773   */\n      mstore\n        /* \"#utility.yul\":2636:2779   */\n      pop\n      pop\n      jump\t// out\n        /* \"#utility.yul\":2785:2875   */\n    tag_196:\n        /* \"#utility.yul\":2819:2826   */\n      0x00\n        /* \"#utility.yul\":2862:2867   */\n      dup2\n        /* \"#utility.yul\":2855:2868   */\n      iszero\n        /* \"#utility.yul\":2848:2869   */\n      iszero\n        /* \"#utility.yul\":2837:2869   */\n      swap1\n      pop\n        /* \"#utility.yul\":2785:2875   */\n      swap2\n      swap1\n      pop\n      jump\t// out\n        /* \"#utility.yul\":2881:2990   */\n    tag_197:\n        /* \"#utility.yul\":2962:2983   */\n      tag_285\n        /* \"#utility.yul\":2977:2982   */\n      dup2\n        /* \"#utility.yul\":2962:2983   */\n      tag_196\n      jump\t// in\n    tag_285:\n        /* \"#utility.yul\":2957:2960   */\n      dup3\n        /* \"#utility.yul\":2950:2984   */\n      mstore\n        /* \"#utility.yul\":2881:2990   */\n      pop\n      pop\n      jump\t// out\n        /* \"#utility.yul\":2996:3961   */\n    tag_23:\n        /* \"#utility.yul\":3271:3275   */\n      0x00\n        /* \"#utility.yul\":3309:3312   */\n      0xe0\n        /* \"#utility.yul\":3298:3307   */\n      dup3\n        /* \"#utility.yul\":3294:3313   */\n      add\n        /* \"#utility.yul\":3286:3313   */\n      swap1\n      pop\n        /* \"#utility.yul\":3323:3394   */\n      tag_287\n        /* \"#utility.yul\":3391:3392   */\n      0x00\n        /* \"#utility.yul\":3380:3389   */\n      dup4\n        /* \"#utility.yul\":3376:3393   */\n      add\n        /* \"#utility.yul\":3367:3373   */\n      dup11\n        /* \"#utility.yul\":3323:3394   */\n      tag_186\n      jump\t// in\n    tag_287:\n        /* \"#utility.yul\":3441:3450   */\n      dup2\n        /* \"#utility.yul\":3435:3439   */\n      dup2\n        /* \"#utility.yul\":3431:3451   */\n      sub\n        /* \"#utility.yul\":3426:3428   */\n      0x20\n        /* \"#utility.yul\":3415:3424   */\n      dup4\n        /* \"#utility.yul\":3411:3429   */\n      add\n        /* \"#utility.yul\":3404:3452   */\n      mstore\n        /* \"#utility.yul\":3469:3547   */\n      tag_288\n        /* \"#utility.yul\":3542:3546   */\n      dup2\n        /* \"#utility.yul\":3533:3539   */\n      dup10\n        /* \"#utility.yul\":3469:3547   */\n      tag_191\n      jump\t// in\n    tag_288:\n        /* \"#utility.yul\":3461:3547   */\n      swap1\n      pop\n        /* \"#utility.yul\":3557:3635   */\n      tag_289\n        /* \"#utility.yul\":3631:3633   */\n      0x40\n        /* \"#utility.yul\":3620:3629   */\n      dup4\n        /* \"#utility.yul\":3616:3634   */\n      add\n        /* \"#utility.yul\":3607:3613   */\n      dup9\n        /* \"#utility.yul\":3557:3635   */\n      tag_195\n      jump\t// in\n    tag_289:\n        /* \"#utility.yul\":3645:3711   */\n      tag_290\n        /* \"#utility.yul\":3707:3709   */\n      0x60\n        /* \"#utility.yul\":3696:3705   */\n      dup4\n        /* \"#utility.yul\":3692:3710   */\n      add\n        /* \"#utility.yul\":3683:3689   */\n      dup8\n        /* \"#utility.yul\":3645:3711   */\n      tag_197\n      jump\t// in\n    tag_290:\n        /* \"#utility.yul\":3721:3788   */\n      tag_291\n        /* \"#utility.yul\":3783:3786   */\n      0x80\n        /* \"#utility.yul\":3772:3781   */\n      dup4\n        /* \"#utility.yul\":3768:3787   */\n      add\n        /* \"#utility.yul\":3759:3765   */\n      dup7\n        /* \"#utility.yul\":3721:3788   */\n      tag_197\n      jump\t// in\n    tag_291:\n        /* \"#utility.yul\":3798:3871   */\n      tag_292\n        /* \"#utility.yul\":3866:3869   */\n      0xa0\n        /* \"#utility.yul\":3855:3864   */\n      dup4\n        /* \"#utility.yul\":3851:3870   */\n      add\n        /* \"#utility.yul\":3842:3848   */\n      dup6\n        /* \"#utility.yul\":3798:3871   */\n      tag_186\n      jump\t// in\n    tag_292:\n        /* \"#utility.yul\":3881:3954   */\n      tag_293\n        /* \"#utility.yul\":3949:3952   */\n      0xc0\n        /* \"#utility.yul\":3938:3947   */\n      dup4\n        /* \"#utility.yul\":3934:3953   */\n      add\n        /* \"#utility.yul\":3925:3931   */\n      dup5\n        /* \"#utility.yul\":3881:3954   */\n      tag_186\n      jump\t// in\n    tag_293:\n        /* \"#utility.yul\":2996:3961   */\n      swap9\n      swap8\n      pop\n      pop\n      pop\n      pop\n      pop\n      pop\n      pop\n      pop\n      jump\t// out\n        /* \"#utility.yul\":3967:4074   */\n    tag_198:\n        /* \"#utility.yul\":4048:4049   */\n      0x04\n        /* \"#utility.yul\":4041:4046   */\n      dup2\n        /* \"#utility.yul\":4038:4050   */\n      lt\n        /* \"#utility.yul\":4028:4068   */\n      tag_295\n      jumpi\n        /* \"#utility.yul\":4064:4065   */\n      0x00\n        /* \"#utility.yul\":4061:4062   */\n      0x00\n        /* \"#utility.yul\":4054:4066   */\n      revert\n        /* \"#utility.yul\":4028:4068   */\n    tag_295:\n        /* \"#utility.yul\":3967:4074   */\n      pop\n      jump\t// out\n        /* \"#utility.yul\":4080:4235   */\n    tag_199:\n        /* \"#utility.yul\":4134:4139   */\n      0x00\n        /* \"#utility.yul\":4172:4178   */\n      dup2\n        /* \"#utility.yul\":4159:4179   */\n      calldataload\n        /* \"#utility.yul\":4150:4179   */\n      swap1\n      pop\n        /* \"#utility.yul\":4188:4229   */\n      tag_297\n        /* \"#utility.yul\":4223:4228   */\n      dup2\n        /* \"#utility.yul\":4188:4229   */\n      tag_198\n      jump\t// in\n    tag_297:\n        /* \"#utility.yul\":4080:4235   */\n      swap3\n      swap2\n      pop\n      pop\n      jump\t// out\n        /* \"#utility.yul\":4241:4586   */\n    tag_27:\n        /* \"#utility.yul\":4308:4314   */\n      0x00\n        /* \"#utility.yul\":4357:4359   */\n      0x20\n        /* \"#utility.yul\":4345:4354   */\n      dup3\n        /* \"#utility.yul\":4336:4343   */\n      dup5\n        /* \"#utility.yul\":4332:4355   */\n      sub\n        /* \"#utility.yul\":4328:4360   */\n      slt\n        /* \"#utility.yul\":4325:4444   */\n      iszero\n      tag_299\n      jumpi\n        /* \"#utility.yul\":4363:4442   */\n      tag_300\n      tag_181\n      jump\t// in\n    tag_300:\n        /* \"#utility.yul\":4325:4444   */\n    tag_299:\n        /* \"#utility.yul\":4483:4484   */\n      0x00\n        /* \"#utility.yul\":4508:4569   */\n      tag_301\n        /* \"#utility.yul\":4561:4568   */\n      dup5\n        /* \"#utility.yul\":4552:4558   */\n      dup3\n        /* \"#utility.yul\":4541:4550   */\n      dup6\n        /* \"#utility.yul\":4537:4559   */\n      add\n        /* \"#utility.yul\":4508:4569   */\n      tag_199\n      jump\t// in\n    tag_301:\n        /* \"#utility.yul\":4498:4569   */\n      swap2\n      pop\n        /* \"#utility.yul\":4454:4579   */\n      pop\n        /* \"#utility.yul\":4241:4586   */\n      swap3\n      swap2\n      pop\n      pop\n      jump\t// out\n        /* \"#utility.yul\":4592:4814   */\n    tag_30:\n        /* \"#utility.yul\":4685:4689   */\n      0x00\n        /* \"#utility.yul\":4723:4725   */\n      0x20\n        /* \"#utility.yul\":4712:4721   */\n      dup3\n        /* \"#utility.yul\":4708:4726   */\n      add\n        /* \"#utility.yul\":4700:4726   */\n      swap1\n      pop\n        /* \"#utility.yul\":4736:4807   */\n      tag_303\n        /* \"#utility.yul\":4804:4805   */\n      0x00\n        /* \"#utility.yul\":4793:4802   */\n      dup4\n        /* \"#utility.yul\":4789:4806   */\n      add\n        /* \"#utility.yul\":4780:4786   */\n      dup5\n        /* \"#utility.yul\":4736:4807   */\n      tag_186\n      jump\t// in\n    tag_303:\n        /* \"#utility.yul\":4592:4814   */\n      swap3\n      swap2\n      pop\n      pop\n      jump\t// out\n        /* \"#utility.yul\":4820:5662   */\n    tag_43:\n        /* \"#utility.yul\":5061:5065   */\n      0x00\n        /* \"#utility.yul\":5099:5102   */\n      0xc0\n        /* \"#utility.yul\":5088:5097   */\n      dup3\n        /* \"#utility.yul\":5084:5103   */\n      add\n        /* \"#utility.yul\":5076:5103   */\n      swap1\n      pop\n        /* \"#utility.yul\":5113:5184   */\n      tag_305\n        /* \"#utility.yul\":5181:5182   */\n      0x00\n        /* \"#utility.yul\":5170:5179   */\n      dup4\n        /* \"#utility.yul\":5166:5183   */\n      add\n        /* \"#utility.yul\":5157:5163   */\n      dup10\n        /* \"#utility.yul\":5113:5184   */\n      tag_186\n      jump\t// in\n    tag_305:\n        /* \"#utility.yul\":5231:5240   */\n      dup2\n        /* \"#utility.yul\":5225:5229   */\n      dup2\n        /* \"#utility.yul\":5221:5241   */\n      sub\n        /* \"#utility.yul\":5216:5218   */\n      0x20\n        /* \"#utility.yul\":5205:5214   */\n      dup4\n        /* \"#utility.yul\":5201:5219   */\n      add\n        /* \"#utility.yul\":5194:5242   */\n      mstore\n        /* \"#utility.yul\":5259:5337   */\n      tag_306\n        /* \"#utility.yul\":5332:5336   */\n      dup2\n        /* \"#utility.yul\":5323:5329   */\n      dup9\n        /* \"#utility.yul\":5259:5337   */\n      tag_191\n      jump\t// in\n    tag_306:\n        /* \"#utility.yul\":5251:5337   */\n      swap1\n      pop\n        /* \"#utility.yul\":5347:5413   */\n      tag_307\n        /* \"#utility.yul\":5409:5411   */\n      0x40\n        /* \"#utility.yul\":5398:5407   */\n      dup4\n        /* \"#utility.yul\":5394:5412   */\n      add\n        /* \"#utility.yul\":5385:5391   */\n      dup8\n        /* \"#utility.yul\":5347:5413   */\n      tag_197\n      jump\t// in\n    tag_307:\n        /* \"#utility.yul\":5423:5489   */\n      tag_308\n        /* \"#utility.yul\":5485:5487   */\n      0x60\n        /* \"#utility.yul\":5474:5483   */\n      dup4\n        /* \"#utility.yul\":5470:5488   */\n      add\n        /* \"#utility.yul\":5461:5467   */\n      dup7\n        /* \"#utility.yul\":5423:5489   */\n      tag_197\n      jump\t// in\n    tag_308:\n        /* \"#utility.yul\":5499:5572   */\n      tag_309\n        /* \"#utility.yul\":5567:5570   */\n      0x80\n        /* \"#utility.yul\":5556:5565   */\n      dup4\n        /* \"#utility.yul\":5552:5571   */\n      add\n        /* \"#utility.yul\":5543:5549   */\n      dup6\n        /* \"#utility.yul\":5499:5572   */\n      tag_186\n      jump\t// in\n    tag_309:\n        /* \"#utility.yul\":5582:5655   */\n      tag_310\n        /* \"#utility.yul\":5650:5653   */\n      0xa0\n        /* \"#utility.yul\":5639:5648   */\n      dup4\n        /* \"#utility.yul\":5635:5654   */\n      add\n        /* \"#utility.yul\":5626:5632   */\n      dup5\n        /* \"#utility.yul\":5582:5655   */\n      tag_186\n      jump\t// in\n    tag_310:\n        /* \"#utility.yul\":4820:5662   */\n      swap8\n      swap7\n      pop\n      pop\n      pop\n      pop\n      pop\n      pop\n      pop\n      jump\t// out\n        /* \"#utility.yul\":5668:5776   */\n    tag_200:\n        /* \"#utility.yul\":5745:5769   */\n      tag_312\n        /* \"#utility.yul\":5763:5768   */\n      dup2\n        /* \"#utility.yul\":5745:5769   */\n      tag_183\n      jump\t// in\n    tag_312:\n        /* \"#utility.yul\":5740:5743   */\n      dup3\n        /* \"#utility.yul\":5733:5770   */\n      mstore\n        /* \"#utility.yul\":5668:5776   */\n      pop\n      pop\n      jump\t// out\n        /* \"#utility.yul\":5782:5941   */\n    tag_201:\n        /* \"#utility.yul\":5856:5867   */\n      0x00\n        /* \"#utility.yul\":5890:5896   */\n      dup3\n        /* \"#utility.yul\":5885:5888   */\n      dup3\n        /* \"#utility.yul\":5878:5897   */\n      mstore\n        /* \"#utility.yul\":5930:5934   */\n      0x20\n        /* \"#utility.yul\":5925:5928   */\n      dup3\n        /* \"#utility.yul\":5921:5935   */\n      add\n        /* \"#utility.yul\":5906:5935   */\n      swap1\n      pop\n        /* \"#utility.yul\":5782:5941   */\n      swap3\n      swap2\n      pop\n      pop\n      jump\t// out\n        /* \"#utility.yul\":5947:6304   */\n    tag_202:\n        /* \"#utility.yul\":6025:6028   */\n      0x00\n        /* \"#utility.yul\":6053:6092   */\n      tag_315\n        /* \"#utility.yul\":6086:6091   */\n      dup3\n        /* \"#utility.yul\":6053:6092   */\n      tag_187\n      jump\t// in\n    tag_315:\n        /* \"#utility.yul\":6108:6169   */\n      tag_316\n        /* \"#utility.yul\":6162:6168   */\n      dup2\n        /* \"#utility.yul\":6157:6160   */\n      dup6\n        /* \"#utility.yul\":6108:6169   */\n      tag_201\n      jump\t// in\n    tag_316:\n        /* \"#utility.yul\":6101:6169   */\n      swap4\n      pop\n        /* \"#utility.yul\":6178:6243   */\n      tag_317\n        /* \"#utility.yul\":6236:6242   */\n      dup2\n        /* \"#utility.yul\":6231:6234   */\n      dup6\n        /* \"#utility.yul\":6224:6228   */\n      0x20\n        /* \"#utility.yul\":6217:6222   */\n      dup7\n        /* \"#utility.yul\":6213:6229   */\n      add\n        /* \"#utility.yul\":6178:6243   */\n      tag_189\n      jump\t// in\n    tag_317:\n        /* \"#utility.yul\":6268:6297   */\n      tag_318\n        /* \"#utility.yul\":6290:6296   */\n      dup2\n        /* \"#utility.yul\":6268:6297   */\n      tag_190\n      jump\t// in\n    tag_318:\n        /* \"#utility.yul\":6263:6266   */\n      dup5\n        /* \"#utility.yul\":6259:6298   */\n      add\n        /* \"#utility.yul\":6252:6298   */\n      swap2\n      pop\n        /* \"#utility.yul\":6029:6304   */\n      pop\n        /* \"#utility.yul\":5947:6304   */\n      swap3\n      swap2\n      pop\n      pop\n      jump\t// out\n        /* \"#utility.yul\":6310:6443   */\n    tag_203:\n        /* \"#utility.yul\":6393:6436   */\n      tag_320\n        /* \"#utility.yul\":6430:6435   */\n      dup2\n        /* \"#utility.yul\":6393:6436   */\n      tag_194\n      jump\t// in\n    tag_320:\n        /* \"#utility.yul\":6388:6391   */\n      dup3\n        /* \"#utility.yul\":6381:6437   */\n      mstore\n        /* \"#utility.yul\":6310:6443   */\n      pop\n      pop\n      jump\t// out\n        /* \"#utility.yul\":6449:6548   */\n    tag_204:\n        /* \"#utility.yul\":6520:6541   */\n      tag_322\n        /* \"#utility.yul\":6535:6540   */\n      dup2\n        /* \"#utility.yul\":6520:6541   */\n      tag_196\n      jump\t// in\n    tag_322:\n        /* \"#utility.yul\":6515:6518   */\n      dup3\n        /* \"#utility.yul\":6508:6542   */\n      mstore\n        /* \"#utility.yul\":6449:6548   */\n      pop\n      pop\n      jump\t// out\n        /* \"#utility.yul\":6628:8122   */\n    tag_205:\n        /* \"#utility.yul\":6743:6746   */\n      0x00\n        /* \"#utility.yul\":6779:6783   */\n      0xe0\n        /* \"#utility.yul\":6774:6777   */\n      dup4\n        /* \"#utility.yul\":6770:6784   */\n      add\n        /* \"#utility.yul\":6864:6868   */\n      0x00\n        /* \"#utility.yul\":6857:6862   */\n      dup4\n        /* \"#utility.yul\":6853:6869   */\n      add\n        /* \"#utility.yul\":6847:6870   */\n      mload\n        /* \"#utility.yul\":6883:6946   */\n      tag_324\n        /* \"#utility.yul\":6940:6944   */\n      0x00\n        /* \"#utility.yul\":6935:6938   */\n      dup7\n        /* \"#utility.yul\":6931:6945   */\n      add\n        /* \"#utility.yul\":6917:6929   */\n      dup3\n        /* \"#utility.yul\":6883:6946   */\n      tag_200\n      jump\t// in\n    tag_324:\n        /* \"#utility.yul\":6794:6956   */\n      pop\n        /* \"#utility.yul\":7038:7042   */\n      0x20\n        /* \"#utility.yul\":7031:7036   */\n      dup4\n        /* \"#utility.yul\":7027:7043   */\n      add\n        /* \"#utility.yul\":7021:7044   */\n      mload\n        /* \"#utility.yul\":7091:7094   */\n      dup5\n        /* \"#utility.yul\":7085:7089   */\n      dup3\n        /* \"#utility.yul\":7081:7095   */\n      sub\n        /* \"#utility.yul\":7074:7078   */\n      0x20\n        /* \"#utility.yul\":7069:7072   */\n      dup7\n        /* \"#utility.yul\":7065:7079   */\n      add\n        /* \"#utility.yul\":7058:7096   */\n      mstore\n        /* \"#utility.yul\":7117:7190   */\n      tag_325\n        /* \"#utility.yul\":7185:7189   */\n      dup3\n        /* \"#utility.yul\":7171:7183   */\n      dup3\n        /* \"#utility.yul\":7117:7190   */\n      tag_202\n      jump\t// in\n    tag_325:\n        /* \"#utility.yul\":7109:7190   */\n      swap2\n      pop\n        /* \"#utility.yul\":6966:7201   */\n      pop\n        /* \"#utility.yul\":7284:7288   */\n      0x40\n        /* \"#utility.yul\":7277:7282   */\n      dup4\n        /* \"#utility.yul\":7273:7289   */\n      add\n        /* \"#utility.yul\":7267:7290   */\n      mload\n        /* \"#utility.yul\":7303:7372   */\n      tag_326\n        /* \"#utility.yul\":7366:7370   */\n      0x40\n        /* \"#utility.yul\":7361:7364   */\n      dup7\n        /* \"#utility.yul\":7357:7371   */\n      add\n        /* \"#utility.yul\":7343:7355   */\n      dup3\n        /* \"#utility.yul\":7303:7372   */\n      tag_203\n      jump\t// in\n    tag_326:\n        /* \"#utility.yul\":7211:7382   */\n      pop\n        /* \"#utility.yul\":7472:7476   */\n      0x60\n        /* \"#utility.yul\":7465:7470   */\n      dup4\n        /* \"#utility.yul\":7461:7477   */\n      add\n        /* \"#utility.yul\":7455:7478   */\n      mload\n        /* \"#utility.yul\":7491:7548   */\n      tag_327\n        /* \"#utility.yul\":7542:7546   */\n      0x60\n        /* \"#utility.yul\":7537:7540   */\n      dup7\n        /* \"#utility.yul\":7533:7547   */\n      add\n        /* \"#utility.yul\":7519:7531   */\n      dup3\n        /* \"#utility.yul\":7491:7548   */\n      tag_204\n      jump\t// in\n    tag_327:\n        /* \"#utility.yul\":7392:7558   */\n      pop\n        /* \"#utility.yul\":7643:7647   */\n      0x80\n        /* \"#utility.yul\":7636:7641   */\n      dup4\n        /* \"#utility.yul\":7632:7648   */\n      add\n        /* \"#utility.yul\":7626:7649   */\n      mload\n        /* \"#utility.yul\":7662:7719   */\n      tag_328\n        /* \"#utility.yul\":7713:7717   */\n      0x80\n        /* \"#utility.yul\":7708:7711   */\n      dup7\n        /* \"#utility.yul\":7704:7718   */\n      add\n        /* \"#utility.yul\":7690:7702   */\n      dup3\n        /* \"#utility.yul\":7662:7719   */\n      tag_204\n      jump\t// in\n    tag_328:\n        /* \"#utility.yul\":7568:7729   */\n      pop\n        /* \"#utility.yul\":7817:7821   */\n      0xa0\n        /* \"#utility.yul\":7810:7815   */\n      dup4\n        /* \"#utility.yul\":7806:7822   */\n      add\n        /* \"#utility.yul\":7800:7823   */\n      mload\n        /* \"#utility.yul\":7836:7899   */\n      tag_329\n        /* \"#utility.yul\":7893:7897   */\n      0xa0\n        /* \"#utility.yul\":7888:7891   */\n      dup7\n        /* \"#utility.yul\":7884:7898   */\n      add\n        /* \"#utility.yul\":7870:7882   */\n      dup3\n        /* \"#utility.yul\":7836:7899   */\n      tag_200\n      jump\t// in\n    tag_329:\n        /* \"#utility.yul\":7739:7909   */\n      pop\n        /* \"#utility.yul\":8003:8007   */\n      0xc0\n        /* \"#utility.yul\":7996:8001   */\n      dup4\n        /* \"#utility.yul\":7992:8008   */\n      add\n        /* \"#utility.yul\":7986:8009   */\n      mload\n        /* \"#utility.yul\":8022:8085   */\n      tag_330\n        /* \"#utility.yul\":8079:8083   */\n      0xc0\n        /* \"#utility.yul\":8074:8077   */\n      dup7\n        /* \"#utility.yul\":8070:8084   */\n      add\n        /* \"#utility.yul\":8056:8068   */\n      dup3\n        /* \"#utility.yul\":8022:8085   */\n      tag_200\n      jump\t// in\n    tag_330:\n        /* \"#utility.yul\":7919:8095   */\n      pop\n        /* \"#utility.yul\":8112:8116   */\n      dup1\n        /* \"#utility.yul\":8105:8116   */\n      swap2\n      pop\n        /* \"#utility.yul\":6748:8122   */\n      pop\n        /* \"#utility.yul\":6628:8122   */\n      swap3\n      swap2\n      pop\n      pop\n      jump\t// out\n        /* \"#utility.yul\":8128:8493   */\n    tag_49:\n        /* \"#utility.yul\":8267:8271   */\n      0x00\n        /* \"#utility.yul\":8305:8307   */\n      0x20\n        /* \"#utility.yul\":8294:8303   */\n      dup3\n        /* \"#utility.yul\":8290:8308   */\n      add\n        /* \"#utility.yul\":8282:8308   */\n      swap1\n      pop\n        /* \"#utility.yul\":8354:8363   */\n      dup2\n        /* \"#utility.yul\":8348:8352   */\n      dup2\n        /* \"#utility.yul\":8344:8364   */\n      sub\n        /* \"#utility.yul\":8340:8341   */\n      0x00\n        /* \"#utility.yul\":8329:8338   */\n      dup4\n        /* \"#utility.yul\":8325:8342   */\n      add\n        /* \"#utility.yul\":8318:8365   */\n      mstore\n        /* \"#utility.yul\":8382:8486   */\n      tag_332\n        /* \"#utility.yul\":8481:8485   */\n      dup2\n        /* \"#utility.yul\":8472:8478   */\n      dup5\n        /* \"#utility.yul\":8382:8486   */\n      tag_205\n      jump\t// in\n    tag_332:\n        /* \"#utility.yul\":8374:8486   */\n      swap1\n      pop\n        /* \"#utility.yul\":8128:8493   */\n      swap3\n      swap2\n      pop\n      pop\n      jump\t// out\n        /* \"#utility.yul\":8499:8616   */\n    tag_206:\n        /* \"#utility.yul\":8608:8609   */\n      0x00\n        /* \"#utility.yul\":8605:8606   */\n      0x00\n        /* \"#utility.yul\":8598:8610   */\n      revert\n        /* \"#utility.yul\":8622:8739   */\n    tag_207:\n        /* \"#utility.yul\":8731:8732   */\n      0x00\n        /* \"#utility.yul\":8728:8729   */\n      0x00\n        /* \"#utility.yul\":8721:8733   */\n      revert\n        /* \"#utility.yul\":8745:8925   */\n    tag_208:\n        /* \"#utility.yul\":8793:8870   */\n      0x4e487b7100000000000000000000000000000000000000000000000000000000\n        /* \"#utility.yul\":8790:8791   */\n      0x00\n        /* \"#utility.yul\":8783:8871   */\n      mstore\n        /* \"#utility.yul\":8890:8894   */\n      0x41\n        /* \"#utility.yul\":8887:8888   */\n      0x04\n        /* \"#utility.yul\":8880:8895   */\n      mstore\n        /* \"#utility.yul\":8914:8918   */\n      0x24\n        /* \"#utility.yul\":8911:8912   */\n      0x00\n        /* \"#utility.yul\":8904:8919   */\n      revert\n        /* \"#utility.yul\":8931:9212   */\n    tag_209:\n        /* \"#utility.yul\":9014:9041   */\n      tag_337\n        /* \"#utility.yul\":9036:9040   */\n      dup3\n        /* \"#utility.yul\":9014:9041   */\n      tag_190\n      jump\t// in\n    tag_337:\n        /* \"#utility.yul\":9006:9012   */\n      dup2\n        /* \"#utility.yul\":9002:9042   */\n      add\n        /* \"#utility.yul\":9144:9150   */\n      dup2\n        /* \"#utility.yul\":9132:9142   */\n      dup2\n        /* \"#utility.yul\":9129:9151   */\n      lt\n        /* \"#utility.yul\":9108:9126   */\n      0xffffffffffffffff\n        /* \"#utility.yul\":9096:9106   */\n      dup3\n        /* \"#utility.yul\":9093:9127   */\n      gt\n        /* \"#utility.yul\":9090:9152   */\n      or\n        /* \"#utility.yul\":9087:9175   */\n      iszero\n      tag_338\n      jumpi\n        /* \"#utility.yul\":9155:9173   */\n      tag_339\n      tag_208\n      jump\t// in\n    tag_339:\n        /* \"#utility.yul\":9087:9175   */\n    tag_338:\n        /* \"#utility.yul\":9195:9205   */\n      dup1\n        /* \"#utility.yul\":9191:9193   */\n      0x40\n        /* \"#utility.yul\":9184:9206   */\n      mstore\n        /* \"#utility.yul\":8974:9212   */\n      pop\n        /* \"#utility.yul\":8931:9212   */\n      pop\n      pop\n      jump\t// out\n        /* \"#utility.yul\":9218:9347   */\n    tag_210:\n        /* \"#utility.yul\":9252:9258   */\n      0x00\n        /* \"#utility.yul\":9279:9299   */\n      tag_341\n      tag_180\n      jump\t// in\n    tag_341:\n        /* \"#utility.yul\":9269:9299   */\n      swap1\n      pop\n        /* \"#utility.yul\":9308:9341   */\n      tag_342\n        /* \"#utility.yul\":9336:9340   */\n      dup3\n        /* \"#utility.yul\":9328:9334   */\n      dup3\n        /* \"#utility.yul\":9308:9341   */\n      tag_209\n      jump\t// in\n    tag_342:\n        /* \"#utility.yul\":9218:9347   */\n      swap2\n      swap1\n      pop\n      jump\t// out\n        /* \"#utility.yul\":9353:9661   */\n    tag_211:\n        /* \"#utility.yul\":9415:9419   */\n      0x00\n        /* \"#utility.yul\":9505:9523   */\n      0xffffffffffffffff\n        /* \"#utility.yul\":9497:9503   */\n      dup3\n        /* \"#utility.yul\":9494:9524   */\n      gt\n        /* \"#utility.yul\":9491:9547   */\n      iszero\n      tag_344\n      jumpi\n        /* \"#utility.yul\":9527:9545   */\n      tag_345\n      tag_208\n      jump\t// in\n    tag_345:\n        /* \"#utility.yul\":9491:9547   */\n    tag_344:\n        /* \"#utility.yul\":9565:9594   */\n      tag_346\n        /* \"#utility.yul\":9587:9593   */\n      dup3\n        /* \"#utility.yul\":9565:9594   */\n      tag_190\n      jump\t// in\n    tag_346:\n        /* \"#utility.yul\":9557:9594   */\n      swap1\n      pop\n        /* \"#utility.yul\":9649:9653   */\n      0x20\n        /* \"#utility.yul\":9643:9647   */\n      dup2\n        /* \"#utility.yul\":9639:9654   */\n      add\n        /* \"#utility.yul\":9631:9654   */\n      swap1\n      pop\n        /* \"#utility.yul\":9353:9661   */\n      swap2\n      swap1\n      pop\n      jump\t// out\n        /* \"#utility.yul\":9667:9815   */\n    tag_212:\n        /* \"#utility.yul\":9765:9771   */\n      dup3\n        /* \"#utility.yul\":9760:9763   */\n      dup2\n        /* \"#utility.yul\":9755:9758   */\n      dup4\n        /* \"#utility.yul\":9742:9772   */\n      calldatacopy\n        /* \"#utility.yul\":9806:9807   */\n      0x00\n        /* \"#utility.yul\":9797:9803   */\n      dup4\n        /* \"#utility.yul\":9792:9795   */\n      dup4\n        /* \"#utility.yul\":9788:9804   */\n      add\n        /* \"#utility.yul\":9781:9808   */\n      mstore\n        /* \"#utility.yul\":9667:9815   */\n      pop\n      pop\n      pop\n      jump\t// out\n        /* \"#utility.yul\":9821:10246   */\n    tag_213:\n        /* \"#utility.yul\":9899:9904   */\n      0x00\n        /* \"#utility.yul\":9924:9990   */\n      tag_349\n        /* \"#utility.yul\":9940:9989   */\n      tag_350\n        /* \"#utility.yul\":9982:9988   */\n      dup5\n        /* \"#utility.yul\":9940:9989   */\n      tag_211\n      jump\t// in\n    tag_350:\n        /* \"#utility.yul\":9924:9990   */\n      tag_210\n      jump\t// in\n    tag_349:\n        /* \"#utility.yul\":9915:9990   */\n      swap1\n      pop\n        /* \"#utility.yul\":10013:10019   */\n      dup3\n        /* \"#utility.yul\":10006:10011   */\n      dup2\n        /* \"#utility.yul\":9999:10020   */\n      mstore\n        /* \"#utility.yul\":10051:10055   */\n      0x20\n        /* \"#utility.yul\":10044:10049   */\n      dup2\n        /* \"#utility.yul\":10040:10056   */\n      add\n        /* \"#utility.yul\":10089:10092   */\n      dup5\n        /* \"#utility.yul\":10080:10086   */\n      dup5\n        /* \"#utility.yul\":10075:10078   */\n      dup5\n        /* \"#utility.yul\":10071:10087   */\n      add\n        /* \"#utility.yul\":10068:10093   */\n      gt\n        /* \"#utility.yul\":10065:10177   */\n      iszero\n      tag_351\n      jumpi\n        /* \"#utility.yul\":10096:10175   */\n      tag_352\n      tag_207\n      jump\t// in\n    tag_352:\n        /* \"#utility.yul\":10065:10177   */\n    tag_351:\n        /* \"#utility.yul\":10186:10240   */\n      tag_353\n        /* \"#utility.yul\":10233:10239   */\n      dup5\n        /* \"#utility.yul\":10228:10231   */\n      dup3\n        /* \"#utility.yul\":10223:10226   */\n      dup6\n        /* \"#utility.yul\":10186:10240   */\n      tag_212\n      jump\t// in\n    tag_353:\n        /* \"#utility.yul\":9905:10246   */\n      pop\n        /* \"#utility.yul\":9821:10246   */\n      swap4\n      swap3\n      pop\n      pop\n      pop\n      jump\t// out\n        /* \"#utility.yul\":10266:10606   */\n    tag_214:\n        /* \"#utility.yul\":10322:10327   */\n      0x00\n        /* \"#utility.yul\":10371:10374   */\n      dup3\n        /* \"#utility.yul\":10364:10368   */\n      0x1f\n        /* \"#utility.yul\":10356:10362   */\n      dup4\n        /* \"#utility.yul\":10352:10369   */\n      add\n        /* \"#utility.yul\":10348:10375   */\n      slt\n        /* \"#utility.yul\":10338:10460   */\n      tag_355\n      jumpi\n        /* \"#utility.yul\":10379:10458   */\n      tag_356\n      tag_206\n      jump\t// in\n    tag_356:\n        /* \"#utility.yul\":10338:10460   */\n    tag_355:\n        /* \"#utility.yul\":10496:10502   */\n      dup2\n        /* \"#utility.yul\":10483:10503   */\n      calldataload\n        /* \"#utility.yul\":10521:10600   */\n      tag_357\n        /* \"#utility.yul\":10596:10599   */\n      dup5\n        /* \"#utility.yul\":10588:10594   */\n      dup3\n        /* \"#utility.yul\":10581:10585   */\n      0x20\n        /* \"#utility.yul\":10573:10579   */\n      dup7\n        /* \"#utility.yul\":10569:10586   */\n      add\n        /* \"#utility.yul\":10521:10600   */\n      tag_213\n      jump\t// in\n    tag_357:\n        /* \"#utility.yul\":10512:10600   */\n      swap2\n      pop\n        /* \"#utility.yul\":10328:10606   */\n      pop\n        /* \"#utility.yul\":10266:10606   */\n      swap3\n      swap2\n      pop\n      pop\n      jump\t// out\n        /* \"#utility.yul\":10612:11282   */\n    tag_52:\n        /* \"#utility.yul\":10698:10704   */\n      0x00\n        /* \"#utility.yul\":10706:10712   */\n      0x00\n        /* \"#utility.yul\":10755:10757   */\n      0x40\n        /* \"#utility.yul\":10743:10752   */\n      dup4\n        /* \"#utility.yul\":10734:10741   */\n      dup6\n        /* \"#utility.yul\":10730:10753   */\n      sub\n        /* \"#utility.yul\":10726:10758   */\n      slt\n        /* \"#utility.yul\":10723:10842   */\n      iszero\n      tag_359\n      jumpi\n        /* \"#utility.yul\":10761:10840   */\n      tag_360\n      tag_181\n      jump\t// in\n    tag_360:\n        /* \"#utility.yul\":10723:10842   */\n    tag_359:\n        /* \"#utility.yul\":10909:10910   */\n      0x00\n        /* \"#utility.yul\":10898:10907   */\n      dup4\n        /* \"#utility.yul\":10894:10911   */\n      add\n        /* \"#utility.yul\":10881:10912   */\n      calldataload\n        /* \"#utility.yul\":10939:10957   */\n      0xffffffffffffffff\n        /* \"#utility.yul\":10931:10937   */\n      dup2\n        /* \"#utility.yul\":10928:10958   */\n      gt\n        /* \"#utility.yul\":10925:11042   */\n      iszero\n      tag_361\n      jumpi\n        /* \"#utility.yul\":10961:11040   */\n      tag_362\n      tag_182\n      jump\t// in\n    tag_362:\n        /* \"#utility.yul\":10925:11042   */\n    tag_361:\n        /* \"#utility.yul\":11066:11129   */\n      tag_363\n        /* \"#utility.yul\":11121:11128   */\n      dup6\n        /* \"#utility.yul\":11112:11118   */\n      dup3\n        /* \"#utility.yul\":11101:11110   */\n      dup7\n        /* \"#utility.yul\":11097:11119   */\n      add\n        /* \"#utility.yul\":11066:11129   */\n      tag_214\n      jump\t// in\n    tag_363:\n        /* \"#utility.yul\":11056:11129   */\n      swap3\n      pop\n        /* \"#utility.yul\":10852:11139   */\n      pop\n        /* \"#utility.yul\":11178:11180   */\n      0x20\n        /* \"#utility.yul\":11204:11265   */\n      tag_364\n        /* \"#utility.yul\":11257:11264   */\n      dup6\n        /* \"#utility.yul\":11248:11254   */\n      dup3\n        /* \"#utility.yul\":11237:11246   */\n      dup7\n        /* \"#utility.yul\":11233:11255   */\n      add\n        /* \"#utility.yul\":11204:11265   */\n      tag_199\n      jump\t// in\n    tag_364:\n        /* \"#utility.yul\":11194:11265   */\n      swap2\n      pop\n        /* \"#utility.yul\":11149:11275   */\n      pop\n        /* \"#utility.yul\":10612:11282   */\n      swap3\n      pop\n      swap3\n      swap1\n      pop\n      jump\t// out\n        /* \"#utility.yul\":11288:11414   */\n    tag_215:\n        /* \"#utility.yul\":11325:11332   */\n      0x00\n        /* \"#utility.yul\":11365:11407   */\n      0xffffffffffffffffffffffffffffffffffffffff\n        /* \"#utility.yul\":11358:11363   */\n      dup3\n        /* \"#utility.yul\":11354:11408   */\n      and\n        /* \"#utility.yul\":11343:11408   */\n      swap1\n      pop\n        /* \"#utility.yul\":11288:11414   */\n      swap2\n      swap1\n      pop\n      jump\t// out\n        /* \"#utility.yul\":11420:11516   */\n    tag_216:\n        /* \"#utility.yul\":11457:11464   */\n      0x00\n        /* \"#utility.yul\":11486:11510   */\n      tag_367\n        /* \"#utility.yul\":11504:11509   */\n      dup3\n        /* \"#utility.yul\":11486:11510   */\n      tag_215\n      jump\t// in\n    tag_367:\n        /* \"#utility.yul\":11475:11510   */\n      swap1\n      pop\n        /* \"#utility.yul\":11420:11516   */\n      swap2\n      swap1\n      pop\n      jump\t// out\n        /* \"#utility.yul\":11522:11640   */\n    tag_217:\n        /* \"#utility.yul\":11609:11633   */\n      tag_369\n        /* \"#utility.yul\":11627:11632   */\n      dup2\n        /* \"#utility.yul\":11609:11633   */\n      tag_216\n      jump\t// in\n    tag_369:\n        /* \"#utility.yul\":11604:11607   */\n      dup3\n        /* \"#utility.yul\":11597:11634   */\n      mstore\n        /* \"#utility.yul\":11522:11640   */\n      pop\n      pop\n      jump\t// out\n        /* \"#utility.yul\":11646:11868   */\n    tag_62:\n        /* \"#utility.yul\":11739:11743   */\n      0x00\n        /* \"#utility.yul\":11777:11779   */\n      0x20\n        /* \"#utility.yul\":11766:11775   */\n      dup3\n        /* \"#utility.yul\":11762:11780   */\n      add\n        /* \"#utility.yul\":11754:11780   */\n      swap1\n      pop\n        /* \"#utility.yul\":11790:11861   */\n      tag_371\n        /* \"#utility.yul\":11858:11859   */\n      0x00\n        /* \"#utility.yul\":11847:11856   */\n      dup4\n        /* \"#utility.yul\":11843:11860   */\n      add\n        /* \"#utility.yul\":11834:11840   */\n      dup5\n        /* \"#utility.yul\":11790:11861   */\n      tag_217\n      jump\t// in\n    tag_371:\n        /* \"#utility.yul\":11646:11868   */\n      swap3\n      swap2\n      pop\n      pop\n      jump\t// out\n        /* \"#utility.yul\":11874:12383   */\n    tag_66:\n        /* \"#utility.yul\":11943:11949   */\n      0x00\n        /* \"#utility.yul\":11992:11994   */\n      0x20\n        /* \"#utility.yul\":11980:11989   */\n      dup3\n        /* \"#utility.yul\":11971:11978   */\n      dup5\n        /* \"#utility.yul\":11967:11990   */\n      sub\n        /* \"#utility.yul\":11963:11995   */\n      slt\n        /* \"#utility.yul\":11960:12079   */\n      iszero\n      tag_373\n      jumpi\n        /* \"#utility.yul\":11998:12077   */\n      tag_374\n      tag_181\n      jump\t// in\n    tag_374:\n        /* \"#utility.yul\":11960:12079   */\n    tag_373:\n        /* \"#utility.yul\":12146:12147   */\n      0x00\n        /* \"#utility.yul\":12135:12144   */\n      dup3\n        /* \"#utility.yul\":12131:12148   */\n      add\n        /* \"#utility.yul\":12118:12149   */\n      calldataload\n        /* \"#utility.yul\":12176:12194   */\n      0xffffffffffffffff\n        /* \"#utility.yul\":12168:12174   */\n      dup2\n        /* \"#utility.yul\":12165:12195   */\n      gt\n        /* \"#utility.yul\":12162:12279   */\n      iszero\n      tag_375\n      jumpi\n        /* \"#utility.yul\":12198:12277   */\n      tag_376\n      tag_182\n      jump\t// in\n    tag_376:\n        /* \"#utility.yul\":12162:12279   */\n    tag_375:\n        /* \"#utility.yul\":12303:12366   */\n      tag_377\n        /* \"#utility.yul\":12358:12365   */\n      dup5\n        /* \"#utility.yul\":12349:12355   */\n      dup3\n        /* \"#utility.yul\":12338:12347   */\n      dup6\n        /* \"#utility.yul\":12334:12356   */\n      add\n        /* \"#utility.yul\":12303:12366   */\n      tag_214\n      jump\t// in\n    tag_377:\n        /* \"#utility.yul\":12293:12366   */\n      swap2\n      pop\n        /* \"#utility.yul\":12089:12376   */\n      pop\n        /* \"#utility.yul\":11874:12383   */\n      swap3\n      swap2\n      pop\n      pop\n      jump\t// out\n        /* \"#utility.yul\":12459:13773   */\n    tag_218:\n        /* \"#utility.yul\":12570:12573   */\n      0x00\n        /* \"#utility.yul\":12606:12610   */\n      0xc0\n        /* \"#utility.yul\":12601:12604   */\n      dup4\n        /* \"#utility.yul\":12597:12611   */\n      add\n        /* \"#utility.yul\":12691:12695   */\n      0x00\n        /* \"#utility.yul\":12684:12689   */\n      dup4\n        /* \"#utility.yul\":12680:12696   */\n      add\n        /* \"#utility.yul\":12674:12697   */\n      mload\n        /* \"#utility.yul\":12710:12773   */\n      tag_379\n        /* \"#utility.yul\":12767:12771   */\n      0x00\n        /* \"#utility.yul\":12762:12765   */\n      dup7\n        /* \"#utility.yul\":12758:12772   */\n      add\n        /* \"#utility.yul\":12744:12756   */\n      dup3\n        /* \"#utility.yul\":12710:12773   */\n      tag_200\n      jump\t// in\n    tag_379:\n        /* \"#utility.yul\":12621:12783   */\n      pop\n        /* \"#utility.yul\":12865:12869   */\n      0x20\n        /* \"#utility.yul\":12858:12863   */\n      dup4\n        /* \"#utility.yul\":12854:12870   */\n      add\n        /* \"#utility.yul\":12848:12871   */\n      mload\n        /* \"#utility.yul\":12918:12921   */\n      dup5\n        /* \"#utility.yul\":12912:12916   */\n      dup3\n        /* \"#utility.yul\":12908:12922   */\n      sub\n        /* \"#utility.yul\":12901:12905   */\n      0x20\n        /* \"#utility.yul\":12896:12899   */\n      dup7\n        /* \"#utility.yul\":12892:12906   */\n      add\n        /* \"#utility.yul\":12885:12923   */\n      mstore\n        /* \"#utility.yul\":12944:13017   */\n      tag_380\n        /* \"#utility.yul\":13012:13016   */\n      dup3\n        /* \"#utility.yul\":12998:13010   */\n      dup3\n        /* \"#utility.yul\":12944:13017   */\n      tag_202\n      jump\t// in\n    tag_380:\n        /* \"#utility.yul\":12936:13017   */\n      swap2\n      pop\n        /* \"#utility.yul\":12793:13028   */\n      pop\n        /* \"#utility.yul\":13118:13122   */\n      0x40\n        /* \"#utility.yul\":13111:13116   */\n      dup4\n        /* \"#utility.yul\":13107:13123   */\n      add\n        /* \"#utility.yul\":13101:13124   */\n      mload\n        /* \"#utility.yul\":13137:13194   */\n      tag_381\n        /* \"#utility.yul\":13188:13192   */\n      0x40\n        /* \"#utility.yul\":13183:13186   */\n      dup7\n        /* \"#utility.yul\":13179:13193   */\n      add\n        /* \"#utility.yul\":13165:13177   */\n      dup3\n        /* \"#utility.yul\":13137:13194   */\n      tag_204\n      jump\t// in\n    tag_381:\n        /* \"#utility.yul\":13038:13204   */\n      pop\n        /* \"#utility.yul\":13292:13296   */\n      0x60\n        /* \"#utility.yul\":13285:13290   */\n      dup4\n        /* \"#utility.yul\":13281:13297   */\n      add\n        /* \"#utility.yul\":13275:13298   */\n      mload\n        /* \"#utility.yul\":13311:13368   */\n      tag_382\n        /* \"#utility.yul\":13362:13366   */\n      0x60\n        /* \"#utility.yul\":13357:13360   */\n      dup7\n        /* \"#utility.yul\":13353:13367   */\n      add\n        /* \"#utility.yul\":13339:13351   */\n      dup3\n        /* \"#utility.yul\":13311:13368   */\n      tag_204\n      jump\t// in\n    tag_382:\n        /* \"#utility.yul\":13214:13378   */\n      pop\n        /* \"#utility.yul\":13468:13472   */\n      0x80\n        /* \"#utility.yul\":13461:13466   */\n      dup4\n        /* \"#utility.yul\":13457:13473   */\n      add\n        /* \"#utility.yul\":13451:13474   */\n      mload\n        /* \"#utility.yul\":13487:13550   */\n      tag_383\n        /* \"#utility.yul\":13544:13548   */\n      0x80\n        /* \"#utility.yul\":13539:13542   */\n      dup7\n        /* \"#utility.yul\":13535:13549   */\n      add\n        /* \"#utility.yul\":13521:13533   */\n      dup3\n        /* \"#utility.yul\":13487:13550   */\n      tag_200\n      jump\t// in\n    tag_383:\n        /* \"#utility.yul\":13388:13560   */\n      pop\n        /* \"#utility.yul\":13654:13658   */\n      0xa0\n        /* \"#utility.yul\":13647:13652   */\n      dup4\n        /* \"#utility.yul\":13643:13659   */\n      add\n        /* \"#utility.yul\":13637:13660   */\n      mload\n        /* \"#utility.yul\":13673:13736   */\n      tag_384\n        /* \"#utility.yul\":13730:13734   */\n      0xa0\n        /* \"#utility.yul\":13725:13728   */\n      dup7\n        /* \"#utility.yul\":13721:13735   */\n      add\n        /* \"#utility.yul\":13707:13719   */\n      dup3\n        /* \"#utility.yul\":13673:13736   */\n      tag_200\n      jump\t// in\n    tag_384:\n        /* \"#utility.yul\":13570:13746   */\n      pop\n        /* \"#utility.yul\":13763:13767   */\n      dup1\n        /* \"#utility.yul\":13756:13767   */\n      swap2\n      pop\n        /* \"#utility.yul\":12575:13773   */\n      pop\n        /* \"#utility.yul\":12459:13773   */\n      swap3\n      swap2\n      pop\n      pop\n      jump\t// out\n        /* \"#utility.yul\":13779:14136   */\n    tag_80:\n        /* \"#utility.yul\":13914:13918   */\n      0x00\n        /* \"#utility.yul\":13952:13954   */\n      0x20\n        /* \"#utility.yul\":13941:13950   */\n      dup3\n        /* \"#utility.yul\":13937:13955   */\n      add\n        /* \"#utility.yul\":13929:13955   */\n      swap1\n      pop\n        /* \"#utility.yul\":14001:14010   */\n      dup2\n        /* \"#utility.yul\":13995:13999   */\n      dup2\n        /* \"#utility.yul\":13991:14011   */\n      sub\n        /* \"#utility.yul\":13987:13988   */\n      0x00\n        /* \"#utility.yul\":13976:13985   */\n      dup4\n        /* \"#utility.yul\":13972:13989   */\n      add\n        /* \"#utility.yul\":13965:14012   */\n      mstore\n        /* \"#utility.yul\":14029:14129   */\n      tag_386\n        /* \"#utility.yul\":14124:14128   */\n      dup2\n        /* \"#utility.yul\":14115:14121   */\n      dup5\n        /* \"#utility.yul\":14029:14129   */\n      tag_218\n      jump\t// in\n    tag_386:\n        /* \"#utility.yul\":14021:14129   */\n      swap1\n      pop\n        /* \"#utility.yul\":13779:14136   */\n      swap3\n      swap2\n      pop\n      pop\n      jump\t// out\n        /* \"#utility.yul\":14142:14322   */\n    tag_219:\n        /* \"#utility.yul\":14190:14267   */\n      0x4e487b7100000000000000000000000000000000000000000000000000000000\n        /* \"#utility.yul\":14187:14188   */\n      0x00\n        /* \"#utility.yul\":14180:14268   */\n      mstore\n        /* \"#utility.yul\":14287:14291   */\n      0x22\n        /* \"#utility.yul\":14284:14285   */\n      0x04\n        /* \"#utility.yul\":14277:14292   */\n      mstore\n        /* \"#utility.yul\":14311:14315   */\n      0x24\n        /* \"#utility.yul\":14308:14309   */\n      0x00\n        /* \"#utility.yul\":14301:14316   */\n      revert\n        /* \"#utility.yul\":14328:14648   */\n    tag_82:\n        /* \"#utility.yul\":14372:14378   */\n      0x00\n        /* \"#utility.yul\":14409:14410   */\n      0x02\n        /* \"#utility.yul\":14403:14407   */\n      dup3\n        /* \"#utility.yul\":14399:14411   */\n      div\n        /* \"#utility.yul\":14389:14411   */\n      swap1\n      pop\n        /* \"#utility.yul\":14456:14457   */\n      0x01\n        /* \"#utility.yul\":14450:14454   */\n      dup3\n        /* \"#utility.yul\":14446:14458   */\n      and\n        /* \"#utility.yul\":14477:14495   */\n      dup1\n        /* \"#utility.yul\":14467:14548   */\n      tag_389\n      jumpi\n        /* \"#utility.yul\":14533:14537   */\n      0x7f\n        /* \"#utility.yul\":14525:14531   */\n      dup3\n        /* \"#utility.yul\":14521:14538   */\n      and\n        /* \"#utility.yul\":14511:14538   */\n      swap2\n      pop\n        /* \"#utility.yul\":14467:14548   */\n    tag_389:\n        /* \"#utility.yul\":14595:14597   */\n      0x20\n        /* \"#utility.yul\":14587:14593   */\n      dup3\n        /* \"#utility.yul\":14584:14598   */\n      lt\n        /* \"#utility.yul\":14564:14582   */\n      dup2\n        /* \"#utility.yul\":14561:14599   */\n      sub\n        /* \"#utility.yul\":14558:14642   */\n      tag_390\n      jumpi\n        /* \"#utility.yul\":14614:14632   */\n      tag_391\n      tag_219\n      jump\t// in\n    tag_391:\n        /* \"#utility.yul\":14558:14642   */\n    tag_390:\n        /* \"#utility.yul\":14379:14648   */\n      pop\n        /* \"#utility.yul\":14328:14648   */\n      swap2\n      swap1\n      pop\n      jump\t// out\n        /* \"#utility.yul\":14654:14817   */\n    tag_220:\n        /* \"#utility.yul\":14794:14809   */\n      0x496e76616c6964206c6576656c00000000000000000000000000000000000000\n        /* \"#utility.yul\":14790:14791   */\n      0x00\n        /* \"#utility.yul\":14782:14788   */\n      dup3\n        /* \"#utility.yul\":14778:14792   */\n      add\n        /* \"#utility.yul\":14771:14810   */\n      mstore\n        /* \"#utility.yul\":14654:14817   */\n      pop\n      jump\t// out\n        /* \"#utility.yul\":14823:15189   */\n    tag_221:\n        /* \"#utility.yul\":14965:14968   */\n      0x00\n        /* \"#utility.yul\":14986:15053   */\n      tag_394\n        /* \"#utility.yul\":15050:15052   */\n      0x0d\n        /* \"#utility.yul\":15045:15048   */\n      dup4\n        /* \"#utility.yul\":14986:15053   */\n      tag_188\n      jump\t// in\n    tag_394:\n        /* \"#utility.yul\":14979:15053   */\n      swap2\n      pop\n        /* \"#utility.yul\":15062:15155   */\n      tag_395\n        /* \"#utility.yul\":15151:15154   */\n      dup3\n        /* \"#utility.yul\":15062:15155   */\n      tag_220\n      jump\t// in\n    tag_395:\n        /* \"#utility.yul\":15180:15182   */\n      0x20\n        /* \"#utility.yul\":15175:15178   */\n      dup3\n        /* \"#utility.yul\":15171:15183   */\n      add\n        /* \"#utility.yul\":15164:15183   */\n      swap1\n      pop\n        /* \"#utility.yul\":14823:15189   */\n      swap2\n      swap1\n      pop\n      jump\t// out\n        /* \"#utility.yul\":15195:15614   */\n    tag_110:\n        /* \"#utility.yul\":15361:15365   */\n      0x00\n        /* \"#utility.yul\":15399:15401   */\n      0x20\n        /* \"#utility.yul\":15388:15397   */\n      dup3\n        /* \"#utility.yul\":15384:15402   */\n      add\n        /* \"#utility.yul\":15376:15402   */\n      swap1\n      pop\n        /* \"#utility.yul\":15448:15457   */\n      dup2\n        /* \"#utility.yul\":15442:15446   */\n      dup2\n        /* \"#utility.yul\":15438:15458   */\n      sub\n        /* \"#utility.yul\":15434:15435   */\n      0x00\n        /* \"#utility.yul\":15423:15432   */\n      dup4\n        /* \"#utility.yul\":15419:15436   */\n      add\n        /* \"#utility.yul\":15412:15459   */\n      mstore\n        /* \"#utility.yul\":15476:15607   */\n      tag_397\n        /* \"#utility.yul\":15602:15606   */\n      dup2\n        /* \"#utility.yul\":15476:15607   */\n      tag_221\n      jump\t// in\n    tag_397:\n        /* \"#utility.yul\":15468:15607   */\n      swap1\n      pop\n        /* \"#utility.yul\":15195:15614   */\n      swap2\n      swap1\n      pop\n      jump\t// out\n        /* \"#utility.yul\":15620:15784   */\n    tag_222:\n        /* \"#utility.yul\":15760:15776   */\n      0x4e6f7420617574686f72697a6564000000000000000000000000000000000000\n        /* \"#utility.yul\":15756:15757   */\n      0x00\n        /* \"#utility.yul\":15748:15754   */\n      dup3\n        /* \"#utility.yul\":15744:15758   */\n      add\n        /* \"#utility.yul\":15737:15777   */\n      mstore\n        /* \"#utility.yul\":15620:15784   */\n      pop\n      jump\t// out\n        /* \"#utility.yul\":15790:16156   */\n    tag_223:\n        /* \"#utility.yul\":15932:15935   */\n      0x00\n        /* \"#utility.yul\":15953:16020   */\n      tag_400\n        /* \"#utility.yul\":16017:16019   */\n      0x0e\n        /* \"#utility.yul\":16012:16015   */\n      dup4\n        /* \"#utility.yul\":15953:16020   */\n      tag_188\n      jump\t// in\n    tag_400:\n        /* \"#utility.yul\":15946:16020   */\n      swap2\n      pop\n        /* \"#utility.yul\":16029:16122   */\n      tag_401\n        /* \"#utility.yul\":16118:16121   */\n      dup3\n        /* \"#utility.yul\":16029:16122   */\n      tag_222\n      jump\t// in\n    tag_401:\n        /* \"#utility.yul\":16147:16149   */\n      0x20\n        /* \"#utility.yul\":16142:16145   */\n      dup3\n        /* \"#utility.yul\":16138:16150   */\n      add\n        /* \"#utility.yul\":16131:16150   */\n      swap1\n      pop\n        /* \"#utility.yul\":15790:16156   */\n      swap2\n      swap1\n      pop\n      jump\t// out\n        /* \"#utility.yul\":16162:16581   */\n    tag_114:\n        /* \"#utility.yul\":16328:16332   */\n      0x00\n        /* \"#utility.yul\":16366:16368   */\n      0x20\n        /* \"#utility.yul\":16355:16364   */\n      dup3\n        /* \"#utility.yul\":16351:16369   */\n      add\n        /* \"#utility.yul\":16343:16369   */\n      swap1\n      pop\n        /* \"#utility.yul\":16415:16424   */\n      dup2\n        /* \"#utility.yul\":16409:16413   */\n      dup2\n        /* \"#utility.yul\":16405:16425   */\n      sub\n        /* \"#utility.yul\":16401:16402   */\n      0x00\n        /* \"#utility.yul\":16390:16399   */\n      dup4\n        /* \"#utility.yul\":16386:16403   */\n      add\n        /* \"#utility.yul\":16379:16426   */\n      mstore\n        /* \"#utility.yul\":16443:16574   */\n      tag_403\n        /* \"#utility.yul\":16569:16573   */\n      dup2\n        /* \"#utility.yul\":16443:16574   */\n      tag_223\n      jump\t// in\n    tag_403:\n        /* \"#utility.yul\":16435:16574   */\n      swap1\n      pop\n        /* \"#utility.yul\":16162:16581   */\n      swap2\n      swap1\n      pop\n      jump\t// out\n        /* \"#utility.yul\":16587:16754   */\n    tag_224:\n        /* \"#utility.yul\":16727:16746   */\n      0x53747564656e74206e6f7420666f756e64000000000000000000000000000000\n        /* \"#utility.yul\":16723:16724   */\n      0x00\n        /* \"#utility.yul\":16715:16721   */\n      dup3\n        /* \"#utility.yul\":16711:16725   */\n      add\n        /* \"#utility.yul\":16704:16747   */\n      mstore\n        /* \"#utility.yul\":16587:16754   */\n      pop\n      jump\t// out\n        /* \"#utility.yul\":16760:17126   */\n    tag_225:\n        /* \"#utility.yul\":16902:16905   */\n      0x00\n        /* \"#utility.yul\":16923:16990   */\n      tag_406\n        /* \"#utility.yul\":16987:16989   */\n      0x11\n        /* \"#utility.yul\":16982:16985   */\n      dup4\n        /* \"#utility.yul\":16923:16990   */\n      tag_188\n      jump\t// in\n    tag_406:\n        /* \"#utility.yul\":16916:16990   */\n      swap2\n      pop\n        /* \"#utility.yul\":16999:17092   */\n      tag_407\n        /* \"#utility.yul\":17088:17091   */\n      dup3\n        /* \"#utility.yul\":16999:17092   */\n      tag_224\n      jump\t// in\n    tag_407:\n        /* \"#utility.yul\":17117:17119   */\n      0x20\n        /* \"#utility.yul\":17112:17115   */\n      dup3\n        /* \"#utility.yul\":17108:17120   */\n      add\n        /* \"#utility.yul\":17101:17120   */\n      swap1\n      pop\n        /* \"#utility.yul\":16760:17126   */\n      swap2\n      swap1\n      pop\n      jump\t// out\n        /* \"#utility.yul\":17132:17551   */\n    tag_128:\n        /* \"#utility.yul\":17298:17302   */\n      0x00\n        /* \"#utility.yul\":17336:17338   */\n      0x20\n        /* \"#utility.yul\":17325:17334   */\n      dup3\n        /* \"#utility.yul\":17321:17339   */\n      add\n        /* \"#utility.yul\":17313:17339   */\n      swap1\n      pop\n        /* \"#utility.yul\":17385:17394   */\n      dup2\n        /* \"#utility.yul\":17379:17383   */\n      dup2\n        /* \"#utility.yul\":17375:17395   */\n      sub\n        /* \"#utility.yul\":17371:17372   */\n      0x00\n        /* \"#utility.yul\":17360:17369   */\n      dup4\n        /* \"#utility.yul\":17356:17373   */\n      add\n        /* \"#utility.yul\":17349:17396   */\n      mstore\n        /* \"#utility.yul\":17413:17544   */\n      tag_409\n        /* \"#utility.yul\":17539:17543   */\n      dup2\n        /* \"#utility.yul\":17413:17544   */\n      tag_225\n      jump\t// in\n    tag_409:\n        /* \"#utility.yul\":17405:17544   */\n      swap1\n      pop\n        /* \"#utility.yul\":17132:17551   */\n      swap2\n      swap1\n      pop\n      jump\t// out\n        /* \"#utility.yul\":17557:17727   */\n    tag_226:\n        /* \"#utility.yul\":17697:17719   */\n      0x496e636f72726563742066656520616d6f756e74000000000000000000000000\n        /* \"#utility.yul\":17693:17694   */\n      0x00\n        /* \"#utility.yul\":17685:17691   */\n      dup3\n        /* \"#utility.yul\":17681:17695   */\n      add\n        /* \"#utility.yul\":17674:17720   */\n      mstore\n        /* \"#utility.yul\":17557:17727   */\n      pop\n      jump\t// out\n        /* \"#utility.yul\":17733:18099   */\n    tag_227:\n        /* \"#utility.yul\":17875:17878   */\n      0x00\n        /* \"#utility.yul\":17896:17963   */\n      tag_412\n        /* \"#utility.yul\":17960:17962   */\n      0x14\n        /* \"#utility.yul\":17955:17958   */\n      dup4\n        /* \"#utility.yul\":17896:17963   */\n      tag_188\n      jump\t// in\n    tag_412:\n        /* \"#utility.yul\":17889:17963   */\n      swap2\n      pop\n        /* \"#utility.yul\":17972:18065   */\n      tag_413\n        /* \"#utility.yul\":18061:18064   */\n      dup3\n        /* \"#utility.yul\":17972:18065   */\n      tag_226\n      jump\t// in\n    tag_413:\n        /* \"#utility.yul\":18090:18092   */\n      0x20\n        /* \"#utility.yul\":18085:18088   */\n      dup3\n        /* \"#utility.yul\":18081:18093   */\n      add\n        /* \"#utility.yul\":18074:18093   */\n      swap1\n      pop\n        /* \"#utility.yul\":17733:18099   */\n      swap2\n      swap1\n      pop\n      jump\t// out\n        /* \"#utility.yul\":18105:18524   */\n    tag_142:\n        /* \"#utility.yul\":18271:18275   */\n      0x00\n        /* \"#utility.yul\":18309:18311   */\n      0x20\n        /* \"#utility.yul\":18298:18307   */\n      dup3\n        /* \"#utility.yul\":18294:18312   */\n      add\n        /* \"#utility.yul\":18286:18312   */\n      swap1\n      pop\n        /* \"#utility.yul\":18358:18367   */\n      dup2\n        /* \"#utility.yul\":18352:18356   */\n      dup2\n        /* \"#utility.yul\":18348:18368   */\n      sub\n        /* \"#utility.yul\":18344:18345   */\n      0x00\n        /* \"#utility.yul\":18333:18342   */\n      dup4\n        /* \"#utility.yul\":18329:18346   */\n      add\n        /* \"#utility.yul\":18322:18369   */\n      mstore\n        /* \"#utility.yul\":18386:18517   */\n      tag_415\n        /* \"#utility.yul\":18512:18516   */\n      dup2\n        /* \"#utility.yul\":18386:18517   */\n      tag_227\n      jump\t// in\n    tag_415:\n        /* \"#utility.yul\":18378:18517   */\n      swap1\n      pop\n        /* \"#utility.yul\":18105:18524   */\n      swap2\n      swap1\n      pop\n      jump\t// out\n        /* \"#utility.yul\":18530:18710   */\n    tag_228:\n        /* \"#utility.yul\":18578:18655   */\n      0x4e487b7100000000000000000000000000000000000000000000000000000000\n        /* \"#utility.yul\":18575:18576   */\n      0x00\n        /* \"#utility.yul\":18568:18656   */\n      mstore\n        /* \"#utility.yul\":18675:18679   */\n      0x11\n        /* \"#utility.yul\":18672:18673   */\n      0x04\n        /* \"#utility.yul\":18665:18680   */\n      mstore\n        /* \"#utility.yul\":18699:18703   */\n      0x24\n        /* \"#utility.yul\":18696:18697   */\n      0x00\n        /* \"#utility.yul\":18689:18704   */\n      revert\n        /* \"#utility.yul\":18716:18949   */\n    tag_144:\n        /* \"#utility.yul\":18755:18758   */\n      0x00\n        /* \"#utility.yul\":18778:18802   */\n      tag_418\n        /* \"#utility.yul\":18796:18801   */\n      dup3\n        /* \"#utility.yul\":18778:18802   */\n      tag_183\n      jump\t// in\n    tag_418:\n        /* \"#utility.yul\":18769:18802   */\n      swap2\n      pop\n        /* \"#utility.yul\":18824:18890   */\n      0xffffffffffffffffffffffffffffffffffffffffffffffffffffffffffffffff\n        /* \"#utility.yul\":18817:18822   */\n      dup3\n        /* \"#utility.yul\":18814:18891   */\n      sub\n        /* \"#utility.yul\":18811:18914   */\n      tag_419\n      jumpi\n        /* \"#utility.yul\":18894:18912   */\n      tag_420\n      tag_228\n      jump\t// in\n    tag_420:\n        /* \"#utility.yul\":18811:18914   */\n    tag_419:\n        /* \"#utility.yul\":18941:18942   */\n      0x01\n        /* \"#utility.yul\":18934:18939   */\n      dup3\n        /* \"#utility.yul\":18930:18943   */\n      add\n        /* \"#utility.yul\":18923:18943   */\n      swap1\n      pop\n        /* \"#utility.yul\":18716:18949   */\n      swap2\n      swap1\n      pop\n      jump\t// out\n        /* \"#utility.yul\":18955:19096   */\n    tag_229:\n        /* \"#utility.yul\":19004:19008   */\n      0x00\n        /* \"#utility.yul\":19027:19030   */\n      dup2\n        /* \"#utility.yul\":19019:19030   */\n      swap1\n      pop\n        /* \"#utility.yul\":19050:19053   */\n      dup2\n        /* \"#utility.yul\":19047:19048   */\n      0x00\n        /* \"#utility.yul\":19040:19054   */\n      mstore\n        /* \"#utility.yul\":19084:19088   */\n      0x20\n        /* \"#utility.yul\":19081:19082   */\n      0x00\n        /* \"#utility.yul\":19071:19089   */\n      keccak256\n        /* \"#utility.yul\":19063:19089   */\n      swap1\n      pop\n        /* \"#utility.yul\":18955:19096   */\n      swap2\n      swap1\n      pop\n      jump\t// out\n        /* \"#utility.yul\":19102:19195   */\n    tag_230:\n        /* \"#utility.yul\":19139:19145   */\n      0x00\n        /* \"#utility.yul\":19186:19188   */\n      0x20\n        /* \"#utility.yul\":19181:19183   */\n      0x1f\n        /* \"#utility.yul\":19174:19179   */\n      dup4\n        /* \"#utility.yul\":19170:19184   */\n      add\n        /* \"#utility.yul\":19166:19189   */\n      div\n        /* \"#utility.yul\":19156:19189   */\n      swap1\n      pop\n        /* \"#utility.yul\":19102:19195   */\n      swap2\n      swap1\n      pop\n      jump\t// out\n        /* \"#utility.yul\":19201:19308   */\n    tag_231:\n        /* \"#utility.yul\":19245:19253   */\n      0x00\n        /* \"#utility.yul\":19295:19300   */\n      dup3\n        /* \"#utility.yul\":19289:19293   */\n      dup3\n        /* \"#utility.yul\":19285:19301   */\n      shl\n        /* \"#utility.yul\":19264:19301   */\n      swap1\n      pop\n        /* \"#utility.yul\":19201:19308   */\n      swap3\n      swap2\n      pop\n      pop\n      jump\t// out\n        /* \"#utility.yul\":19314:19707   */\n    tag_232:\n        /* \"#utility.yul\":19383:19389   */\n      0x00\n        /* \"#utility.yul\":19433:19434   */\n      0x08\n        /* \"#utility.yul\":19421:19431   */\n      dup4\n        /* \"#utility.yul\":19417:19435   */\n      mul\n        /* \"#utility.yul\":19456:19553   */\n      tag_425\n        /* \"#utility.yul\":19486:19552   */\n      0xffffffffffffffffffffffffffffffffffffffffffffffffffffffffffffffff\n        /* \"#utility.yul\":19475:19484   */\n      dup3\n        /* \"#utility.yul\":19456:19553   */\n      tag_231\n      jump\t// in\n    tag_425:\n        /* \"#utility.yul\":19574:19613   */\n      tag_426\n        /* \"#utility.yul\":19604:19612   */\n      dup7\n        /* \"#utility.yul\":19593:19602   */\n      dup4\n        /* \"#utility.yul\":19574:19613   */\n      tag_231\n      jump\t// in\n    tag_426:\n        /* \"#utility.yul\":19562:19613   */\n      swap6\n      pop\n        /* \"#utility.yul\":19646:19650   */\n      dup1\n        /* \"#utility.yul\":19642:19651   */\n      not\n        /* \"#utility.yul\":19635:19640   */\n      dup5\n        /* \"#utility.yul\":19631:19652   */\n      and\n        /* \"#utility.yul\":19622:19652   */\n      swap4\n      pop\n        /* \"#utility.yul\":19695:19699   */\n      dup1\n        /* \"#utility.yul\":19685:19693   */\n      dup7\n        /* \"#utility.yul\":19681:19700   */\n      and\n        /* \"#utility.yul\":19674:19679   */\n      dup5\n        /* \"#utility.yul\":19671:19701   */\n      or\n        /* \"#utility.yul\":19661:19701   */\n      swap3\n      pop\n        /* \"#utility.yul\":19390:19707   */\n      pop\n      pop\n        /* \"#utility.yul\":19314:19707   */\n      swap4\n      swap3\n      pop\n      pop\n      pop\n      jump\t// out\n        /* \"#utility.yul\":19713:19773   */\n    tag_233:\n        /* \"#utility.yul\":19741:19744   */\n      0x00\n        /* \"#utility.yul\":19762:19767   */\n      dup2\n        /* \"#utility.yul\":19755:19767   */\n      swap1\n      pop\n        /* \"#utility.yul\":19713:19773   */\n      swap2\n      swap1\n      pop\n      jump\t// out\n        /* \"#utility.yul\":19779:19921   */\n    tag_234:\n        /* \"#utility.yul\":19829:19838   */\n      0x00\n        /* \"#utility.yul\":19862:19915   */\n      tag_429\n        /* \"#utility.yul\":19880:19914   */\n      tag_430\n        /* \"#utility.yul\":19889:19913   */\n      tag_431\n        /* \"#utility.yul\":19907:19912   */\n      dup5\n        /* \"#utility.yul\":19889:19913   */\n      tag_183\n      jump\t// in\n    tag_431:\n        /* \"#utility.yul\":19880:19914   */\n      tag_233\n      jump\t// in\n    tag_430:\n        /* \"#utility.yul\":19862:19915   */\n      tag_183\n      jump\t// in\n    tag_429:\n        /* \"#utility.yul\":19849:19915   */\n      swap1\n      pop\n        /* \"#utility.yul\":19779:19921   */\n      swap2\n      swap1\n      pop\n      jump\t// out\n        /* \"#utility.yul\":19927:20002   */\n    tag_235:\n        /* \"#utility.yul\":19970:19973   */\n      0x00\n        /* \"#utility.yul\":19991:19996   */\n      dup2\n        /* \"#utility.yul\":19984:19996   */\n      swap1\n      pop\n        /* \"#utility.yul\":19927:20002   */\n      swap2\n      swap1\n      pop\n      jump\t// out\n        /* \"#utility.yul\":20008:20277   */\n    tag_236:\n        /* \"#utility.yul\":20118:20157   */\n      tag_434\n        /* \"#utility.yul\":20149:20156   */\n      dup4\n        /* \"#utility.yul\":20118:20157   */\n      tag_234\n      jump\t// in\n    tag_434:\n        /* \"#utility.yul\":20179:20270   */\n      tag_435\n        /* \"#utility.yul\":20228:20269   */\n      tag_436\n        /* \"#utility.yul\":20252:20268   */\n      dup3\n        /* \"#utility.yul\":20228:20269   */\n      tag_235\n      jump\t// in\n    tag_436:\n        /* \"#utility.yul\":20220:20226   */\n      dup5\n        /* \"#utility.yul\":20213:20217   */\n      dup5\n        /* \"#utility.yul\":20207:20218   */\n      sload\n        /* \"#utility.yul\":20179:20270   */\n      tag_232\n      jump\t// in\n    tag_435:\n        /* \"#utility.yul\":20173:20177   */\n      dup3\n        /* \"#utility.yul\":20166:20271   */\n      sstore\n        /* \"#utility.yul\":20084:20277   */\n      pop\n        /* \"#utility.yul\":20008:20277   */\n      pop\n      pop\n      pop\n      jump\t// out\n        /* \"#utility.yul\":20283:20356   */\n    tag_237:\n        /* \"#utility.yul\":20328:20331   */\n      0x00\n        /* \"#utility.yul\":20349:20350   */\n      0x00\n        /* \"#utility.yul\":20342:20350   */\n      swap1\n      pop\n        /* \"#utility.yul\":20283:20356   */\n      swap1\n      jump\t// out\n        /* \"#utility.yul\":20362:20551   */\n    tag_238:\n        /* \"#utility.yul\":20439:20471   */\n      tag_439\n      tag_237\n      jump\t// in\n    tag_439:\n        /* \"#utility.yul\":20480:20545   */\n      tag_440\n        /* \"#utility.yul\":20538:20544   */\n      dup2\n        /* \"#utility.yul\":20530:20536   */\n      dup5\n        /* \"#utility.yul\":20524:20528   */\n      dup5\n        /* \"#utility.yul\":20480:20545   */\n      tag_236\n      jump\t// in\n    tag_440:\n        /* \"#utility.yul\":20415:20551   */\n      pop\n        /* \"#utility.yul\":20362:20551   */\n      pop\n      pop\n      jump\t// out\n        /* \"#utility.yul\":20557:20743   */\n    tag_239:\n        /* \"#utility.yul\":20617:20737   */\n    tag_442:\n        /* \"#utility.yul\":20634:20637   */\n      dup2\n        /* \"#utility.yul\":20627:20632   */\n      dup2\n        /* \"#utility.yul\":20624:20638   */\n      lt\n        /* \"#utility.yul\":20617:20737   */\n      iszero\n      tag_444\n      jumpi\n        /* \"#utility.yul\":20688:20727   */\n      tag_445\n        /* \"#utility.yul\":20725:20726   */\n      0x00\n        /* \"#utility.yul\":20718:20723   */\n      dup3\n        /* \"#utility.yul\":20688:20727   */\n      tag_238\n      jump\t// in\n    tag_445:\n        /* \"#utility.yul\":20661:20662   */\n      0x01\n        /* \"#utility.yul\":20654:20659   */\n      dup2\n        /* \"#utility.yul\":20650:20663   */\n      add\n        /* \"#utility.yul\":20641:20663   */\n      swap1\n      pop\n        /* \"#utility.yul\":20617:20737   */\n      jump(tag_442)\n    tag_444:\n        /* \"#utility.yul\":20557:20743   */\n      pop\n      pop\n      jump\t// out\n        /* \"#utility.yul\":20749:21292   */\n    tag_240:\n        /* \"#utility.yul\":20850:20852   */\n      0x1f\n        /* \"#utility.yul\":20845:20848   */\n      dup3\n        /* \"#utility.yul\":20842:20853   */\n      gt\n        /* \"#utility.yul\":20839:21285   */\n      iszero\n      tag_447\n      jumpi\n        /* \"#utility.yul\":20884:20922   */\n      tag_448\n        /* \"#utility.yul\":20916:20921   */\n      dup2\n        /* \"#utility.yul\":20884:20922   */\n      tag_229\n      jump\t// in\n    tag_448:\n        /* \"#utility.yul\":20968:20997   */\n      tag_449\n        /* \"#utility.yul\":20986:20996   */\n      dup5\n        /* \"#utility.yul\":20968:20997   */\n      tag_230\n      jump\t// in\n    tag_449:\n        /* \"#utility.yul\":20958:20966   */\n      dup2\n        /* \"#utility.yul\":20954:20998   */\n      add\n        /* \"#utility.yul\":21151:21153   */\n      0x20\n        /* \"#utility.yul\":21139:21149   */\n      dup6\n        /* \"#utility.yul\":21136:21154   */\n      lt\n        /* \"#utility.yul\":21133:21182   */\n      iszero\n      tag_450\n      jumpi\n        /* \"#utility.yul\":21172:21180   */\n      dup2\n        /* \"#utility.yul\":21157:21180   */\n      swap1\n      pop\n        /* \"#utility.yul\":21133:21182   */\n    tag_450:\n        /* \"#utility.yul\":21195:21275   */\n      tag_451\n        /* \"#utility.yul\":21251:21273   */\n      tag_452\n        /* \"#utility.yul\":21269:21272   */\n      dup6\n        /* \"#utility.yul\":21251:21273   */\n      tag_230\n      jump\t// in\n    tag_452:\n        /* \"#utility.yul\":21241:21249   */\n      dup4\n        /* \"#utility.yul\":21237:21274   */\n      add\n        /* \"#utility.yul\":21224:21235   */\n      dup3\n        /* \"#utility.yul\":21195:21275   */\n      tag_239\n      jump\t// in\n    tag_451:\n        /* \"#utility.yul\":20854:21285   */\n      pop\n      pop\n        /* \"#utility.yul\":20839:21285   */\n    tag_447:\n        /* \"#utility.yul\":20749:21292   */\n      pop\n      pop\n      pop\n      jump\t// out\n        /* \"#utility.yul\":21298:21415   */\n    tag_241:\n        /* \"#utility.yul\":21352:21360   */\n      0x00\n        /* \"#utility.yul\":21402:21407   */\n      dup3\n        /* \"#utility.yul\":21396:21400   */\n      dup3\n        /* \"#utility.yul\":21392:21408   */\n      shr\n        /* \"#utility.yul\":21371:21408   */\n      swap1\n      pop\n        /* \"#utility.yul\":21298:21415   */\n      swap3\n      swap2\n      pop\n      pop\n      jump\t// out\n        /* \"#utility.yul\":21421:21590   */\n    tag_242:\n        /* \"#utility.yul\":21465:21471   */\n      0x00\n        /* \"#utility.yul\":21498:21549   */\n      tag_455\n        /* \"#utility.yul\":21546:21547   */\n      0x00\n        /* \"#utility.yul\":21542:21548   */\n      not\n        /* \"#utility.yul\":21534:21539   */\n      dup5\n        /* \"#utility.yul\":21531:21532   */\n      0x08\n        /* \"#utility.yul\":21527:21540   */\n      mul\n        /* \"#utility.yul\":21498:21549   */\n      tag_241\n      jump\t// in\n    tag_455:\n        /* \"#utility.yul\":21494:21550   */\n      not\n        /* \"#utility.yul\":21579:21583   */\n      dup1\n        /* \"#utility.yul\":21573:21577   */\n      dup4\n        /* \"#utility.yul\":21569:21584   */\n      and\n        /* \"#utility.yul\":21559:21584   */\n      swap2\n      pop\n        /* \"#utility.yul\":21472:21590   */\n      pop\n        /* \"#utility.yul\":21421:21590   */\n      swap3\n      swap2\n      pop\n      pop\n      jump\t// out\n        /* \"#utility.yul\":21595:21890   */\n    tag_243:\n        /* \"#utility.yul\":21671:21675   */\n      0x00\n        /* \"#utility.yul\":21817:21846   */\n      tag_457\n        /* \"#utility.yul\":21842:21845   */\n      dup4\n        /* \"#utility.yul\":21836:21840   */\n      dup4\n        /* \"#utility.yul\":21817:21846   */\n      tag_242\n      jump\t// in\n    tag_457:\n        /* \"#utility.yul\":21809:21846   */\n      swap2\n      pop\n        /* \"#utility.yul\":21879:21882   */\n      dup3\n        /* \"#utility.yul\":21876:21877   */\n      0x02\n        /* \"#utility.yul\":21872:21883   */\n      mul\n        /* \"#utility.yul\":21866:21870   */\n      dup3\n        /* \"#utility.yul\":21863:21884   */\n      or\n        /* \"#utility.yul\":21855:21884   */\n      swap1\n      pop\n        /* \"#utility.yul\":21595:21890   */\n      swap3\n      swap2\n      pop\n      pop\n      jump\t// out\n        /* \"#utility.yul\":21895:23290   */\n    tag_148:\n        /* \"#utility.yul\":22012:22049   */\n      tag_459\n        /* \"#utility.yul\":22045:22048   */\n      dup3\n        /* \"#utility.yul\":22012:22049   */\n      tag_187\n      jump\t// in\n    tag_459:\n        /* \"#utility.yul\":22114:22132   */\n      0xffffffffffffffff\n        /* \"#utility.yul\":22106:22112   */\n      dup2\n        /* \"#utility.yul\":22103:22133   */\n      gt\n        /* \"#utility.yul\":22100:22156   */\n      iszero\n      tag_460\n      jumpi\n        /* \"#utility.yul\":22136:22154   */\n      tag_461\n      tag_208\n      jump\t// in\n    tag_461:\n        /* \"#utility.yul\":22100:22156   */\n    tag_460:\n        /* \"#utility.yul\":22180:22218   */\n      tag_462\n        /* \"#utility.yul\":22212:22216   */\n      dup3\n        /* \"#utility.yul\":22206:22217   */\n      sload\n        /* \"#utility.yul\":22180:22218   */\n      tag_82\n      jump\t// in\n    tag_462:\n        /* \"#utility.yul\":22265:22332   */\n      tag_463\n        /* \"#utility.yul\":22325:22331   */\n      dup3\n        /* \"#utility.yul\":22317:22323   */\n      dup3\n        /* \"#utility.yul\":22311:22315   */\n      dup6\n        /* \"#utility.yul\":22265:22332   */\n      tag_240\n      jump\t// in\n    tag_463:\n        /* \"#utility.yul\":22359:22360   */\n      0x00\n        /* \"#utility.yul\":22383:22387   */\n      0x20\n        /* \"#utility.yul\":22370:22387   */\n      swap1\n      pop\n        /* \"#utility.yul\":22415:22417   */\n      0x1f\n        /* \"#utility.yul\":22407:22413   */\n      dup4\n        /* \"#utility.yul\":22404:22418   */\n      gt\n        /* \"#utility.yul\":22432:22433   */\n      0x01\n        /* \"#utility.yul\":22427:23045   */\n      dup2\n      eq\n      tag_465\n      jumpi\n        /* \"#utility.yul\":23089:23090   */\n      0x00\n        /* \"#utility.yul\":23106:23112   */\n      dup5\n        /* \"#utility.yul\":23103:23180   */\n      iszero\n      tag_466\n      jumpi\n        /* \"#utility.yul\":23155:23164   */\n      dup3\n        /* \"#utility.yul\":23150:23153   */\n      dup8\n        /* \"#utility.yul\":23146:23165   */\n      add\n        /* \"#utility.yul\":23140:23166   */\n      mload\n        /* \"#utility.yul\":23131:23166   */\n      swap1\n      pop\n        /* \"#utility.yul\":23103:23180   */\n    tag_466:\n        /* \"#utility.yul\":23206:23273   */\n      tag_467\n        /* \"#utility.yul\":23266:23272   */\n      dup6\n        /* \"#utility.yul\":23259:23264   */\n      dup3\n        /* \"#utility.yul\":23206:23273   */\n      tag_243\n      jump\t// in\n    tag_467:\n        /* \"#utility.yul\":23200:23204   */\n      dup7\n        /* \"#utility.yul\":23193:23274   */\n      sstore\n        /* \"#utility.yul\":23062:23284   */\n      pop\n        /* \"#utility.yul\":22397:23284   */\n      jump(tag_464)\n        /* \"#utility.yul\":22427:23045   */\n    tag_465:\n        /* \"#utility.yul\":22479:22483   */\n      0x1f\n        /* \"#utility.yul\":22475:22484   */\n      not\n        /* \"#utility.yul\":22467:22473   */\n      dup5\n        /* \"#utility.yul\":22463:22485   */\n      and\n        /* \"#utility.yul\":22513:22550   */\n      tag_468\n        /* \"#utility.yul\":22545:22549   */\n      dup7\n        /* \"#utility.yul\":22513:22550   */\n      tag_229\n      jump\t// in\n    tag_468:\n        /* \"#utility.yul\":22572:22573   */\n      0x00\n        /* \"#utility.yul\":22586:22794   */\n    tag_469:\n        /* \"#utility.yul\":22600:22607   */\n      dup3\n        /* \"#utility.yul\":22597:22598   */\n      dup2\n        /* \"#utility.yul\":22594:22608   */\n      lt\n        /* \"#utility.yul\":22586:22794   */\n      iszero\n      tag_471\n      jumpi\n        /* \"#utility.yul\":22679:22688   */\n      dup5\n        /* \"#utility.yul\":22674:22677   */\n      dup10\n        /* \"#utility.yul\":22670:22689   */\n      add\n        /* \"#utility.yul\":22664:22690   */\n      mload\n        /* \"#utility.yul\":22656:22662   */\n      dup3\n        /* \"#utility.yul\":22649:22691   */\n      sstore\n        /* \"#utility.yul\":22730:22731   */\n      0x01\n        /* \"#utility.yul\":22722:22728   */\n      dup3\n        /* \"#utility.yul\":22718:22732   */\n      add\n        /* \"#utility.yul\":22708:22732   */\n      swap2\n      pop\n        /* \"#utility.yul\":22777:22779   */\n      0x20\n        /* \"#utility.yul\":22766:22775   */\n      dup6\n        /* \"#utility.yul\":22762:22780   */\n      add\n        /* \"#utility.yul\":22749:22780   */\n      swap5\n      pop\n        /* \"#utility.yul\":22623:22627   */\n      0x20\n        /* \"#utility.yul\":22620:22621   */\n      dup2\n        /* \"#utility.yul\":22616:22628   */\n      add\n        /* \"#utility.yul\":22611:22628   */\n      swap1\n      pop\n        /* \"#utility.yul\":22586:22794   */\n      jump(tag_469)\n    tag_471:\n        /* \"#utility.yul\":22822:22828   */\n      dup7\n        /* \"#utility.yul\":22813:22820   */\n      dup4\n        /* \"#utility.yul\":22810:22829   */\n      lt\n        /* \"#utility.yul\":22807:22986   */\n      iszero\n      tag_472\n      jumpi\n        /* \"#utility.yul\":22880:22889   */\n      dup5\n        /* \"#utility.yul\":22875:22878   */\n      dup10\n        /* \"#utility.yul\":22871:22890   */\n      add\n        /* \"#utility.yul\":22865:22891   */\n      mload\n        /* \"#utility.yul\":22923:22971   */\n      tag_473\n        /* \"#utility.yul\":22965:22969   */\n      0x1f\n        /* \"#utility.yul\":22957:22963   */\n      dup10\n        /* \"#utility.yul\":22953:22970   */\n      and\n        /* \"#utility.yul\":22942:22951   */\n      dup3\n        /* \"#utility.yul\":22923:22971   */\n      tag_242\n      jump\t// in\n    tag_473:\n        /* \"#utility.yul\":22915:22921   */\n      dup4\n        /* \"#utility.yul\":22908:22972   */\n      sstore\n        /* \"#utility.yul\":22830:22986   */\n      pop\n        /* \"#utility.yul\":22807:22986   */\n    tag_472:\n        /* \"#utility.yul\":23032:23033   */\n      0x01\n        /* \"#utility.yul\":23028:23029   */\n      0x02\n        /* \"#utility.yul\":23020:23026   */\n      dup9\n        /* \"#utility.yul\":23016:23030   */\n      mul\n        /* \"#utility.yul\":23012:23034   */\n      add\n        /* \"#utility.yul\":23006:23010   */\n      dup9\n        /* \"#utility.yul\":22999:23035   */\n      sstore\n        /* \"#utility.yul\":22434:23045   */\n      pop\n      pop\n      pop\n        /* \"#utility.yul\":22397:23284   */\n    tag_464:\n      pop\n        /* \"#utility.yul\":21987:23290   */\n      pop\n      pop\n      pop\n        /* \"#utility.yul\":21895:23290   */\n      pop\n      pop\n      jump\t// out\n        /* \"#utility.yul\":23296:23461   */\n    tag_244:\n        /* \"#utility.yul\":23436:23453   */\n      0x5374616666206e6f7420666f756e640000000000000000000000000000000000\n        /* \"#utility.yul\":23432:23433   */\n      0x00\n        /* \"#utility.yul\":23424:23430   */\n      dup3\n        /* \"#utility.yul\":23420:23434   */\n      add\n        /* \"#utility.yul\":23413:23454   */\n      mstore\n        /* \"#utility.yul\":23296:23461   */\n      pop\n      jump\t// out\n        /* \"#utility.yul\":23467:23833   */\n    tag_245:\n        /* \"#utility.yul\":23609:23612   */\n      0x00\n        /* \"#utility.yul\":23630:23697   */\n      tag_476\n        /* \"#utility.yul\":23694:23696   */\n      0x0f\n        /* \"#utility.yul\":23689:23692   */\n      dup4\n        /* \"#utility.yul\":23630:23697   */\n      tag_188\n      jump\t// in\n    tag_476:\n        /* \"#utility.yul\":23623:23697   */\n      swap2\n      pop\n        /* \"#utility.yul\":23706:23799   */\n      tag_477\n        /* \"#utility.yul\":23795:23798   */\n      dup3\n        /* \"#utility.yul\":23706:23799   */\n      tag_244\n      jump\t// in\n    tag_477:\n        /* \"#utility.yul\":23824:23826   */\n      0x20\n        /* \"#utility.yul\":23819:23822   */\n      dup3\n        /* \"#utility.yul\":23815:23827   */\n      add\n        /* \"#utility.yul\":23808:23827   */\n      swap1\n      pop\n        /* \"#utility.yul\":23467:23833   */\n      swap2\n      swap1\n      pop\n      jump\t// out\n        /* \"#utility.yul\":23839:24258   */\n    tag_164:\n        /* \"#utility.yul\":24005:24009   */\n      0x00\n        /* \"#utility.yul\":24043:24045   */\n      0x20\n        /* \"#utility.yul\":24032:24041   */\n      dup3\n        /* \"#utility.yul\":24028:24046   */\n      add\n        /* \"#utility.yul\":24020:24046   */\n      swap1\n      pop\n        /* \"#utility.yul\":24092:24101   */\n      dup2\n        /* \"#utility.yul\":24086:24090   */\n      dup2\n        /* \"#utility.yul\":24082:24102   */\n      sub\n        /* \"#utility.yul\":24078:24079   */\n      0x00\n        /* \"#utility.yul\":24067:24076   */\n      dup4\n        /* \"#utility.yul\":24063:24080   */\n      add\n        /* \"#utility.yul\":24056:24103   */\n      mstore\n        /* \"#utility.yul\":24120:24251   */\n      tag_479\n        /* \"#utility.yul\":24246:24250   */\n      dup2\n        /* \"#utility.yul\":24120:24251   */\n      tag_245\n      jump\t// in\n    tag_479:\n        /* \"#utility.yul\":24112:24251   */\n      swap1\n      pop\n        /* \"#utility.yul\":23839:24258   */\n      swap2\n      swap1\n      pop\n      jump\t// out\n        /* \"#utility.yul\":24264:24443   */\n    tag_246:\n        /* \"#utility.yul\":24404:24435   */\n      0x53616c617279206d7573742062652067726561746572207468616e2030000000\n        /* \"#utility.yul\":24400:24401   */\n      0x00\n        /* \"#utility.yul\":24392:24398   */\n      dup3\n        /* \"#utility.yul\":24388:24402   */\n      add\n        /* \"#utility.yul\":24381:24436   */\n      mstore\n        /* \"#utility.yul\":24264:24443   */\n      pop\n      jump\t// out\n        /* \"#utility.yul\":24449:24815   */\n    tag_247:\n        /* \"#utility.yul\":24591:24594   */\n      0x00\n        /* \"#utility.yul\":24612:24679   */\n      tag_482\n        /* \"#utility.yul\":24676:24678   */\n      0x1d\n        /* \"#utility.yul\":24671:24674   */\n      dup4\n        /* \"#utility.yul\":24612:24679   */\n      tag_188\n      jump\t// in\n    tag_482:\n        /* \"#utility.yul\":24605:24679   */\n      swap2\n      pop\n        /* \"#utility.yul\":24688:24781   */\n      tag_483\n        /* \"#utility.yul\":24777:24780   */\n      dup3\n        /* \"#utility.yul\":24688:24781   */\n      tag_246\n      jump\t// in\n    tag_483:\n        /* \"#utility.yul\":24806:24808   */\n      0x20\n        /* \"#utility.yul\":24801:24804   */\n      dup3\n        /* \"#utility.yul\":24797:24809   */\n      add\n        /* \"#utility.yul\":24790:24809   */\n      swap1\n      pop\n        /* \"#utility.yul\":24449:24815   */\n      swap2\n      swap1\n      pop\n      jump\t// out\n        /* \"#utility.yul\":24821:25240   */\n    tag_167:\n        /* \"#utility.yul\":24987:24991   */\n      0x00\n        /* \"#utility.yul\":25025:25027   */\n      0x20\n        /* \"#utility.yul\":25014:25023   */\n      dup3\n        /* \"#utility.yul\":25010:25028   */\n      add\n        /* \"#utility.yul\":25002:25028   */\n      swap1\n      pop\n        /* \"#utility.yul\":25074:25083   */\n      dup2\n        /* \"#utility.yul\":25068:25072   */\n      dup2\n        /* \"#utility.yul\":25064:25084   */\n      sub\n        /* \"#utility.yul\":25060:25061   */\n      0x00\n        /* \"#utility.yul\":25049:25058   */\n      dup4\n        /* \"#utility.yul\":25045:25062   */\n      add\n        /* \"#utility.yul\":25038:25085   */\n      mstore\n        /* \"#utility.yul\":25102:25233   */\n      tag_485\n        /* \"#utility.yul\":25228:25232   */\n      dup2\n        /* \"#utility.yul\":25102:25233   */\n      tag_247\n      jump\t// in\n    tag_485:\n        /* \"#utility.yul\":25094:25233   */\n      swap1\n      pop\n        /* \"#utility.yul\":24821:25240   */\n      swap2\n      swap1\n      pop\n      jump\t// out\n\n    auxdata: 0xa2646970667358221220adff4523036852d2f1be029ca96b51ba6bf25e526314f42a0089054823f86e3b64736f6c634300081e0033\n}\n",
				"bytecode": {
					"linkReferences": {},
					"object": "6080604052348015600e575f5ffd5b50335f5f6101000a81548173ffffffffffffffffffffffffffffffffffffffff021916908373ffffffffffffffffffffffffffffffffffffffff160217905550611bcd8061005b5f395ff3fe6080604052600436106100c1575f3560e01c806373203ef11161007e5780638f44fc15116100585780638f44fc15146102705780639ecafb1f14610298578063e581f9ee146102b4578063f4def44b146102de576100c1565b806373203ef114610200578063839f52b81461021c5780638da5cb5b14610246576100c1565b806306ead22e146100c557806307b1f3851461010757806338dda849146101435780633ccfd60b1461016d578063498d470714610183578063642f9163146101c4575b5f5ffd5b3480156100d0575f5ffd5b506100eb60048036038101906100e69190610f76565b61031a565b6040516100fe97969594939291906110ad565b60405180910390f35b348015610112575f5ffd5b5061012d60048036038101906101289190611144565b610404565b60405161013a919061116f565b60405180910390f35b34801561014e575f5ffd5b50610157610533565b604051610164919061116f565b60405180910390f35b348015610178575f5ffd5b50610181610539565b005b34801561018e575f5ffd5b506101a960048036038101906101a49190610f76565b61062d565b6040516101bb96959493929190611188565b60405180910390f35b3480156101cf575f5ffd5b506101ea60048036038101906101e59190610f76565b610704565b6040516101f791906112fc565b60405180910390f35b61021a60048036038101906102159190611448565b6108ad565b005b348015610227575f5ffd5b50610230610a1b565b60405161023d919061116f565b60405180910390f35b348015610251575f5ffd5b5061025a610a24565b60405161026791906114e1565b60405180910390f35b34801561027b575f5ffd5b50610296600480360381019061029191906114fa565b610a48565b005b6102b260048036038101906102ad9190610f76565b610bab565b005b3480156102bf575f5ffd5b506102c8610d3d565b6040516102d5919061116f565b60405180910390f35b3480156102e9575f5ffd5b5061030460048036038101906102ff9190610f76565b610d43565b60405161031191906115c7565b60405180910390f35b6003602052805f5260405f205f91509050805f01549080600101805461033f90611614565b80601f016020809104026020016040519081016040528092919081815260200182805461036b90611614565b80156103b65780601f1061038d576101008083540402835291602001916103b6565b820191905f5260205f20905b81548152906001019060200180831161039957829003601f168201915b505050505090806002015f9054906101000a900460ff16908060020160019054906101000a900460ff16908060020160029054906101000a900460ff16908060030154908060040154905087565b5f5f600381111561041857610417611020565b5b82600381111561042b5761042a611020565b5b0361044057670de0b6b3a7640000905061052e565b6001600381111561045457610453611020565b5b82600381111561046757610466611020565b5b0361047c57671bc16d674ec80000905061052e565b600260038111156104905761048f611020565b5b8260038111156104a3576104a2611020565b5b036104b8576729a2241af62c0000905061052e565b6003808111156104cb576104ca611020565b5b8260038111156104de576104dd611020565b5b036104f357673782dace9d900000905061052e565b6040517f08c379a00000000000000000000000000000000000000000000000000000000081526004016105259061168e565b60405180910390fd5b919050565b60025481565b5f5f9054906101000a900473ffffffffffffffffffffffffffffffffffffffff1673ffffffffffffffffffffffffffffffffffffffff163373ffffffffffffffffffffffffffffffffffffffff16146105c7576040517f08c379a00000000000000000000000000000000000000000000000000000000081526004016105be906116f6565b60405180910390fd5b5f5f9054906101000a900473ffffffffffffffffffffffffffffffffffffffff1673ffffffffffffffffffffffffffffffffffffffff166108fc4790811502906040515f60405180830381858888f1935050505015801561062a573d5f5f3e3d5ffd5b50565b6004602052805f5260405f205f91509050805f01549080600101805461065290611614565b80601f016020809104026020016040519081016040528092919081815260200182805461067e90611614565b80156106c95780601f106106a0576101008083540402835291602001916106c9565b820191905f5260205f20905b8154815290600101906020018083116106ac57829003601f168201915b505050505090806002015f9054906101000a900460ff16908060020160019054906101000a900460ff16908060030154908060040154905086565b61070c610eb0565b60035f8381526020019081526020015f2060020160019054906101000a900460ff1661076d576040517f08c379a00000000000000000000000000000000000000000000000000000000081526004016107649061175e565b60405180910390fd5b60035f8381526020019081526020015f206040518060e00160405290815f82015481526020016001820180546107a290611614565b80601f01602080910402602001604051908101604052809291908181526020018280546107ce90611614565b80156108195780601f106107f057610100808354040283529160200191610819565b820191905f5260205f20905b8154815290600101906020018083116107fc57829003601f168201915b50505050508152602001600282015f9054906101000a900460ff16600381111561084657610845611020565b5b600381111561085857610857611020565b5b81526020016002820160019054906101000a900460ff161515151581526020016002820160029054906101000a900460ff16151515158152602001600382015481526020016004820154815250509050919050565b5f6108b782610404565b90508034146108fb576040517f08c379a00000000000000000000000000000000000000000000000000000000081526004016108f2906117c6565b60405180910390fd5b60015f81548092919061090d90611811565b91905055506040518060e00160405280600154815260200184815260200183600381111561093e5761093d611020565b5b81526020016001151581526020016001151581526020013481526020014281525060035f60015481526020019081526020015f205f820151815f0155602082015181600101908161098f91906119f8565b506040820151816002015f6101000a81548160ff021916908360038111156109ba576109b9611020565b5b021790555060608201518160020160016101000a81548160ff02191690831515021790555060808201518160020160026101000a81548160ff02191690831515021790555060a0820151816003015560c08201518160040155905050505050565b5f600154905090565b5f5f9054906101000a900473ffffffffffffffffffffffffffffffffffffffff1681565b5f5f9054906101000a900473ffffffffffffffffffffffffffffffffffffffff1673ffffffffffffffffffffffffffffffffffffffff163373ffffffffffffffffffffffffffffffffffffffff1614610ad6576040517f08c379a0000000000000000000000000000000000000000000000000000000008152600401610acd906116f6565b60405180910390fd5b60025f815480929190610ae890611811565b91905055506040518060c0016040528060025481526020018281526020016001151581526020015f151581526020015f81526020015f81525060045f60025481526020019081526020015f205f820151815f01556020820151816001019081610b5191906119f8565b506040820151816002015f6101000a81548160ff02191690831515021790555060608201518160020160016101000a81548160ff0219169083151502179055506080820151816003015560a0820151816004015590505050565b5f5f9054906101000a900473ffffffffffffffffffffffffffffffffffffffff1673ffffffffffffffffffffffffffffffffffffffff163373ffffffffffffffffffffffffffffffffffffffff1614610c39576040517f08c379a0000000000000000000000000000000000000000000000000000000008152600401610c30906116f6565b60405180910390fd5b60045f8281526020019081526020015f206002015f9054906101000a900460ff16610c99576040517f08c379a0000000000000000000000000000000000000000000000000000000008152600401610c9090611b11565b60405180910390fd5b5f3411610cdb576040517f08c379a0000000000000000000000000000000000000000000000000000000008152600401610cd290611b79565b60405180910390fd5b600160045f8381526020019081526020015f2060020160016101000a81548160ff0219169083151502179055503460045f8381526020019081526020015f20600301819055504260045f8381526020019081526020015f206004018190555050565b60015481565b610d4b610efd565b60045f8381526020019081526020015f206002015f9054906101000a900460ff16610dab576040517f08c379a0000000000000000000000000000000000000000000000000000000008152600401610da290611b11565b60405180910390fd5b60045f8381526020019081526020015f206040518060c00160405290815f8201548152602001600182018054610de090611614565b80601f0160208091040260200160405190810160405280929190818152602001828054610e0c90611614565b8015610e575780601f10610e2e57610100808354040283529160200191610e57565b820191905f5260205f20905b815481529060010190602001808311610e3a57829003601f168201915b50505050508152602001600282015f9054906101000a900460ff161515151581526020016002820160019054906101000a900460ff16151515158152602001600382015481526020016004820154815250509050919050565b6040518060e001604052805f8152602001606081526020015f6003811115610edb57610eda611020565b5b81526020015f151581526020015f151581526020015f81526020015f81525090565b6040518060c001604052805f8152602001606081526020015f151581526020015f151581526020015f81526020015f81525090565b5f604051905090565b5f5ffd5b5f5ffd5b5f819050919050565b610f5581610f43565b8114610f5f575f5ffd5b50565b5f81359050610f7081610f4c565b92915050565b5f60208284031215610f8b57610f8a610f3b565b5b5f610f9884828501610f62565b91505092915050565b610faa81610f43565b82525050565b5f81519050919050565b5f82825260208201905092915050565b8281835e5f83830152505050565b5f601f19601f8301169050919050565b5f610ff282610fb0565b610ffc8185610fba565b935061100c818560208601610fca565b61101581610fd8565b840191505092915050565b7f4e487b71000000000000000000000000000000000000000000000000000000005f52602160045260245ffd5b6004811061105e5761105d611020565b5b50565b5f81905061106e8261104d565b919050565b5f61107d82611061565b9050919050565b61108d81611073565b82525050565b5f8115159050919050565b6110a781611093565b82525050565b5f60e0820190506110c05f83018a610fa1565b81810360208301526110d28189610fe8565b90506110e16040830188611084565b6110ee606083018761109e565b6110fb608083018661109e565b61110860a0830185610fa1565b61111560c0830184610fa1565b98975050505050505050565b6004811061112d575f5ffd5b50565b5f8135905061113e81611121565b92915050565b5f6020828403121561115957611158610f3b565b5b5f61116684828501611130565b91505092915050565b5f6020820190506111825f830184610fa1565b92915050565b5f60c08201905061119b5f830189610fa1565b81810360208301526111ad8188610fe8565b90506111bc604083018761109e565b6111c9606083018661109e565b6111d66080830185610fa1565b6111e360a0830184610fa1565b979650505050505050565b6111f781610f43565b82525050565b5f82825260208201905092915050565b5f61121782610fb0565b61122181856111fd565b9350611231818560208601610fca565b61123a81610fd8565b840191505092915050565b61124e81611073565b82525050565b61125d81611093565b82525050565b5f60e083015f8301516112785f8601826111ee565b5060208301518482036020860152611290828261120d565b91505060408301516112a56040860182611245565b5060608301516112b86060860182611254565b5060808301516112cb6080860182611254565b5060a08301516112de60a08601826111ee565b5060c08301516112f160c08601826111ee565b508091505092915050565b5f6020820190508181035f8301526113148184611263565b905092915050565b5f5ffd5b5f5ffd5b7f4e487b71000000000000000000000000000000000000000000000000000000005f52604160045260245ffd5b61135a82610fd8565b810181811067ffffffffffffffff8211171561137957611378611324565b5b80604052505050565b5f61138b610f32565b90506113978282611351565b919050565b5f67ffffffffffffffff8211156113b6576113b5611324565b5b6113bf82610fd8565b9050602081019050919050565b828183375f83830152505050565b5f6113ec6113e78461139c565b611382565b90508281526020810184848401111561140857611407611320565b5b6114138482856113cc565b509392505050565b5f82601f83011261142f5761142e61131c565b5b813561143f8482602086016113da565b91505092915050565b5f5f6040838503121561145e5761145d610f3b565b5b5f83013567ffffffffffffffff81111561147b5761147a610f3f565b5b6114878582860161141b565b925050602061149885828601611130565b9150509250929050565b5f73ffffffffffffffffffffffffffffffffffffffff82169050919050565b5f6114cb826114a2565b9050919050565b6114db816114c1565b82525050565b5f6020820190506114f45f8301846114d2565b92915050565b5f6020828403121561150f5761150e610f3b565b5b5f82013567ffffffffffffffff81111561152c5761152b610f3f565b5b6115388482850161141b565b91505092915050565b5f60c083015f8301516115565f8601826111ee565b506020830151848203602086015261156e828261120d565b91505060408301516115836040860182611254565b5060608301516115966060860182611254565b5060808301516115a960808601826111ee565b5060a08301516115bc60a08601826111ee565b508091505092915050565b5f6020820190508181035f8301526115df8184611541565b905092915050565b7f4e487b71000000000000000000000000000000000000000000000000000000005f52602260045260245ffd5b5f600282049050600182168061162b57607f821691505b60208210810361163e5761163d6115e7565b5b50919050565b7f496e76616c6964206c6576656c000000000000000000000000000000000000005f82015250565b5f611678600d83610fba565b915061168382611644565b602082019050919050565b5f6020820190508181035f8301526116a58161166c565b9050919050565b7f4e6f7420617574686f72697a65640000000000000000000000000000000000005f82015250565b5f6116e0600e83610fba565b91506116eb826116ac565b602082019050919050565b5f6020820190508181035f83015261170d816116d4565b9050919050565b7f53747564656e74206e6f7420666f756e640000000000000000000000000000005f82015250565b5f611748601183610fba565b915061175382611714565b602082019050919050565b5f6020820190508181035f8301526117758161173c565b9050919050565b7f496e636f72726563742066656520616d6f756e740000000000000000000000005f82015250565b5f6117b0601483610fba565b91506117bb8261177c565b602082019050919050565b5f6020820190508181035f8301526117dd816117a4565b9050919050565b7f4e487b71000000000000000000000000000000000000000000000000000000005f52601160045260245ffd5b5f61181b82610f43565b91507fffffffffffffffffffffffffffffffffffffffffffffffffffffffffffffffff820361184d5761184c6117e4565b5b600182019050919050565b5f819050815f5260205f209050919050565b5f6020601f8301049050919050565b5f82821b905092915050565b5f600883026118b47fffffffffffffffffffffffffffffffffffffffffffffffffffffffffffffffff82611879565b6118be8683611879565b95508019841693508086168417925050509392505050565b5f819050919050565b5f6118f96118f46118ef84610f43565b6118d6565b610f43565b9050919050565b5f819050919050565b611912836118df565b61192661191e82611900565b848454611885565b825550505050565b5f5f905090565b61193d61192e565b611948818484611909565b505050565b5b8181101561196b576119605f82611935565b60018101905061194e565b5050565b601f8211156119b05761198181611858565b61198a8461186a565b81016020851015611999578190505b6119ad6119a58561186a565b83018261194d565b50505b505050565b5f82821c905092915050565b5f6119d05f19846008026119b5565b1980831691505092915050565b5f6119e883836119c1565b9150826002028217905092915050565b611a0182610fb0565b67ffffffffffffffff811115611a1a57611a19611324565b5b611a248254611614565b611a2f82828561196f565b5f60209050601f831160018114611a60575f8415611a4e578287015190505b611a5885826119dd565b865550611abf565b601f198416611a6e86611858565b5f5b82811015611a9557848901518255600182019150602085019450602081019050611a70565b86831015611ab25784890151611aae601f8916826119c1565b8355505b6001600288020188555050505b505050505050565b7f5374616666206e6f7420666f756e6400000000000000000000000000000000005f82015250565b5f611afb600f83610fba565b9150611b0682611ac7565b602082019050919050565b5f6020820190508181035f830152611b2881611aef565b9050919050565b7f53616c617279206d7573742062652067726561746572207468616e20300000005f82015250565b5f611b63601d83610fba565b9150611b6e82611b2f565b602082019050919050565b5f6020820190508181035f830152611b9081611b57565b905091905056fea2646970667358221220adff4523036852d2f1be029ca96b51ba6bf25e526314f42a0089054823f86e3b64736f6c634300081e0033",
					"opcodes": "PUSH1 0x80 PUSH1 0x40 MSTORE CALLVALUE DUP1 ISZERO PUSH1 0xE JUMPI PUSH0 PUSH0 REVERT JUMPDEST POP CALLER PUSH0 PUSH0 PUSH2 0x100 EXP DUP2 SLOAD DUP2 PUSH20 0xFFFFFFFFFFFFFFFFFFFFFFFFFFFFFFFFFFFFFFFF MUL NOT AND SWAP1 DUP4 PUSH20 0xFFFFFFFFFFFFFFFFFFFFFFFFFFFFFFFFFFFFFFFF AND MUL OR SWAP1 SSTORE POP PUSH2 0x1BCD DUP1 PUSH2 0x5B PUSH0 CODECOPY PUSH0 RETURN INVALID PUSH1 0x80 PUSH1 0x40 MSTORE PUSH1 0x4 CALLDATASIZE LT PUSH2 0xC1 JUMPI PUSH0 CALLDATALOAD PUSH1 0xE0 SHR DUP1 PUSH4 0x73203EF1 GT PUSH2 0x7E JUMPI DUP1 PUSH4 0x8F44FC15 GT PUSH2 0x58 JUMPI DUP1 PUSH4 0x8F44FC15 EQ PUSH2 0x270 JUMPI DUP1 PUSH4 0x9ECAFB1F EQ PUSH2 0x298 JUMPI DUP1 PUSH4 0xE581F9EE EQ PUSH2 0x2B4 JUMPI DUP1 PUSH4 0xF4DEF44B EQ PUSH2 0x2DE JUMPI PUSH2 0xC1 JUMP JUMPDEST DUP1 PUSH4 0x73203EF1 EQ PUSH2 0x200 JUMPI DUP1 PUSH4 0x839F52B8 EQ PUSH2 0x21C JUMPI DUP1 PUSH4 0x8DA5CB5B EQ PUSH2 0x246 JUMPI PUSH2 0xC1 JUMP JUMPDEST DUP1 PUSH4 0x6EAD22E EQ PUSH2 0xC5 JUMPI DUP1 PUSH4 0x7B1F385 EQ PUSH2 0x107 JUMPI DUP1 PUSH4 0x38DDA849 EQ PUSH2 0x143 JUMPI DUP1 PUSH4 0x3CCFD60B EQ PUSH2 0x16D JUMPI DUP1 PUSH4 0x498D4707 EQ PUSH2 0x183 JUMPI DUP1 PUSH4 0x642F9163 EQ PUSH2 0x1C4 JUMPI JUMPDEST PUSH0 PUSH0 REVERT JUMPDEST CALLVALUE DUP1 ISZERO PUSH2 0xD0 JUMPI PUSH0 PUSH0 REVERT JUMPDEST POP PUSH2 0xEB PUSH1 0x4 DUP1 CALLDATASIZE SUB DUP2 ADD SWAP1 PUSH2 0xE6 SWAP2 SWAP1 PUSH2 0xF76 JUMP JUMPDEST PUSH2 0x31A JUMP JUMPDEST PUSH1 0x40 MLOAD PUSH2 0xFE SWAP8 SWAP7 SWAP6 SWAP5 SWAP4 SWAP3 SWAP2 SWAP1 PUSH2 0x10AD JUMP JUMPDEST PUSH1 0x40 MLOAD DUP1 SWAP2 SUB SWAP1 RETURN JUMPDEST CALLVALUE DUP1 ISZERO PUSH2 0x112 JUMPI PUSH0 PUSH0 REVERT JUMPDEST POP PUSH2 0x12D PUSH1 0x4 DUP1 CALLDATASIZE SUB DUP2 ADD SWAP1 PUSH2 0x128 SWAP2 SWAP1 PUSH2 0x1144 JUMP JUMPDEST PUSH2 0x404 JUMP JUMPDEST PUSH1 0x40 MLOAD PUSH2 0x13A SWAP2 SWAP1 PUSH2 0x116F JUMP JUMPDEST PUSH1 0x40 MLOAD DUP1 SWAP2 SUB SWAP1 RETURN JUMPDEST CALLVALUE DUP1 ISZERO PUSH2 0x14E JUMPI PUSH0 PUSH0 REVERT JUMPDEST POP PUSH2 0x157 PUSH2 0x533 JUMP JUMPDEST PUSH1 0x40 MLOAD PUSH2 0x164 SWAP2 SWAP1 PUSH2 0x116F JUMP JUMPDEST PUSH1 0x40 MLOAD DUP1 SWAP2 SUB SWAP1 RETURN JUMPDEST CALLVALUE DUP1 ISZERO PUSH2 0x178 JUMPI PUSH0 PUSH0 REVERT JUMPDEST POP PUSH2 0x181 PUSH2 0x539 JUMP JUMPDEST STOP JUMPDEST CALLVALUE DUP1 ISZERO PUSH2 0x18E JUMPI PUSH0 PUSH0 REVERT JUMPDEST POP PUSH2 0x1A9 PUSH1 0x4 DUP1 CALLDATASIZE SUB DUP2 ADD SWAP1 PUSH2 0x1A4 SWAP2 SWAP1 PUSH2 0xF76 JUMP JUMPDEST PUSH2 0x62D JUMP JUMPDEST PUSH1 0x40 MLOAD PUSH2 0x1BB SWAP7 SWAP6 SWAP5 SWAP4 SWAP3 SWAP2 SWAP1 PUSH2 0x1188 JUMP JUMPDEST PUSH1 0x40 MLOAD DUP1 SWAP2 SUB SWAP1 RETURN JUMPDEST CALLVALUE DUP1 ISZERO PUSH2 0x1CF JUMPI PUSH0 PUSH0 REVERT JUMPDEST POP PUSH2 0x1EA PUSH1 0x4 DUP1 CALLDATASIZE SUB DUP2 ADD SWAP1 PUSH2 0x1E5 SWAP2 SWAP1 PUSH2 0xF76 JUMP JUMPDEST PUSH2 0x704 JUMP JUMPDEST PUSH1 0x40 MLOAD PUSH2 0x1F7 SWAP2 SWAP1 PUSH2 0x12FC JUMP JUMPDEST PUSH1 0x40 MLOAD DUP1 SWAP2 SUB SWAP1 RETURN JUMPDEST PUSH2 0x21A PUSH1 0x4 DUP1 CALLDATASIZE SUB DUP2 ADD SWAP1 PUSH2 0x215 SWAP2 SWAP1 PUSH2 0x1448 JUMP JUMPDEST PUSH2 0x8AD JUMP JUMPDEST STOP JUMPDEST CALLVALUE DUP1 ISZERO PUSH2 0x227 JUMPI PUSH0 PUSH0 REVERT JUMPDEST POP PUSH2 0x230 PUSH2 0xA1B JUMP JUMPDEST PUSH1 0x40 MLOAD PUSH2 0x23D SWAP2 SWAP1 PUSH2 0x116F JUMP JUMPDEST PUSH1 0x40 MLOAD DUP1 SWAP2 SUB SWAP1 RETURN JUMPDEST CALLVALUE DUP1 ISZERO PUSH2 0x251 JUMPI PUSH0 PUSH0 REVERT JUMPDEST POP PUSH2 0x25A PUSH2 0xA24 JUMP JUMPDEST PUSH1 0x40 MLOAD PUSH2 0x267 SWAP2 SWAP1 PUSH2 0x14E1 JUMP JUMPDEST PUSH1 0x40 MLOAD DUP1 SWAP2 SUB SWAP1 RETURN JUMPDEST CALLVALUE DUP1 ISZERO PUSH2 0x27B JUMPI PUSH0 PUSH0 REVERT JUMPDEST POP PUSH2 0x296 PUSH1 0x4 DUP1 CALLDATASIZE SUB DUP2 ADD SWAP1 PUSH2 0x291 SWAP2 SWAP1 PUSH2 0x14FA JUMP JUMPDEST PUSH2 0xA48 JUMP JUMPDEST STOP JUMPDEST PUSH2 0x2B2 PUSH1 0x4 DUP1 CALLDATASIZE SUB DUP2 ADD SWAP1 PUSH2 0x2AD SWAP2 SWAP1 PUSH2 0xF76 JUMP JUMPDEST PUSH2 0xBAB JUMP JUMPDEST STOP JUMPDEST CALLVALUE DUP1 ISZERO PUSH2 0x2BF JUMPI PUSH0 PUSH0 REVERT JUMPDEST POP PUSH2 0x2C8 PUSH2 0xD3D JUMP JUMPDEST PUSH1 0x40 MLOAD PUSH2 0x2D5 SWAP2 SWAP1 PUSH2 0x116F JUMP JUMPDEST PUSH1 0x40 MLOAD DUP1 SWAP2 SUB SWAP1 RETURN JUMPDEST CALLVALUE DUP1 ISZERO PUSH2 0x2E9 JUMPI PUSH0 PUSH0 REVERT JUMPDEST POP PUSH2 0x304 PUSH1 0x4 DUP1 CALLDATASIZE SUB DUP2 ADD SWAP1 PUSH2 0x2FF SWAP2 SWAP1 PUSH2 0xF76 JUMP JUMPDEST PUSH2 0xD43 JUMP JUMPDEST PUSH1 0x40 MLOAD PUSH2 0x311 SWAP2 SWAP1 PUSH2 0x15C7 JUMP JUMPDEST PUSH1 0x40 MLOAD DUP1 SWAP2 SUB SWAP1 RETURN JUMPDEST PUSH1 0x3 PUSH1 0x20 MSTORE DUP1 PUSH0 MSTORE PUSH1 0x40 PUSH0 KECCAK256 PUSH0 SWAP2 POP SWAP1 POP DUP1 PUSH0 ADD SLOAD SWAP1 DUP1 PUSH1 0x1 ADD DUP1 SLOAD PUSH2 0x33F SWAP1 PUSH2 0x1614 JUMP JUMPDEST DUP1 PUSH1 0x1F ADD PUSH1 0x20 DUP1 SWAP2 DIV MUL PUSH1 0x20 ADD PUSH1 0x40 MLOAD SWAP1 DUP2 ADD PUSH1 0x40 MSTORE DUP1 SWAP3 SWAP2 SWAP1 DUP2 DUP2 MSTORE PUSH1 0x20 ADD DUP3 DUP1 SLOAD PUSH2 0x36B SWAP1 PUSH2 0x1614 JUMP JUMPDEST DUP1 ISZERO PUSH2 0x3B6 JUMPI DUP1 PUSH1 0x1F LT PUSH2 0x38D JUMPI PUSH2 0x100 DUP1 DUP4 SLOAD DIV MUL DUP4 MSTORE SWAP2 PUSH1 0x20 ADD SWAP2 PUSH2 0x3B6 JUMP JUMPDEST DUP3 ADD SWAP2 SWAP1 PUSH0 MSTORE PUSH1 0x20 PUSH0 KECCAK256 SWAP1 JUMPDEST DUP2 SLOAD DUP2 MSTORE SWAP1 PUSH1 0x1 ADD SWAP1 PUSH1 0x20 ADD DUP1 DUP4 GT PUSH2 0x399 JUMPI DUP3 SWAP1 SUB PUSH1 0x1F AND DUP3 ADD SWAP2 JUMPDEST POP POP POP POP POP SWAP1 DUP1 PUSH1 0x2 ADD PUSH0 SWAP1 SLOAD SWAP1 PUSH2 0x100 EXP SWAP1 DIV PUSH1 0xFF AND SWAP1 DUP1 PUSH1 0x2 ADD PUSH1 0x1 SWAP1 SLOAD SWAP1 PUSH2 0x100 EXP SWAP1 DIV PUSH1 0xFF AND SWAP1 DUP1 PUSH1 0x2 ADD PUSH1 0x2 SWAP1 SLOAD SWAP1 PUSH2 0x100 EXP SWAP1 DIV PUSH1 0xFF AND SWAP1 DUP1 PUSH1 0x3 ADD SLOAD SWAP1 DUP1 PUSH1 0x4 ADD SLOAD SWAP1 POP DUP8 JUMP JUMPDEST PUSH0 PUSH0 PUSH1 0x3 DUP2 GT ISZERO PUSH2 0x418 JUMPI PUSH2 0x417 PUSH2 0x1020 JUMP JUMPDEST JUMPDEST DUP3 PUSH1 0x3 DUP2 GT ISZERO PUSH2 0x42B JUMPI PUSH2 0x42A PUSH2 0x1020 JUMP JUMPDEST JUMPDEST SUB PUSH2 0x440 JUMPI PUSH8 0xDE0B6B3A7640000 SWAP1 POP PUSH2 0x52E JUMP JUMPDEST PUSH1 0x1 PUSH1 0x3 DUP2 GT ISZERO PUSH2 0x454 JUMPI PUSH2 0x453 PUSH2 0x1020 JUMP JUMPDEST JUMPDEST DUP3 PUSH1 0x3 DUP2 GT ISZERO PUSH2 0x467 JUMPI PUSH2 0x466 PUSH2 0x1020 JUMP JUMPDEST JUMPDEST SUB PUSH2 0x47C JUMPI PUSH8 0x1BC16D674EC80000 SWAP1 POP PUSH2 0x52E JUMP JUMPDEST PUSH1 0x2 PUSH1 0x3 DUP2 GT ISZERO PUSH2 0x490 JUMPI PUSH2 0x48F PUSH2 0x1020 JUMP JUMPDEST JUMPDEST DUP3 PUSH1 0x3 DUP2 GT ISZERO PUSH2 0x4A3 JUMPI PUSH2 0x4A2 PUSH2 0x1020 JUMP JUMPDEST JUMPDEST SUB PUSH2 0x4B8 JUMPI PUSH8 0x29A2241AF62C0000 SWAP1 POP PUSH2 0x52E JUMP JUMPDEST PUSH1 0x3 DUP1 DUP2 GT ISZERO PUSH2 0x4CB JUMPI PUSH2 0x4CA PUSH2 0x1020 JUMP JUMPDEST JUMPDEST DUP3 PUSH1 0x3 DUP2 GT ISZERO PUSH2 0x4DE JUMPI PUSH2 0x4DD PUSH2 0x1020 JUMP JUMPDEST JUMPDEST SUB PUSH2 0x4F3 JUMPI PUSH8 0x3782DACE9D900000 SWAP1 POP PUSH2 0x52E JUMP JUMPDEST PUSH1 0x40 MLOAD PUSH32 0x8C379A000000000000000000000000000000000000000000000000000000000 DUP2 MSTORE PUSH1 0x4 ADD PUSH2 0x525 SWAP1 PUSH2 0x168E JUMP JUMPDEST PUSH1 0x40 MLOAD DUP1 SWAP2 SUB SWAP1 REVERT JUMPDEST SWAP2 SWAP1 POP JUMP JUMPDEST PUSH1 0x2 SLOAD DUP2 JUMP JUMPDEST PUSH0 PUSH0 SWAP1 SLOAD SWAP1 PUSH2 0x100 EXP SWAP1 DIV PUSH20 0xFFFFFFFFFFFFFFFFFFFFFFFFFFFFFFFFFFFFFFFF AND PUSH20 0xFFFFFFFFFFFFFFFFFFFFFFFFFFFFFFFFFFFFFFFF AND CALLER PUSH20 0xFFFFFFFFFFFFFFFFFFFFFFFFFFFFFFFFFFFFFFFF AND EQ PUSH2 0x5C7 JUMPI PUSH1 0x40 MLOAD PUSH32 0x8C379A000000000000000000000000000000000000000000000000000000000 DUP2 MSTORE PUSH1 0x4 ADD PUSH2 0x5BE SWAP1 PUSH2 0x16F6 JUMP JUMPDEST PUSH1 0x40 MLOAD DUP1 SWAP2 SUB SWAP1 REVERT JUMPDEST PUSH0 PUSH0 SWAP1 SLOAD SWAP1 PUSH2 0x100 EXP SWAP1 DIV PUSH20 0xFFFFFFFFFFFFFFFFFFFFFFFFFFFFFFFFFFFFFFFF AND PUSH20 0xFFFFFFFFFFFFFFFFFFFFFFFFFFFFFFFFFFFFFFFF AND PUSH2 0x8FC SELFBALANCE SWAP1 DUP2 ISZERO MUL SWAP1 PUSH1 0x40 MLOAD PUSH0 PUSH1 0x40 MLOAD DUP1 DUP4 SUB DUP2 DUP6 DUP9 DUP9 CALL SWAP4 POP POP POP POP ISZERO DUP1 ISZERO PUSH2 0x62A JUMPI RETURNDATASIZE PUSH0 PUSH0 RETURNDATACOPY RETURNDATASIZE PUSH0 REVERT JUMPDEST POP JUMP JUMPDEST PUSH1 0x4 PUSH1 0x20 MSTORE DUP1 PUSH0 MSTORE PUSH1 0x40 PUSH0 KECCAK256 PUSH0 SWAP2 POP SWAP1 POP DUP1 PUSH0 ADD SLOAD SWAP1 DUP1 PUSH1 0x1 ADD DUP1 SLOAD PUSH2 0x652 SWAP1 PUSH2 0x1614 JUMP JUMPDEST DUP1 PUSH1 0x1F ADD PUSH1 0x20 DUP1 SWAP2 DIV MUL PUSH1 0x20 ADD PUSH1 0x40 MLOAD SWAP1 DUP2 ADD PUSH1 0x40 MSTORE DUP1 SWAP3 SWAP2 SWAP1 DUP2 DUP2 MSTORE PUSH1 0x20 ADD DUP3 DUP1 SLOAD PUSH2 0x67E SWAP1 PUSH2 0x1614 JUMP JUMPDEST DUP1 ISZERO PUSH2 0x6C9 JUMPI DUP1 PUSH1 0x1F LT PUSH2 0x6A0 JUMPI PUSH2 0x100 DUP1 DUP4 SLOAD DIV MUL DUP4 MSTORE SWAP2 PUSH1 0x20 ADD SWAP2 PUSH2 0x6C9 JUMP JUMPDEST DUP3 ADD SWAP2 SWAP1 PUSH0 MSTORE PUSH1 0x20 PUSH0 KECCAK256 SWAP1 JUMPDEST DUP2 SLOAD DUP2 MSTORE SWAP1 PUSH1 0x1 ADD SWAP1 PUSH1 0x20 ADD DUP1 DUP4 GT PUSH2 0x6AC JUMPI DUP3 SWAP1 SUB PUSH1 0x1F AND DUP3 ADD SWAP2 JUMPDEST POP POP POP POP POP SWAP1 DUP1 PUSH1 0x2 ADD PUSH0 SWAP1 SLOAD SWAP1 PUSH2 0x100 EXP SWAP1 DIV PUSH1 0xFF AND SWAP1 DUP1 PUSH1 0x2 ADD PUSH1 0x1 SWAP1 SLOAD SWAP1 PUSH2 0x100 EXP SWAP1 DIV PUSH1 0xFF AND SWAP1 DUP1 PUSH1 0x3 ADD SLOAD SWAP1 DUP1 PUSH1 0x4 ADD SLOAD SWAP1 POP DUP7 JUMP JUMPDEST PUSH2 0x70C PUSH2 0xEB0 JUMP JUMPDEST PUSH1 0x3 PUSH0 DUP4 DUP2 MSTORE PUSH1 0x20 ADD SWAP1 DUP2 MSTORE PUSH1 0x20 ADD PUSH0 KECCAK256 PUSH1 0x2 ADD PUSH1 0x1 SWAP1 SLOAD SWAP1 PUSH2 0x100 EXP SWAP1 DIV PUSH1 0xFF AND PUSH2 0x76D JUMPI PUSH1 0x40 MLOAD PUSH32 0x8C379A000000000000000000000000000000000000000000000000000000000 DUP2 MSTORE PUSH1 0x4 ADD PUSH2 0x764 SWAP1 PUSH2 0x175E JUMP JUMPDEST PUSH1 0x40 MLOAD DUP1 SWAP2 SUB SWAP1 REVERT JUMPDEST PUSH1 0x3 PUSH0 DUP4 DUP2 MSTORE PUSH1 0x20 ADD SWAP1 DUP2 MSTORE PUSH1 0x20 ADD PUSH0 KECCAK256 PUSH1 0x40 MLOAD DUP1 PUSH1 0xE0 ADD PUSH1 0x40 MSTORE SWAP1 DUP2 PUSH0 DUP3 ADD SLOAD DUP2 MSTORE PUSH1 0x20 ADD PUSH1 0x1 DUP3 ADD DUP1 SLOAD PUSH2 0x7A2 SWAP1 PUSH2 0x1614 JUMP JUMPDEST DUP1 PUSH1 0x1F ADD PUSH1 0x20 DUP1 SWAP2 DIV MUL PUSH1 0x20 ADD PUSH1 0x40 MLOAD SWAP1 DUP2 ADD PUSH1 0x40 MSTORE DUP1 SWAP3 SWAP2 SWAP1 DUP2 DUP2 MSTORE PUSH1 0x20 ADD DUP3 DUP1 SLOAD PUSH2 0x7CE SWAP1 PUSH2 0x1614 JUMP JUMPDEST DUP1 ISZERO PUSH2 0x819 JUMPI DUP1 PUSH1 0x1F LT PUSH2 0x7F0 JUMPI PUSH2 0x100 DUP1 DUP4 SLOAD DIV MUL DUP4 MSTORE SWAP2 PUSH1 0x20 ADD SWAP2 PUSH2 0x819 JUMP JUMPDEST DUP3 ADD SWAP2 SWAP1 PUSH0 MSTORE PUSH1 0x20 PUSH0 KECCAK256 SWAP1 JUMPDEST DUP2 SLOAD DUP2 MSTORE SWAP1 PUSH1 0x1 ADD SWAP1 PUSH1 0x20 ADD DUP1 DUP4 GT PUSH2 0x7FC JUMPI DUP3 SWAP1 SUB PUSH1 0x1F AND DUP3 ADD SWAP2 JUMPDEST POP POP POP POP POP DUP2 MSTORE PUSH1 0x20 ADD PUSH1 0x2 DUP3 ADD PUSH0 SWAP1 SLOAD SWAP1 PUSH2 0x100 EXP SWAP1 DIV PUSH1 0xFF AND PUSH1 0x3 DUP2 GT ISZERO PUSH2 0x846 JUMPI PUSH2 0x845 PUSH2 0x1020 JUMP JUMPDEST JUMPDEST PUSH1 0x3 DUP2 GT ISZERO PUSH2 0x858 JUMPI PUSH2 0x857 PUSH2 0x1020 JUMP JUMPDEST JUMPDEST DUP2 MSTORE PUSH1 0x20 ADD PUSH1 0x2 DUP3 ADD PUSH1 0x1 SWAP1 SLOAD SWAP1 PUSH2 0x100 EXP SWAP1 DIV PUSH1 0xFF AND ISZERO ISZERO ISZERO ISZERO DUP2 MSTORE PUSH1 0x20 ADD PUSH1 0x2 DUP3 ADD PUSH1 0x2 SWAP1 SLOAD SWAP1 PUSH2 0x100 EXP SWAP1 DIV PUSH1 0xFF AND ISZERO ISZERO ISZERO ISZERO DUP2 MSTORE PUSH1 0x20 ADD PUSH1 0x3 DUP3 ADD SLOAD DUP2 MSTORE PUSH1 0x20 ADD PUSH1 0x4 DUP3 ADD SLOAD DUP2 MSTORE POP POP SWAP1 POP SWAP2 SWAP1 POP JUMP JUMPDEST PUSH0 PUSH2 0x8B7 DUP3 PUSH2 0x404 JUMP JUMPDEST SWAP1 POP DUP1 CALLVALUE EQ PUSH2 0x8FB JUMPI PUSH1 0x40 MLOAD PUSH32 0x8C379A000000000000000000000000000000000000000000000000000000000 DUP2 MSTORE PUSH1 0x4 ADD PUSH2 0x8F2 SWAP1 PUSH2 0x17C6 JUMP JUMPDEST PUSH1 0x40 MLOAD DUP1 SWAP2 SUB SWAP1 REVERT JUMPDEST PUSH1 0x1 PUSH0 DUP2 SLOAD DUP1 SWAP3 SWAP2 SWAP1 PUSH2 0x90D SWAP1 PUSH2 0x1811 JUMP JUMPDEST SWAP2 SWAP1 POP SSTORE POP PUSH1 0x40 MLOAD DUP1 PUSH1 0xE0 ADD PUSH1 0x40 MSTORE DUP1 PUSH1 0x1 SLOAD DUP2 MSTORE PUSH1 0x20 ADD DUP5 DUP2 MSTORE PUSH1 0x20 ADD DUP4 PUSH1 0x3 DUP2 GT ISZERO PUSH2 0x93E JUMPI PUSH2 0x93D PUSH2 0x1020 JUMP JUMPDEST JUMPDEST DUP2 MSTORE PUSH1 0x20 ADD PUSH1 0x1 ISZERO ISZERO DUP2 MSTORE PUSH1 0x20 ADD PUSH1 0x1 ISZERO ISZERO DUP2 MSTORE PUSH1 0x20 ADD CALLVALUE DUP2 MSTORE PUSH1 0x20 ADD TIMESTAMP DUP2 MSTORE POP PUSH1 0x3 PUSH0 PUSH1 0x1 SLOAD DUP2 MSTORE PUSH1 0x20 ADD SWAP1 DUP2 MSTORE PUSH1 0x20 ADD PUSH0 KECCAK256 PUSH0 DUP3 ADD MLOAD DUP2 PUSH0 ADD SSTORE PUSH1 0x20 DUP3 ADD MLOAD DUP2 PUSH1 0x1 ADD SWAP1 DUP2 PUSH2 0x98F SWAP2 SWAP1 PUSH2 0x19F8 JUMP JUMPDEST POP PUSH1 0x40 DUP3 ADD MLOAD DUP2 PUSH1 0x2 ADD PUSH0 PUSH2 0x100 EXP DUP2 SLOAD DUP2 PUSH1 0xFF MUL NOT AND SWAP1 DUP4 PUSH1 0x3 DUP2 GT ISZERO PUSH2 0x9BA JUMPI PUSH2 0x9B9 PUSH2 0x1020 JUMP JUMPDEST JUMPDEST MUL OR SWAP1 SSTORE POP PUSH1 0x60 DUP3 ADD MLOAD DUP2 PUSH1 0x2 ADD PUSH1 0x1 PUSH2 0x100 EXP DUP2 SLOAD DUP2 PUSH1 0xFF MUL NOT AND SWAP1 DUP4 ISZERO ISZERO MUL OR SWAP1 SSTORE POP PUSH1 0x80 DUP3 ADD MLOAD DUP2 PUSH1 0x2 ADD PUSH1 0x2 PUSH2 0x100 EXP DUP2 SLOAD DUP2 PUSH1 0xFF MUL NOT AND SWAP1 DUP4 ISZERO ISZERO MUL OR SWAP1 SSTORE POP PUSH1 0xA0 DUP3 ADD MLOAD DUP2 PUSH1 0x3 ADD SSTORE PUSH1 0xC0 DUP3 ADD MLOAD DUP2 PUSH1 0x4 ADD SSTORE SWAP1 POP POP POP POP POP JUMP JUMPDEST PUSH0 PUSH1 0x1 SLOAD SWAP1 POP SWAP1 JUMP JUMPDEST PUSH0 PUSH0 SWAP1 SLOAD SWAP1 PUSH2 0x100 EXP SWAP1 DIV PUSH20 0xFFFFFFFFFFFFFFFFFFFFFFFFFFFFFFFFFFFFFFFF AND DUP2 JUMP JUMPDEST PUSH0 PUSH0 SWAP1 SLOAD SWAP1 PUSH2 0x100 EXP SWAP1 DIV PUSH20 0xFFFFFFFFFFFFFFFFFFFFFFFFFFFFFFFFFFFFFFFF AND PUSH20 0xFFFFFFFFFFFFFFFFFFFFFFFFFFFFFFFFFFFFFFFF AND CALLER PUSH20 0xFFFFFFFFFFFFFFFFFFFFFFFFFFFFFFFFFFFFFFFF AND EQ PUSH2 0xAD6 JUMPI PUSH1 0x40 MLOAD PUSH32 0x8C379A000000000000000000000000000000000000000000000000000000000 DUP2 MSTORE PUSH1 0x4 ADD PUSH2 0xACD SWAP1 PUSH2 0x16F6 JUMP JUMPDEST PUSH1 0x40 MLOAD DUP1 SWAP2 SUB SWAP1 REVERT JUMPDEST PUSH1 0x2 PUSH0 DUP2 SLOAD DUP1 SWAP3 SWAP2 SWAP1 PUSH2 0xAE8 SWAP1 PUSH2 0x1811 JUMP JUMPDEST SWAP2 SWAP1 POP SSTORE POP PUSH1 0x40 MLOAD DUP1 PUSH1 0xC0 ADD PUSH1 0x40 MSTORE DUP1 PUSH1 0x2 SLOAD DUP2 MSTORE PUSH1 0x20 ADD DUP3 DUP2 MSTORE PUSH1 0x20 ADD PUSH1 0x1 ISZERO ISZERO DUP2 MSTORE PUSH1 0x20 ADD PUSH0 ISZERO ISZERO DUP2 MSTORE PUSH1 0x20 ADD PUSH0 DUP2 MSTORE PUSH1 0x20 ADD PUSH0 DUP2 MSTORE POP PUSH1 0x4 PUSH0 PUSH1 0x2 SLOAD DUP2 MSTORE PUSH1 0x20 ADD SWAP1 DUP2 MSTORE PUSH1 0x20 ADD PUSH0 KECCAK256 PUSH0 DUP3 ADD MLOAD DUP2 PUSH0 ADD SSTORE PUSH1 0x20 DUP3 ADD MLOAD DUP2 PUSH1 0x1 ADD SWAP1 DUP2 PUSH2 0xB51 SWAP2 SWAP1 PUSH2 0x19F8 JUMP JUMPDEST POP PUSH1 0x40 DUP3 ADD MLOAD DUP2 PUSH1 0x2 ADD PUSH0 PUSH2 0x100 EXP DUP2 SLOAD DUP2 PUSH1 0xFF MUL NOT AND SWAP1 DUP4 ISZERO ISZERO MUL OR SWAP1 SSTORE POP PUSH1 0x60 DUP3 ADD MLOAD DUP2 PUSH1 0x2 ADD PUSH1 0x1 PUSH2 0x100 EXP DUP2 SLOAD DUP2 PUSH1 0xFF MUL NOT AND SWAP1 DUP4 ISZERO ISZERO MUL OR SWAP1 SSTORE POP PUSH1 0x80 DUP3 ADD MLOAD DUP2 PUSH1 0x3 ADD SSTORE PUSH1 0xA0 DUP3 ADD MLOAD DUP2 PUSH1 0x4 ADD SSTORE SWAP1 POP POP POP JUMP JUMPDEST PUSH0 PUSH0 SWAP1 SLOAD SWAP1 PUSH2 0x100 EXP SWAP1 DIV PUSH20 0xFFFFFFFFFFFFFFFFFFFFFFFFFFFFFFFFFFFFFFFF AND PUSH20 0xFFFFFFFFFFFFFFFFFFFFFFFFFFFFFFFFFFFFFFFF AND CALLER PUSH20 0xFFFFFFFFFFFFFFFFFFFFFFFFFFFFFFFFFFFFFFFF AND EQ PUSH2 0xC39 JUMPI PUSH1 0x40 MLOAD PUSH32 0x8C379A000000000000000000000000000000000000000000000000000000000 DUP2 MSTORE PUSH1 0x4 ADD PUSH2 0xC30 SWAP1 PUSH2 0x16F6 JUMP JUMPDEST PUSH1 0x40 MLOAD DUP1 SWAP2 SUB SWAP1 REVERT JUMPDEST PUSH1 0x4 PUSH0 DUP3 DUP2 MSTORE PUSH1 0x20 ADD SWAP1 DUP2 MSTORE PUSH1 0x20 ADD PUSH0 KECCAK256 PUSH1 0x2 ADD PUSH0 SWAP1 SLOAD SWAP1 PUSH2 0x100 EXP SWAP1 DIV PUSH1 0xFF AND PUSH2 0xC99 JUMPI PUSH1 0x40 MLOAD PUSH32 0x8C379A000000000000000000000000000000000000000000000000000000000 DUP2 MSTORE PUSH1 0x4 ADD PUSH2 0xC90 SWAP1 PUSH2 0x1B11 JUMP JUMPDEST PUSH1 0x40 MLOAD DUP1 SWAP2 SUB SWAP1 REVERT JUMPDEST PUSH0 CALLVALUE GT PUSH2 0xCDB JUMPI PUSH1 0x40 MLOAD PUSH32 0x8C379A000000000000000000000000000000000000000000000000000000000 DUP2 MSTORE PUSH1 0x4 ADD PUSH2 0xCD2 SWAP1 PUSH2 0x1B79 JUMP JUMPDEST PUSH1 0x40 MLOAD DUP1 SWAP2 SUB SWAP1 REVERT JUMPDEST PUSH1 0x1 PUSH1 0x4 PUSH0 DUP4 DUP2 MSTORE PUSH1 0x20 ADD SWAP1 DUP2 MSTORE PUSH1 0x20 ADD PUSH0 KECCAK256 PUSH1 0x2 ADD PUSH1 0x1 PUSH2 0x100 EXP DUP2 SLOAD DUP2 PUSH1 0xFF MUL NOT AND SWAP1 DUP4 ISZERO ISZERO MUL OR SWAP1 SSTORE POP CALLVALUE PUSH1 0x4 PUSH0 DUP4 DUP2 MSTORE PUSH1 0x20 ADD SWAP1 DUP2 MSTORE PUSH1 0x20 ADD PUSH0 KECCAK256 PUSH1 0x3 ADD DUP2 SWAP1 SSTORE POP TIMESTAMP PUSH1 0x4 PUSH0 DUP4 DUP2 MSTORE PUSH1 0x20 ADD SWAP1 DUP2 MSTORE PUSH1 0x20 ADD PUSH0 KECCAK256 PUSH1 0x4 ADD DUP2 SWAP1 SSTORE POP POP JUMP JUMPDEST PUSH1 0x1 SLOAD DUP2 JUMP JUMPDEST PUSH2 0xD4B PUSH2 0xEFD JUMP JUMPDEST PUSH1 0x4 PUSH0 DUP4 DUP2 MSTORE PUSH1 0x20 ADD SWAP1 DUP2 MSTORE PUSH1 0x20 ADD PUSH0 KECCAK256 PUSH1 0x2 ADD PUSH0 SWAP1 SLOAD SWAP1 PUSH2 0x100 EXP SWAP1 DIV PUSH1 0xFF AND PUSH2 0xDAB JUMPI PUSH1 0x40 MLOAD PUSH32 0x8C379A000000000000000000000000000000000000000000000000000000000 DUP2 MSTORE PUSH1 0x4 ADD PUSH2 0xDA2 SWAP1 PUSH2 0x1B11 JUMP JUMPDEST PUSH1 0x40 MLOAD DUP1 SWAP2 SUB SWAP1 REVERT JUMPDEST PUSH1 0x4 PUSH0 DUP4 DUP2 MSTORE PUSH1 0x20 ADD SWAP1 DUP2 MSTORE PUSH1 0x20 ADD PUSH0 KECCAK256 PUSH1 0x40 MLOAD DUP1 PUSH1 0xC0 ADD PUSH1 0x40 MSTORE SWAP1 DUP2 PUSH0 DUP3 ADD SLOAD DUP2 MSTORE PUSH1 0x20 ADD PUSH1 0x1 DUP3 ADD DUP1 SLOAD PUSH2 0xDE0 SWAP1 PUSH2 0x1614 JUMP JUMPDEST DUP1 PUSH1 0x1F ADD PUSH1 0x20 DUP1 SWAP2 DIV MUL PUSH1 0x20 ADD PUSH1 0x40 MLOAD SWAP1 DUP2 ADD PUSH1 0x40 MSTORE DUP1 SWAP3 SWAP2 SWAP1 DUP2 DUP2 MSTORE PUSH1 0x20 ADD DUP3 DUP1 SLOAD PUSH2 0xE0C SWAP1 PUSH2 0x1614 JUMP JUMPDEST DUP1 ISZERO PUSH2 0xE57 JUMPI DUP1 PUSH1 0x1F LT PUSH2 0xE2E JUMPI PUSH2 0x100 DUP1 DUP4 SLOAD DIV MUL DUP4 MSTORE SWAP2 PUSH1 0x20 ADD SWAP2 PUSH2 0xE57 JUMP JUMPDEST DUP3 ADD SWAP2 SWAP1 PUSH0 MSTORE PUSH1 0x20 PUSH0 KECCAK256 SWAP1 JUMPDEST DUP2 SLOAD DUP2 MSTORE SWAP1 PUSH1 0x1 ADD SWAP1 PUSH1 0x20 ADD DUP1 DUP4 GT PUSH2 0xE3A JUMPI DUP3 SWAP1 SUB PUSH1 0x1F AND DUP3 ADD SWAP2 JUMPDEST POP POP POP POP POP DUP2 MSTORE PUSH1 0x20 ADD PUSH1 0x2 DUP3 ADD PUSH0 SWAP1 SLOAD SWAP1 PUSH2 0x100 EXP SWAP1 DIV PUSH1 0xFF AND ISZERO ISZERO ISZERO ISZERO DUP2 MSTORE PUSH1 0x20 ADD PUSH1 0x2 DUP3 ADD PUSH1 0x1 SWAP1 SLOAD SWAP1 PUSH2 0x100 EXP SWAP1 DIV PUSH1 0xFF AND ISZERO ISZERO ISZERO ISZERO DUP2 MSTORE PUSH1 0x20 ADD PUSH1 0x3 DUP3 ADD SLOAD DUP2 MSTORE PUSH1 0x20 ADD PUSH1 0x4 DUP3 ADD SLOAD DUP2 MSTORE POP POP SWAP1 POP SWAP2 SWAP1 POP JUMP JUMPDEST PUSH1 0x40 MLOAD DUP1 PUSH1 0xE0 ADD PUSH1 0x40 MSTORE DUP1 PUSH0 DUP2 MSTORE PUSH1 0x20 ADD PUSH1 0x60 DUP2 MSTORE PUSH1 0x20 ADD PUSH0 PUSH1 0x3 DUP2 GT ISZERO PUSH2 0xEDB JUMPI PUSH2 0xEDA PUSH2 0x1020 JUMP JUMPDEST JUMPDEST DUP2 MSTORE PUSH1 0x20 ADD PUSH0 ISZERO ISZERO DUP2 MSTORE PUSH1 0x20 ADD PUSH0 ISZERO ISZERO DUP2 MSTORE PUSH1 0x20 ADD PUSH0 DUP2 MSTORE PUSH1 0x20 ADD PUSH0 DUP2 MSTORE POP SWAP1 JUMP JUMPDEST PUSH1 0x40 MLOAD DUP1 PUSH1 0xC0 ADD PUSH1 0x40 MSTORE DUP1 PUSH0 DUP2 MSTORE PUSH1 0x20 ADD PUSH1 0x60 DUP2 MSTORE PUSH1 0x20 ADD PUSH0 ISZERO ISZERO DUP2 MSTORE PUSH1 0x20 ADD PUSH0 ISZERO ISZERO DUP2 MSTORE PUSH1 0x20 ADD PUSH0 DUP2 MSTORE PUSH1 0x20 ADD PUSH0 DUP2 MSTORE POP SWAP1 JUMP JUMPDEST PUSH0 PUSH1 0x40 MLOAD SWAP1 POP SWAP1 JUMP JUMPDEST PUSH0 PUSH0 REVERT JUMPDEST PUSH0 PUSH0 REVERT JUMPDEST PUSH0 DUP2 SWAP1 POP SWAP2 SWAP1 POP JUMP JUMPDEST PUSH2 0xF55 DUP2 PUSH2 0xF43 JUMP JUMPDEST DUP2 EQ PUSH2 0xF5F JUMPI PUSH0 PUSH0 REVERT JUMPDEST POP JUMP JUMPDEST PUSH0 DUP2 CALLDATALOAD SWAP1 POP PUSH2 0xF70 DUP2 PUSH2 0xF4C JUMP JUMPDEST SWAP3 SWAP2 POP POP JUMP JUMPDEST PUSH0 PUSH1 0x20 DUP3 DUP5 SUB SLT ISZERO PUSH2 0xF8B JUMPI PUSH2 0xF8A PUSH2 0xF3B JUMP JUMPDEST JUMPDEST PUSH0 PUSH2 0xF98 DUP5 DUP3 DUP6 ADD PUSH2 0xF62 JUMP JUMPDEST SWAP2 POP POP SWAP3 SWAP2 POP POP JUMP JUMPDEST PUSH2 0xFAA DUP2 PUSH2 0xF43 JUMP JUMPDEST DUP3 MSTORE POP POP JUMP JUMPDEST PUSH0 DUP2 MLOAD SWAP1 POP SWAP2 SWAP1 POP JUMP JUMPDEST PUSH0 DUP3 DUP3 MSTORE PUSH1 0x20 DUP3 ADD SWAP1 POP SWAP3 SWAP2 POP POP JUMP JUMPDEST DUP3 DUP2 DUP4 MCOPY PUSH0 DUP4 DUP4 ADD MSTORE POP POP POP JUMP JUMPDEST PUSH0 PUSH1 0x1F NOT PUSH1 0x1F DUP4 ADD AND SWAP1 POP SWAP2 SWAP1 POP JUMP JUMPDEST PUSH0 PUSH2 0xFF2 DUP3 PUSH2 0xFB0 JUMP JUMPDEST PUSH2 0xFFC DUP2 DUP6 PUSH2 0xFBA JUMP JUMPDEST SWAP4 POP PUSH2 0x100C DUP2 DUP6 PUSH1 0x20 DUP7 ADD PUSH2 0xFCA JUMP JUMPDEST PUSH2 0x1015 DUP2 PUSH2 0xFD8 JUMP JUMPDEST DUP5 ADD SWAP2 POP POP SWAP3 SWAP2 POP POP JUMP JUMPDEST PUSH32 0x4E487B7100000000000000000000000000000000000000000000000000000000 PUSH0 MSTORE PUSH1 0x21 PUSH1 0x4 MSTORE PUSH1 0x24 PUSH0 REVERT JUMPDEST PUSH1 0x4 DUP2 LT PUSH2 0x105E JUMPI PUSH2 0x105D PUSH2 0x1020 JUMP JUMPDEST JUMPDEST POP JUMP JUMPDEST PUSH0 DUP2 SWAP1 POP PUSH2 0x106E DUP3 PUSH2 0x104D JUMP JUMPDEST SWAP2 SWAP1 POP JUMP JUMPDEST PUSH0 PUSH2 0x107D DUP3 PUSH2 0x1061 JUMP JUMPDEST SWAP1 POP SWAP2 SWAP1 POP JUMP JUMPDEST PUSH2 0x108D DUP2 PUSH2 0x1073 JUMP JUMPDEST DUP3 MSTORE POP POP JUMP JUMPDEST PUSH0 DUP2 ISZERO ISZERO SWAP1 POP SWAP2 SWAP1 POP JUMP JUMPDEST PUSH2 0x10A7 DUP2 PUSH2 0x1093 JUMP JUMPDEST DUP3 MSTORE POP POP JUMP JUMPDEST PUSH0 PUSH1 0xE0 DUP3 ADD SWAP1 POP PUSH2 0x10C0 PUSH0 DUP4 ADD DUP11 PUSH2 0xFA1 JUMP JUMPDEST DUP2 DUP2 SUB PUSH1 0x20 DUP4 ADD MSTORE PUSH2 0x10D2 DUP2 DUP10 PUSH2 0xFE8 JUMP JUMPDEST SWAP1 POP PUSH2 0x10E1 PUSH1 0x40 DUP4 ADD DUP9 PUSH2 0x1084 JUMP JUMPDEST PUSH2 0x10EE PUSH1 0x60 DUP4 ADD DUP8 PUSH2 0x109E JUMP JUMPDEST PUSH2 0x10FB PUSH1 0x80 DUP4 ADD DUP7 PUSH2 0x109E JUMP JUMPDEST PUSH2 0x1108 PUSH1 0xA0 DUP4 ADD DUP6 PUSH2 0xFA1 JUMP JUMPDEST PUSH2 0x1115 PUSH1 0xC0 DUP4 ADD DUP5 PUSH2 0xFA1 JUMP JUMPDEST SWAP9 SWAP8 POP POP POP POP POP POP POP POP JUMP JUMPDEST PUSH1 0x4 DUP2 LT PUSH2 0x112D JUMPI PUSH0 PUSH0 REVERT JUMPDEST POP JUMP JUMPDEST PUSH0 DUP2 CALLDATALOAD SWAP1 POP PUSH2 0x113E DUP2 PUSH2 0x1121 JUMP JUMPDEST SWAP3 SWAP2 POP POP JUMP JUMPDEST PUSH0 PUSH1 0x20 DUP3 DUP5 SUB SLT ISZERO PUSH2 0x1159 JUMPI PUSH2 0x1158 PUSH2 0xF3B JUMP JUMPDEST JUMPDEST PUSH0 PUSH2 0x1166 DUP5 DUP3 DUP6 ADD PUSH2 0x1130 JUMP JUMPDEST SWAP2 POP POP SWAP3 SWAP2 POP POP JUMP JUMPDEST PUSH0 PUSH1 0x20 DUP3 ADD SWAP1 POP PUSH2 0x1182 PUSH0 DUP4 ADD DUP5 PUSH2 0xFA1 JUMP JUMPDEST SWAP3 SWAP2 POP POP JUMP JUMPDEST PUSH0 PUSH1 0xC0 DUP3 ADD SWAP1 POP PUSH2 0x119B PUSH0 DUP4 ADD DUP10 PUSH2 0xFA1 JUMP JUMPDEST DUP2 DUP2 SUB PUSH1 0x20 DUP4 ADD MSTORE PUSH2 0x11AD DUP2 DUP9 PUSH2 0xFE8 JUMP JUMPDEST SWAP1 POP PUSH2 0x11BC PUSH1 0x40 DUP4 ADD DUP8 PUSH2 0x109E JUMP JUMPDEST PUSH2 0x11C9 PUSH1 0x60 DUP4 ADD DUP7 PUSH2 0x109E JUMP JUMPDEST PUSH2 0x11D6 PUSH1 0x80 DUP4 ADD DUP6 PUSH2 0xFA1 JUMP JUMPDEST PUSH2 0x11E3 PUSH1 0xA0 DUP4 ADD DUP5 PUSH2 0xFA1 JUMP JUMPDEST SWAP8 SWAP7 POP POP POP POP POP POP POP JUMP JUMPDEST PUSH2 0x11F7 DUP2 PUSH2 0xF43 JUMP JUMPDEST DUP3 MSTORE POP POP JUMP JUMPDEST PUSH0 DUP3 DUP3 MSTORE PUSH1 0x20 DUP3 ADD SWAP1 POP SWAP3 SWAP2 POP POP JUMP JUMPDEST PUSH0 PUSH2 0x1217 DUP3 PUSH2 0xFB0 JUMP JUMPDEST PUSH2 0x1221 DUP2 DUP6 PUSH2 0x11FD JUMP JUMPDEST SWAP4 POP PUSH2 0x1231 DUP2 DUP6 PUSH1 0x20 DUP7 ADD PUSH2 0xFCA JUMP JUMPDEST PUSH2 0x123A DUP2 PUSH2 0xFD8 JUMP JUMPDEST DUP5 ADD SWAP2 POP POP SWAP3 SWAP2 POP POP JUMP JUMPDEST PUSH2 0x124E DUP2 PUSH2 0x1073 JUMP JUMPDEST DUP3 MSTORE POP POP JUMP JUMPDEST PUSH2 0x125D DUP2 PUSH2 0x1093 JUMP JUMPDEST DUP3 MSTORE POP POP JUMP JUMPDEST PUSH0 PUSH1 0xE0 DUP4 ADD PUSH0 DUP4 ADD MLOAD PUSH2 0x1278 PUSH0 DUP7 ADD DUP3 PUSH2 0x11EE JUMP JUMPDEST POP PUSH1 0x20 DUP4 ADD MLOAD DUP5 DUP3 SUB PUSH1 0x20 DUP7 ADD MSTORE PUSH2 0x1290 DUP3 DUP3 PUSH2 0x120D JUMP JUMPDEST SWAP2 POP POP PUSH1 0x40 DUP4 ADD MLOAD PUSH2 0x12A5 PUSH1 0x40 DUP7 ADD DUP3 PUSH2 0x1245 JUMP JUMPDEST POP PUSH1 0x60 DUP4 ADD MLOAD PUSH2 0x12B8 PUSH1 0x60 DUP7 ADD DUP3 PUSH2 0x1254 JUMP JUMPDEST POP PUSH1 0x80 DUP4 ADD MLOAD PUSH2 0x12CB PUSH1 0x80 DUP7 ADD DUP3 PUSH2 0x1254 JUMP JUMPDEST POP PUSH1 0xA0 DUP4 ADD MLOAD PUSH2 0x12DE PUSH1 0xA0 DUP7 ADD DUP3 PUSH2 0x11EE JUMP JUMPDEST POP PUSH1 0xC0 DUP4 ADD MLOAD PUSH2 0x12F1 PUSH1 0xC0 DUP7 ADD DUP3 PUSH2 0x11EE JUMP JUMPDEST POP DUP1 SWAP2 POP POP SWAP3 SWAP2 POP POP JUMP JUMPDEST PUSH0 PUSH1 0x20 DUP3 ADD SWAP1 POP DUP2 DUP2 SUB PUSH0 DUP4 ADD MSTORE PUSH2 0x1314 DUP2 DUP5 PUSH2 0x1263 JUMP JUMPDEST SWAP1 POP SWAP3 SWAP2 POP POP JUMP JUMPDEST PUSH0 PUSH0 REVERT JUMPDEST PUSH0 PUSH0 REVERT JUMPDEST PUSH32 0x4E487B7100000000000000000000000000000000000000000000000000000000 PUSH0 MSTORE PUSH1 0x41 PUSH1 0x4 MSTORE PUSH1 0x24 PUSH0 REVERT JUMPDEST PUSH2 0x135A DUP3 PUSH2 0xFD8 JUMP JUMPDEST DUP2 ADD DUP2 DUP2 LT PUSH8 0xFFFFFFFFFFFFFFFF DUP3 GT OR ISZERO PUSH2 0x1379 JUMPI PUSH2 0x1378 PUSH2 0x1324 JUMP JUMPDEST JUMPDEST DUP1 PUSH1 0x40 MSTORE POP POP POP JUMP JUMPDEST PUSH0 PUSH2 0x138B PUSH2 0xF32 JUMP JUMPDEST SWAP1 POP PUSH2 0x1397 DUP3 DUP3 PUSH2 0x1351 JUMP JUMPDEST SWAP2 SWAP1 POP JUMP JUMPDEST PUSH0 PUSH8 0xFFFFFFFFFFFFFFFF DUP3 GT ISZERO PUSH2 0x13B6 JUMPI PUSH2 0x13B5 PUSH2 0x1324 JUMP JUMPDEST JUMPDEST PUSH2 0x13BF DUP3 PUSH2 0xFD8 JUMP JUMPDEST SWAP1 POP PUSH1 0x20 DUP2 ADD SWAP1 POP SWAP2 SWAP1 POP JUMP JUMPDEST DUP3 DUP2 DUP4 CALLDATACOPY PUSH0 DUP4 DUP4 ADD MSTORE POP POP POP JUMP JUMPDEST PUSH0 PUSH2 0x13EC PUSH2 0x13E7 DUP5 PUSH2 0x139C JUMP JUMPDEST PUSH2 0x1382 JUMP JUMPDEST SWAP1 POP DUP3 DUP2 MSTORE PUSH1 0x20 DUP2 ADD DUP5 DUP5 DUP5 ADD GT ISZERO PUSH2 0x1408 JUMPI PUSH2 0x1407 PUSH2 0x1320 JUMP JUMPDEST JUMPDEST PUSH2 0x1413 DUP5 DUP3 DUP6 PUSH2 0x13CC JUMP JUMPDEST POP SWAP4 SWAP3 POP POP POP JUMP JUMPDEST PUSH0 DUP3 PUSH1 0x1F DUP4 ADD SLT PUSH2 0x142F JUMPI PUSH2 0x142E PUSH2 0x131C JUMP JUMPDEST JUMPDEST DUP2 CALLDATALOAD PUSH2 0x143F DUP5 DUP3 PUSH1 0x20 DUP7 ADD PUSH2 0x13DA JUMP JUMPDEST SWAP2 POP POP SWAP3 SWAP2 POP POP JUMP JUMPDEST PUSH0 PUSH0 PUSH1 0x40 DUP4 DUP6 SUB SLT ISZERO PUSH2 0x145E JUMPI PUSH2 0x145D PUSH2 0xF3B JUMP JUMPDEST JUMPDEST PUSH0 DUP4 ADD CALLDATALOAD PUSH8 0xFFFFFFFFFFFFFFFF DUP2 GT ISZERO PUSH2 0x147B JUMPI PUSH2 0x147A PUSH2 0xF3F JUMP JUMPDEST JUMPDEST PUSH2 0x1487 DUP6 DUP3 DUP7 ADD PUSH2 0x141B JUMP JUMPDEST SWAP3 POP POP PUSH1 0x20 PUSH2 0x1498 DUP6 DUP3 DUP7 ADD PUSH2 0x1130 JUMP JUMPDEST SWAP2 POP POP SWAP3 POP SWAP3 SWAP1 POP JUMP JUMPDEST PUSH0 PUSH20 0xFFFFFFFFFFFFFFFFFFFFFFFFFFFFFFFFFFFFFFFF DUP3 AND SWAP1 POP SWAP2 SWAP1 POP JUMP JUMPDEST PUSH0 PUSH2 0x14CB DUP3 PUSH2 0x14A2 JUMP JUMPDEST SWAP1 POP SWAP2 SWAP1 POP JUMP JUMPDEST PUSH2 0x14DB DUP2 PUSH2 0x14C1 JUMP JUMPDEST DUP3 MSTORE POP POP JUMP JUMPDEST PUSH0 PUSH1 0x20 DUP3 ADD SWAP1 POP PUSH2 0x14F4 PUSH0 DUP4 ADD DUP5 PUSH2 0x14D2 JUMP JUMPDEST SWAP3 SWAP2 POP POP JUMP JUMPDEST PUSH0 PUSH1 0x20 DUP3 DUP5 SUB SLT ISZERO PUSH2 0x150F JUMPI PUSH2 0x150E PUSH2 0xF3B JUMP JUMPDEST JUMPDEST PUSH0 DUP3 ADD CALLDATALOAD PUSH8 0xFFFFFFFFFFFFFFFF DUP2 GT ISZERO PUSH2 0x152C JUMPI PUSH2 0x152B PUSH2 0xF3F JUMP JUMPDEST JUMPDEST PUSH2 0x1538 DUP5 DUP3 DUP6 ADD PUSH2 0x141B JUMP JUMPDEST SWAP2 POP POP SWAP3 SWAP2 POP POP JUMP JUMPDEST PUSH0 PUSH1 0xC0 DUP4 ADD PUSH0 DUP4 ADD MLOAD PUSH2 0x1556 PUSH0 DUP7 ADD DUP3 PUSH2 0x11EE JUMP JUMPDEST POP PUSH1 0x20 DUP4 ADD MLOAD DUP5 DUP3 SUB PUSH1 0x20 DUP7 ADD MSTORE PUSH2 0x156E DUP3 DUP3 PUSH2 0x120D JUMP JUMPDEST SWAP2 POP POP PUSH1 0x40 DUP4 ADD MLOAD PUSH2 0x1583 PUSH1 0x40 DUP7 ADD DUP3 PUSH2 0x1254 JUMP JUMPDEST POP PUSH1 0x60 DUP4 ADD MLOAD PUSH2 0x1596 PUSH1 0x60 DUP7 ADD DUP3 PUSH2 0x1254 JUMP JUMPDEST POP PUSH1 0x80 DUP4 ADD MLOAD PUSH2 0x15A9 PUSH1 0x80 DUP7 ADD DUP3 PUSH2 0x11EE JUMP JUMPDEST POP PUSH1 0xA0 DUP4 ADD MLOAD PUSH2 0x15BC PUSH1 0xA0 DUP7 ADD DUP3 PUSH2 0x11EE JUMP JUMPDEST POP DUP1 SWAP2 POP POP SWAP3 SWAP2 POP POP JUMP JUMPDEST PUSH0 PUSH1 0x20 DUP3 ADD SWAP1 POP DUP2 DUP2 SUB PUSH0 DUP4 ADD MSTORE PUSH2 0x15DF DUP2 DUP5 PUSH2 0x1541 JUMP JUMPDEST SWAP1 POP SWAP3 SWAP2 POP POP JUMP JUMPDEST PUSH32 0x4E487B7100000000000000000000000000000000000000000000000000000000 PUSH0 MSTORE PUSH1 0x22 PUSH1 0x4 MSTORE PUSH1 0x24 PUSH0 REVERT JUMPDEST PUSH0 PUSH1 0x2 DUP3 DIV SWAP1 POP PUSH1 0x1 DUP3 AND DUP1 PUSH2 0x162B JUMPI PUSH1 0x7F DUP3 AND SWAP2 POP JUMPDEST PUSH1 0x20 DUP3 LT DUP2 SUB PUSH2 0x163E JUMPI PUSH2 0x163D PUSH2 0x15E7 JUMP JUMPDEST JUMPDEST POP SWAP2 SWAP1 POP JUMP JUMPDEST PUSH32 0x496E76616C6964206C6576656C00000000000000000000000000000000000000 PUSH0 DUP3 ADD MSTORE POP JUMP JUMPDEST PUSH0 PUSH2 0x1678 PUSH1 0xD DUP4 PUSH2 0xFBA JUMP JUMPDEST SWAP2 POP PUSH2 0x1683 DUP3 PUSH2 0x1644 JUMP JUMPDEST PUSH1 0x20 DUP3 ADD SWAP1 POP SWAP2 SWAP1 POP JUMP JUMPDEST PUSH0 PUSH1 0x20 DUP3 ADD SWAP1 POP DUP2 DUP2 SUB PUSH0 DUP4 ADD MSTORE PUSH2 0x16A5 DUP2 PUSH2 0x166C JUMP JUMPDEST SWAP1 POP SWAP2 SWAP1 POP JUMP JUMPDEST PUSH32 0x4E6F7420617574686F72697A6564000000000000000000000000000000000000 PUSH0 DUP3 ADD MSTORE POP JUMP JUMPDEST PUSH0 PUSH2 0x16E0 PUSH1 0xE DUP4 PUSH2 0xFBA JUMP JUMPDEST SWAP2 POP PUSH2 0x16EB DUP3 PUSH2 0x16AC JUMP JUMPDEST PUSH1 0x20 DUP3 ADD SWAP1 POP SWAP2 SWAP1 POP JUMP JUMPDEST PUSH0 PUSH1 0x20 DUP3 ADD SWAP1 POP DUP2 DUP2 SUB PUSH0 DUP4 ADD MSTORE PUSH2 0x170D DUP2 PUSH2 0x16D4 JUMP JUMPDEST SWAP1 POP SWAP2 SWAP1 POP JUMP JUMPDEST PUSH32 0x53747564656E74206E6F7420666F756E64000000000000000000000000000000 PUSH0 DUP3 ADD MSTORE POP JUMP JUMPDEST PUSH0 PUSH2 0x1748 PUSH1 0x11 DUP4 PUSH2 0xFBA JUMP JUMPDEST SWAP2 POP PUSH2 0x1753 DUP3 PUSH2 0x1714 JUMP JUMPDEST PUSH1 0x20 DUP3 ADD SWAP1 POP SWAP2 SWAP1 POP JUMP JUMPDEST PUSH0 PUSH1 0x20 DUP3 ADD SWAP1 POP DUP2 DUP2 SUB PUSH0 DUP4 ADD MSTORE PUSH2 0x1775 DUP2 PUSH2 0x173C JUMP JUMPDEST SWAP1 POP SWAP2 SWAP1 POP JUMP JUMPDEST PUSH32 0x496E636F72726563742066656520616D6F756E74000000000000000000000000 PUSH0 DUP3 ADD MSTORE POP JUMP JUMPDEST PUSH0 PUSH2 0x17B0 PUSH1 0x14 DUP4 PUSH2 0xFBA JUMP JUMPDEST SWAP2 POP PUSH2 0x17BB DUP3 PUSH2 0x177C JUMP JUMPDEST PUSH1 0x20 DUP3 ADD SWAP1 POP SWAP2 SWAP1 POP JUMP JUMPDEST PUSH0 PUSH1 0x20 DUP3 ADD SWAP1 POP DUP2 DUP2 SUB PUSH0 DUP4 ADD MSTORE PUSH2 0x17DD DUP2 PUSH2 0x17A4 JUMP JUMPDEST SWAP1 POP SWAP2 SWAP1 POP JUMP JUMPDEST PUSH32 0x4E487B7100000000000000000000000000000000000000000000000000000000 PUSH0 MSTORE PUSH1 0x11 PUSH1 0x4 MSTORE PUSH1 0x24 PUSH0 REVERT JUMPDEST PUSH0 PUSH2 0x181B DUP3 PUSH2 0xF43 JUMP JUMPDEST SWAP2 POP PUSH32 0xFFFFFFFFFFFFFFFFFFFFFFFFFFFFFFFFFFFFFFFFFFFFFFFFFFFFFFFFFFFFFFFF DUP3 SUB PUSH2 0x184D JUMPI PUSH2 0x184C PUSH2 0x17E4 JUMP JUMPDEST JUMPDEST PUSH1 0x1 DUP3 ADD SWAP1 POP SWAP2 SWAP1 POP JUMP JUMPDEST PUSH0 DUP2 SWAP1 POP DUP2 PUSH0 MSTORE PUSH1 0x20 PUSH0 KECCAK256 SWAP1 POP SWAP2 SWAP1 POP JUMP JUMPDEST PUSH0 PUSH1 0x20 PUSH1 0x1F DUP4 ADD DIV SWAP1 POP SWAP2 SWAP1 POP JUMP JUMPDEST PUSH0 DUP3 DUP3 SHL SWAP1 POP SWAP3 SWAP2 POP POP JUMP JUMPDEST PUSH0 PUSH1 0x8 DUP4 MUL PUSH2 0x18B4 PUSH32 0xFFFFFFFFFFFFFFFFFFFFFFFFFFFFFFFFFFFFFFFFFFFFFFFFFFFFFFFFFFFFFFFF DUP3 PUSH2 0x1879 JUMP JUMPDEST PUSH2 0x18BE DUP7 DUP4 PUSH2 0x1879 JUMP JUMPDEST SWAP6 POP DUP1 NOT DUP5 AND SWAP4 POP DUP1 DUP7 AND DUP5 OR SWAP3 POP POP POP SWAP4 SWAP3 POP POP POP JUMP JUMPDEST PUSH0 DUP2 SWAP1 POP SWAP2 SWAP1 POP JUMP JUMPDEST PUSH0 PUSH2 0x18F9 PUSH2 0x18F4 PUSH2 0x18EF DUP5 PUSH2 0xF43 JUMP JUMPDEST PUSH2 0x18D6 JUMP JUMPDEST PUSH2 0xF43 JUMP JUMPDEST SWAP1 POP SWAP2 SWAP1 POP JUMP JUMPDEST PUSH0 DUP2 SWAP1 POP SWAP2 SWAP1 POP JUMP JUMPDEST PUSH2 0x1912 DUP4 PUSH2 0x18DF JUMP JUMPDEST PUSH2 0x1926 PUSH2 0x191E DUP3 PUSH2 0x1900 JUMP JUMPDEST DUP5 DUP5 SLOAD PUSH2 0x1885 JUMP JUMPDEST DUP3 SSTORE POP POP POP POP JUMP JUMPDEST PUSH0 PUSH0 SWAP1 POP SWAP1 JUMP JUMPDEST PUSH2 0x193D PUSH2 0x192E JUMP JUMPDEST PUSH2 0x1948 DUP2 DUP5 DUP5 PUSH2 0x1909 JUMP JUMPDEST POP POP POP JUMP JUMPDEST JUMPDEST DUP2 DUP2 LT ISZERO PUSH2 0x196B JUMPI PUSH2 0x1960 PUSH0 DUP3 PUSH2 0x1935 JUMP JUMPDEST PUSH1 0x1 DUP2 ADD SWAP1 POP PUSH2 0x194E JUMP JUMPDEST POP POP JUMP JUMPDEST PUSH1 0x1F DUP3 GT ISZERO PUSH2 0x19B0 JUMPI PUSH2 0x1981 DUP2 PUSH2 0x1858 JUMP JUMPDEST PUSH2 0x198A DUP5 PUSH2 0x186A JUMP JUMPDEST DUP2 ADD PUSH1 0x20 DUP6 LT ISZERO PUSH2 0x1999 JUMPI DUP2 SWAP1 POP JUMPDEST PUSH2 0x19AD PUSH2 0x19A5 DUP6 PUSH2 0x186A JUMP JUMPDEST DUP4 ADD DUP3 PUSH2 0x194D JUMP JUMPDEST POP POP JUMPDEST POP POP POP JUMP JUMPDEST PUSH0 DUP3 DUP3 SHR SWAP1 POP SWAP3 SWAP2 POP POP JUMP JUMPDEST PUSH0 PUSH2 0x19D0 PUSH0 NOT DUP5 PUSH1 0x8 MUL PUSH2 0x19B5 JUMP JUMPDEST NOT DUP1 DUP4 AND SWAP2 POP POP SWAP3 SWAP2 POP POP JUMP JUMPDEST PUSH0 PUSH2 0x19E8 DUP4 DUP4 PUSH2 0x19C1 JUMP JUMPDEST SWAP2 POP DUP3 PUSH1 0x2 MUL DUP3 OR SWAP1 POP SWAP3 SWAP2 POP POP JUMP JUMPDEST PUSH2 0x1A01 DUP3 PUSH2 0xFB0 JUMP JUMPDEST PUSH8 0xFFFFFFFFFFFFFFFF DUP2 GT ISZERO PUSH2 0x1A1A JUMPI PUSH2 0x1A19 PUSH2 0x1324 JUMP JUMPDEST JUMPDEST PUSH2 0x1A24 DUP3 SLOAD PUSH2 0x1614 JUMP JUMPDEST PUSH2 0x1A2F DUP3 DUP3 DUP6 PUSH2 0x196F JUMP JUMPDEST PUSH0 PUSH1 0x20 SWAP1 POP PUSH1 0x1F DUP4 GT PUSH1 0x1 DUP2 EQ PUSH2 0x1A60 JUMPI PUSH0 DUP5 ISZERO PUSH2 0x1A4E JUMPI DUP3 DUP8 ADD MLOAD SWAP1 POP JUMPDEST PUSH2 0x1A58 DUP6 DUP3 PUSH2 0x19DD JUMP JUMPDEST DUP7 SSTORE POP PUSH2 0x1ABF JUMP JUMPDEST PUSH1 0x1F NOT DUP5 AND PUSH2 0x1A6E DUP7 PUSH2 0x1858 JUMP JUMPDEST PUSH0 JUMPDEST DUP3 DUP2 LT ISZERO PUSH2 0x1A95 JUMPI DUP5 DUP10 ADD MLOAD DUP3 SSTORE PUSH1 0x1 DUP3 ADD SWAP2 POP PUSH1 0x20 DUP6 ADD SWAP5 POP PUSH1 0x20 DUP2 ADD SWAP1 POP PUSH2 0x1A70 JUMP JUMPDEST DUP7 DUP4 LT ISZERO PUSH2 0x1AB2 JUMPI DUP5 DUP10 ADD MLOAD PUSH2 0x1AAE PUSH1 0x1F DUP10 AND DUP3 PUSH2 0x19C1 JUMP JUMPDEST DUP4 SSTORE POP JUMPDEST PUSH1 0x1 PUSH1 0x2 DUP9 MUL ADD DUP9 SSTORE POP POP POP JUMPDEST POP POP POP POP POP POP JUMP JUMPDEST PUSH32 0x5374616666206E6F7420666F756E640000000000000000000000000000000000 PUSH0 DUP3 ADD MSTORE POP JUMP JUMPDEST PUSH0 PUSH2 0x1AFB PUSH1 0xF DUP4 PUSH2 0xFBA JUMP JUMPDEST SWAP2 POP PUSH2 0x1B06 DUP3 PUSH2 0x1AC7 JUMP JUMPDEST PUSH1 0x20 DUP3 ADD SWAP1 POP SWAP2 SWAP1 POP JUMP JUMPDEST PUSH0 PUSH1 0x20 DUP3 ADD SWAP1 POP DUP2 DUP2 SUB PUSH0 DUP4 ADD MSTORE PUSH2 0x1B28 DUP2 PUSH2 0x1AEF JUMP JUMPDEST SWAP1 POP SWAP2 SWAP1 POP JUMP JUMPDEST PUSH32 0x53616C617279206D7573742062652067726561746572207468616E2030000000 PUSH0 DUP3 ADD MSTORE POP JUMP JUMPDEST PUSH0 PUSH2 0x1B63 PUSH1 0x1D DUP4 PUSH2 0xFBA JUMP JUMPDEST SWAP2 POP PUSH2 0x1B6E DUP3 PUSH2 0x1B2F JUMP JUMPDEST PUSH1 0x20 DUP3 ADD SWAP1 POP SWAP2 SWAP1 POP JUMP JUMPDEST PUSH0 PUSH1 0x20 DUP3 ADD SWAP1 POP DUP2 DUP2 SUB PUSH0 DUP4 ADD MSTORE PUSH2 0x1B90 DUP2 PUSH2 0x1B57 JUMP JUMPDEST SWAP1 POP SWAP2 SWAP1 POP JUMP INVALID LOG2 PUSH5 0x6970667358 0x22 SLT KECCAK256 0xAD SELFDESTRUCT GASLIMIT 0x23 SUB PUSH9 0x52D2F1BE029CA96B51 0xBA PUSH12 0xF25E526314F42A0089054823 EXTCALL PUSH15 0x3B64736F6C634300081E0033000000 "
				},
				"gasEstimates": {
					"creation": {
						"codeDepositCost": "1423400",
						"executionCost": "25748",
						"totalCost": "1449148"
					},
					"external": {
						"getAllStudentsCount()": "2477",
						"getSchoolFee(uint8)": "966",
						"getStaff(uint256)": "infinite",
						"getStudent(uint256)": "infinite",
						"owner()": "2574",
						"payStaff(uint256)": "73633",
						"registerStaff(string)": "infinite",
						"registerStudent(string,uint8)": "infinite",
						"staffCount()": "2470",
						"staffs(uint256)": "infinite",
						"studentCount()": "2491",
						"students(uint256)": "infinite",
						"withdraw()": "infinite"
					}
				},
				"methodIdentifiers": {
					"getAllStudentsCount()": "839f52b8",
					"getSchoolFee(uint8)": "07b1f385",
					"getStaff(uint256)": "f4def44b",
					"getStudent(uint256)": "642f9163",
					"owner()": "8da5cb5b",
					"payStaff(uint256)": "9ecafb1f",
					"registerStaff(string)": "8f44fc15",
					"registerStudent(string,uint8)": "73203ef1",
					"staffCount()": "38dda849",
					"staffs(uint256)": "498d4707",
					"studentCount()": "e581f9ee",
					"students(uint256)": "06ead22e",
					"withdraw()": "3ccfd60b"
				}
			},
			"storageLayout": {
				"storage": [
					{
						"astId": 3,
						"contract": "contracts/MyToken.sol:SchoolManagement",
						"label": "owner",
						"offset": 0,
						"slot": "0",
						"type": "t_address"
					},
					{
						"astId": 60,
						"contract": "contracts/MyToken.sol:SchoolManagement",
						"label": "studentCount",
						"offset": 0,
						"slot": "1",
						"type": "t_uint256"
					},
					{
						"astId": 62,
						"contract": "contracts/MyToken.sol:SchoolManagement",
						"label": "staffCount",
						"offset": 0,
						"slot": "2",
						"type": "t_uint256"
					},
					{
						"astId": 67,
						"contract": "contracts/MyToken.sol:SchoolManagement",
						"label": "students",
						"offset": 0,
						"slot": "3",
						"type": "t_mapping(t_uint256,t_struct(Student)45_storage)"
					},
					{
						"astId": 72,
						"contract": "contracts/MyToken.sol:SchoolManagement",
						"label": "staffs",
						"offset": 0,
						"slot": "4",
						"type": "t_mapping(t_uint256,t_struct(Staff)58_storage)"
					}
				],
				"types": {
					"t_address": {
						"encoding": "inplace",
						"label": "address",
						"numberOfBytes": "20"
					},
					"t_bool": {
						"encoding": "inplace",
						"label": "bool",
						"numberOfBytes": "1"
					},
					"t_enum(Level)29": {
						"encoding": "inplace",
						"label": "enum SchoolManagement.Level",
						"numberOfBytes": "1"
					},
					"t_mapping(t_uint256,t_struct(Staff)58_storage)": {
						"encoding": "mapping",
						"key": "t_uint256",
						"label": "mapping(uint256 => struct SchoolManagement.Staff)",
						"numberOfBytes": "32",
						"value": "t_struct(Staff)58_storage"
					},
					"t_mapping(t_uint256,t_struct(Student)45_storage)": {
						"encoding": "mapping",
						"key": "t_uint256",
						"label": "mapping(uint256 => struct SchoolManagement.Student)",
						"numberOfBytes": "32",
						"value": "t_struct(Student)45_storage"
					},
					"t_string_storage": {
						"encoding": "bytes",
						"label": "string",
						"numberOfBytes": "32"
					},
					"t_struct(Staff)58_storage": {
						"encoding": "inplace",
						"label": "struct SchoolManagement.Staff",
						"members": [
							{
								"astId": 47,
								"contract": "contracts/MyToken.sol:SchoolManagement",
								"label": "id",
								"offset": 0,
								"slot": "0",
								"type": "t_uint256"
							},
							{
								"astId": 49,
								"contract": "contracts/MyToken.sol:SchoolManagement",
								"label": "name",
								"offset": 0,
								"slot": "1",
								"type": "t_string_storage"
							},
							{
								"astId": 51,
								"contract": "contracts/MyToken.sol:SchoolManagement",
								"label": "isRegistered",
								"offset": 0,
								"slot": "2",
								"type": "t_bool"
							},
							{
								"astId": 53,
								"contract": "contracts/MyToken.sol:SchoolManagement",
								"label": "salaryPaid",
								"offset": 1,
								"slot": "2",
								"type": "t_bool"
							},
							{
								"astId": 55,
								"contract": "contracts/MyToken.sol:SchoolManagement",
								"label": "salaryAmount",
								"offset": 0,
								"slot": "3",
								"type": "t_uint256"
							},
							{
								"astId": 57,
								"contract": "contracts/MyToken.sol:SchoolManagement",
								"label": "paymentTimestamp",
								"offset": 0,
								"slot": "4",
								"type": "t_uint256"
							}
						],
						"numberOfBytes": "160"
					},
					"t_struct(Student)45_storage": {
						"encoding": "inplace",
						"label": "struct SchoolManagement.Student",
						"members": [
							{
								"astId": 31,
								"contract": "contracts/MyToken.sol:SchoolManagement",
								"label": "id",
								"offset": 0,
								"slot": "0",
								"type": "t_uint256"
							},
							{
								"astId": 33,
								"contract": "contracts/MyToken.sol:SchoolManagement",
								"label": "name",
								"offset": 0,
								"slot": "1",
								"type": "t_string_storage"
							},
							{
								"astId": 36,
								"contract": "contracts/MyToken.sol:SchoolManagement",
								"label": "level",
								"offset": 0,
								"slot": "2",
								"type": "t_enum(Level)29"
							},
							{
								"astId": 38,
								"contract": "contracts/MyToken.sol:SchoolManagement",
								"label": "isRegistered",
								"offset": 1,
								"slot": "2",
								"type": "t_bool"
							},
							{
								"astId": 40,
								"contract": "contracts/MyToken.sol:SchoolManagement",
								"label": "feePaid",
								"offset": 2,
								"slot": "2",
								"type": "t_bool"
							},
							{
								"astId": 42,
								"contract": "contracts/MyToken.sol:SchoolManagement",
								"label": "amountPaid",
								"offset": 0,
								"slot": "3",
								"type": "t_uint256"
							},
							{
								"astId": 44,
								"contract": "contracts/MyToken.sol:SchoolManagement",
								"label": "paymentTimestamp",
								"offset": 0,
								"slot": "4",
								"type": "t_uint256"
							}
						],
						"numberOfBytes": "160"
					},
					"t_uint256": {
						"encoding": "inplace",
						"label": "uint256",
						"numberOfBytes": "32"
					}
				}
			},
			"userdoc": {
				"kind": "user",
				"methods": {},
				"version": 1
			}
		}
	}
}